:0C03FD003F065B4F666D7D077F6F004080
:0A02B6000823000000000000000013
:10019A00E4F580E5A0541F44C0F5A0AF227401A87D
:1001AA0007088002C333D8FCF58075A01F7580FF4D
:1001BA00E5A0541F44E0F5A074232FF8E6F4F58077
:1001CA0075A01F0522E52270020521532207752119
:0101DA000024
:0101DB002201
:0703D40075A01FEC25E0FC01
:0E03DB0000007F167E037DE3DDFEDEFCDFFA10
:0103E90022F1
:10028A00C286C284E5A0541F44A0F5A075A01F75BC
:10029A0080FFE5A0541F44E0F5A075A01F7580FFFC
:0C02AA00E5A0541F4480F5A075A01F22A1
:100256007CFEE4FB8C80E5A0541F4480F5A01203CD
:10026600D40BBB08EF7C80E4FB8C80E5A0541F44D4
:1002760080F5A075A01FECC3134480FC1203DB0BB2
:03028600BB08E6CC
:010289002252
:1000FE007C01E4FBE4F580E5A0541F44C0F5A08C20
:10010E008075A01F7580FFE5A0541F44E0F5A07414
:10011E00232BF8E6F58075A01FEC25E04401FC12B8
:10012E0003DB0BBB08CE7CFEE4FBE4F580E5A054BC
:0E013E001F44C0F5A08C801203D40BBB08EC4C
:01014C002290
:1003EA00438E805389F0758A9A758CA9C28DD28CF6
:0303FA00D2A92263
:1003A50012028A1202561200FED2AF1203EA752E0D
:0803B5001775303B752D37224E
:10014D00E52E75F00A849003FD93F523E52E75F0E9
:10015D000A84E5F093F524900408E493FFF525E572
:10016D003075F00A849003FD93F526E53075F00A9D
:10017D0084E5F093F5278F28E52D75F00A8493F526
:0D018D0029E52D75F00A84E5F093F52A228E
:100306001202DE30041CC204E51A24FC60121460DA
:100316000C14600614700BB20022B20122B2022243
:03032600B20322FD
:1003290030000DE5A0541F4480F5A07580EF800BC7
:0F0339007580FFE5A0541F4480F5A075A01F221A
:1003480030010DE5A0541F4480F5A07580DF800BB7
:0F0358007580FFE5A0541F4480F5A075A01F22FB
:1003670030020DE5A0541F4480F5A07580BF800BB7
:0F0377007580FFE5A0541F4480F5A075A01F22DC
:1003860030030DE5A0541F4480F5A075807F800BD7
:0F0396007580FFE5A0541F4480F5A075A01F22BD
:1003BD001203A512038612036712034812032912B2
:0703CD00030612014D80EC54
:10021D00052CE52C7002052B64F47004E52B6401AC
:10022D007026F52BF52C052DE52DB43C1BE4F52D95
:10023D000530E530B43C11E4F530052EE52EB4184B
:09024D0007E4F52EF530F52D2231
:03000B000201DC13
:1001DC00C0E0C0F0C083C082C0D075D000C000C0E9
:1001EC0001C002C003C004C005C006C00712021D36
:1001FC0012019A12009AD007D006D005D004D00371
:10020C00D002D001D000D0D0D082D083D0F0D0E0BA
:01021C0032AF
:1002C000011A00C1040412FFFFFFFF04160101011F
:0D02D00001040E01010101040A07060504E6
:10009A00E51225E0FFA2B0E4334FF512E51325E09F
:1000AA00FFA2B1E4334FF513E51425E0FFA2B2E451
:1000BA00334FF514E51525E0FFA2B3E4334FF515E8
:1000CA00E4F508F509AF0974122FF8E670067416FC
:1000DA002FF8E4F6AF0974122FF8E6FEBEFF067495
:1000EA00162FF876010509E509700205086404452A
:0300FA000870D2B9
:0100FD0022E0
:1002DE00E4FF740E2FF8E6FE74162FF8E6FD6E603E
:1002EE0012EE7009D204740A2FF8E6F51A740E2F66
:0702FE00F8A6050FBF04DBA9
:0103050022D5
:0300000002000EED
:0C000E00787FE4F6D8FD758130020055C3
:10001A000203BDE493A3F8E493A34003F68001F23C
:10002A0008DFF48029E493A3F85407240CC8C333E7
:10003A00C4540F4420C8834004F456800146F6DFB6
:10004A00E4800B01020408102040809002B6E47E8E
:10005A00019360BCA3FF543F30E509541FFEE493AB
:10006A00A360010ECF54C025E060A840B8E493A372
:10007A00FAE493A3F8E493A3C8C582C8CAC583CA9D
:10008A00F0A3C8C582C8CAC583CADFE9DEE780BE55
:0102DD000020
:00000001FF
