:03000000020CA24D
:0C0CA200787FE4F6D8FD758148020CE96B
:100F8100C0F9A4B0999282F880908883C6A1868E18
:100F91004079243019120278001008034621060E08
:0E0FD8000246000F01480A02430001013D00DD
:0F107C0012108B12109A12101F12104802106CD3
:100A2600200603020AFEC206D20D120E1EAC07E411
:100A36001206A87BA17AA079A0783C1204F88F361A
:100A46008E358D348C33E4FFFE7DA07C41AB36AA17
:100A560035A934A8331204F81206DC8F3EE53ED3DE
:100A660095485006753233020AF9AF3E7E00C3EF51
:100A760094507480948040057532FF8076E53ED3AD
:100A86009548406FEF9450EE648094805065C3742F
:100A9600509548FDE49400FC1206A3A804A905AAF3
:100AA60006AB07E4FFFE7D807C40120601C004C051
:100AB60005C006C007C3E53E9548FDE49400FC1258
:100AC60006A3D003D002D001D0001204F81206DC2F
:100AD600EF2401FDE433FC1206A3E4FBFA79A078C7
:100AE60040120601E4FBFA797F78431204F81206F5
:100AF600DC8F32AF32120F5C300C5CC20C12000E6F
:100B06008E388F39AE43AF447C007D0A12075DD321
:100B1600E5399FE5389E400F20080C12109AD284C2
:100B260053A01FD2088030AE43AF447C007D0A122A
:100B3600075DD3E5399FE5389E501C300819121021
:100B46009AC28453A01FC2080542E542FD7C00E418
:100B5600FF120F101210F2AE46AF477C007D6412F2
:100B6600075DD3E53B9FE53A9E4003D20722C207C5
:010B7600225C
:100D2E0012108B300404C2808002D280300504C2BF
:100D3E00818002D281300304C2828002D282AE460A
:100D4E00AF477C007D6412075DD3E53B9FE53A9E7D
:100D5E004004C2838002D283E53ED395484004C24C
:100D6E00848002D284AE43AF447C007D0A12075DBC
:100D7E00D3E5399FE5389E4004C2858002D285D2E4
:070D8E0086D28753A01F224B
:100B7700200003020CA1C2001210E98F3F7E00EF94
:100B8700640470050537533703EF64054E7011E5AC
:100B9700376403700B053CE53C75F0038485F03C36
:100BA700E53F6406706FAF37FEEF6403705FAD3CDF
:100BB700FCED700D74052547F547E43546F546808D
:100BC7001CED64014C7008740A2548F548800EED49
:100BD70064024C70080544E54470020543D3E547B9
:100BE7009478E5469400400675460075470AD3E5B4
:100BF70048943C74809480400375480AD3E5449434
:100C07000CE54394004006754300754401EF640208
:100C17004E7002B201E53F6407706EAF37FEEF64B6
:100C2700037060AD3CFCED700E74FB2547F547740F
:100C3700FF3546F546801CED64014C700874F625B7
:100C470048F548800EED64024C7008E54415447081
:100C5700021543C3E547940AE546940050067546D6
:100C670000754778C3E548940A74809480500375EB
:100C7700483CC3E5449401E543940050067543009E
:100C870075440CEF4E7002B202E5376401700BE554
:0B0C97001164077003D20B22C20B2275
:10006600E537600302027D900F9093FD7C00E4FF6C
:100076001210E07DFF7C007F011210E030020302C7
:100086000197AE3AAF3BE4FCFD7B9F7A867901F897
:10009600C31207D2501BAE3AAF3BE4FCFD0BF8127D
:1000A6000DDA74812FF582740F3EF583E493FD809B
:1000B600027DFF7C007F021210E0D3E53B940FE542
:1000C6003A94274021AE3AAF3B7C277D1012076F4A
:1000D6007C007D0A12076F74812DF582740F3CF542
:1000E60083E493FD80027DFF7C007F031210E0D342
:1000F600E53B94E7E53A94034021AE3AAF3B7C03F7
:100106007DE812076F7C007D0A12076F74812DF55A
:1001160082740F3CF583E493FD80027DFF7C007FB3
:10012600041210E0D3E53B9463E53A94004021AE17
:100136003AAF3B7C007D6412076F7C007D0A120794
:100146006F74812DF582740F3CF583E493FD800274
:100156007DFF7C007F051210E0D3E53B9409E53A6C
:1001660094004021AE3AAF3B7C007D0A12076F7CBB
:10017600007D0A12076F74812DF582740F3CF5839A
:10018600E493FD80027DFF7C007F061210E00202F0
:1001960076AE3AAF3BE4FCFD7B9F7A867901F8C3E5
:1001A6001207D2501BAE3AAF3BE4FCFD0BF8120D22
:1001B600DA74812FF582740F3EF583E493FD800295
:1001C6007DFF7C007F021210E0D3E53B940FE53AF9
:1001D60094274021AE3AAF3B7C277D1012076F7CF7
:1001E600007D0A12076F74812DF582740F3CF5832A
:1001F600E493FD80027DFF7C007F031210E0AE3A9F
:10020600AF3B7C037DE812076F7C007D0A12076F07
:1002160074912DF582740F3CF583E493FD7C007F89
:10022600041210E0AE3AAF3B7C007D6412076F7C8F
:10023600007D0A12076F74812DF582740F3CF583D9
:10024600E493FD7C007F051210E0AE3AAF3B7C00E4
:100256007D0A12076F7C007D0A12076F74812DF5E7
:1002660082740F3CF583E493FD7C007F061210E058
:10027600AE3AAF3B0204DCE5376401704B7D89FC86
:10028600FF1210E07DFF7C007F011210E07DFF7CF5
:10029600007F021210E07DFF7C007F031210E07DDC
:1002A600FF7C007F041210E07DFF7C007F051210AA
:1002B600E0E53E75F00A84900F8193FD7C007F0691
:1002C6001210E0E53E020493E53764026003020380
:1002D600C0900F8B93FD7C00E4FF1210E07DFF7C45
:1002E600007F011210E07DFF7C007F021210E07D8E
:1002F600FF7C007F031210E07DFF7C007F0412105C
:10030600E020016AD3E5399463E5389400401AAEDB
:1003160038AF397C007D6412076F74812FF58274C3
:100326000F3EF583E493FD80027DFF7C007F05127E
:1003360010E0D3E5399409E53894004021AE38AF92
:10034600397C007D0A12076F7C007D0A12076F74E4
:10035600812DF582740F3CF583E493FD80027DFFC9
:100366007C007F061210E0AE38AF390204DCAE38EE
:10037600AF397C007D6412076F74912FF582740F7C
:100386003EF583E493FD7C007F051210E0AE38AFA6
:10039600397C007D0A12076F7C007D0A12076F7494
:1003A600812DF582740F3CF583E493FD7C007F0676
:1003B6001210E0AE38AF390204DCE537640360039F
:1003C6000204F77D8CFCFF1210E07DFF7C007F02AB
:1003D6001210E07DFF7C007F031210E07DFF7C00A1
:1003E6007F041210E0E53C7075900F8293FD7C004F
:1003F6007F011210E0D3E5479463E5469400401A66
:10040600AE46AF477C007D6412076F74812FF5827C
:10041600740F3EF583E493FD80027DFF7C007F052B
:100426001210E0D3E5479409E54694004021AE4614
:10043600AF477C007D0A12076F7C007D0A12076FAA
:1004460074912DF582740F3CF583E493FD80027D53
:10045600FF7C007F061210E0AE46AF478078E53C91
:1004660064017034900F8393FD7C007F011210E0CD
:100476007DFF7C007F051210E0E54875F00A849048
:100486000F8193FD7C007F061210E0E54875F00AA7
:1004960084E5F0900F818050E53C64027053900F24
:1004A6008493FD7C007F011210E07DFF7C007F05B8
:1004B6001210E0AE43AF447C007D0A12076F7491C0
:1004C6002FF582740F3EF583E493FD7C007F0612C0
:1004D60010E0AE43AF447C007D0A12076F74812D95
:1004E600F582740F3CF583E493FD7C007F071210C0
:0204F600E02202
:1010090012107C300A05C20A120D2E120066120B4C
:0610190077120A2680EDAB
:03000B000210C719
:0D10C700C0E00541E54170020540D0E03277
:030063000208B6DA
:1008B600C0E0C0F0C083C082C0D075D000C000C008
:0D08C60001C002C003C004C005C006C00789
:1008D300D20A0522E52264647004F522D2000523BE
:1008E300E52364147005F5231210340525E52570FE
:1008F300020524B4E80DE524B40308752400752526
:1009030000D206052BE52B7002052AB4D00DE52A8B
:10091300B40708752A00752B00D20C0527E527704C
:10092300020526B41017E526B4271275260075278D
:100933000085403A85413B754000754100300B1BF3
:100943000529E52970020528B41016E528B42711F6
:1009530075280075290075420080067528007529E1
:1009630000AF377E00EF701A052DE52D7002052CC0
:10097300B4E817E52CB40312752C00752D00B204EE
:100983008008C204752C00752D00EF64014E701AA7
:10099300052FE52F7002052EB4E817E52EB40312D8
:1009A300752E00752F00B2058008C205752E0075DF
:1009B3002F00EF64024E701A0531E53170020530E5
:1009C300B4E817E530B40312753000753100B20393
:1009D3008008C203753000753100054530070DC32B
:1009E300E5459408748094804012800BC3E54594D8
:1009F30002748094804005433D208003533DDFE52E
:080A03004575F00A8485F045F9
:100A0B00D007D006D005D004D003D002D001D0003F
:0B0A1B00D0D0D082D083D0F0D0E032E9
:0A0FE6000809FFFFFFFFFFFFFFFFF8
:0F108B0053A01F7580FFE5A0541F4480F5A022DD
:0F109A0053A01FE4F580E5A0541F44A0F5A02249
:100EE80053A01FEFFD7C006401700BF580E5A05452
:100EF8001F44C0F5A022ED64024C700B7580FFE51D
:080F0800A0541F44E0F5A022F3
:100EBE00AB05AA04AE077F02120EE81F120EE8AFB2
:100ECE0006A8077401088002C333D8FC42807F0253
:0A0EDE00120EE8EB528053A01F2211
:1010340074092508F8E6FD7C00AF08120EBE050809
:0310440053080747
:011047002286
:0910E000AE0574092FF8A60622E2
:100D950043B00FE51214602B04703920B0097513A8
:100DA5000775120175110720B10675130675120135
:100DB50020B20675130575120120B3187513047555
:100DC50012012230B00E30B10B30B20830B305E459
:050DD500F512F51122EA
:0810E900120D95AF13E4F5139D
:0110F10022DC
:100E1E001210B87F90120E5612105A200D047F41F8
:100E2E0080027F43120E5612105A1210D41210B8AE
:100E3E007F91120E5612105A120F368F147F011216
:070E4E000FF11210D4AF14E4
:010E5500227A
:100F5C008F141210B87F90120E5612105A7F401236
:100F6C000E5612105AAF14120E5612105A7F01124E
:050F7C000FF10210D48A
:10101F00438E80438906758AF4758CFFC28DD28CFE
:05102F00D2A9D2AF229E
:10104800438E0475D75075D6FB438E1043AF04D238
:02105800AF22C5
:100F10008F148C158D161210B87FA0120E56121059
:100F20005AAF14120E5612105AAF16120E567F01F7
:060F3000120FF10210D4C3
:020E8B008F17BF
:100E8D001210B87FA0120E5612105AAF17120E562E
:100E9D0012105A1210D41210B87FA1120E56121041
:100EAD005A120F368F187F01120FF11210D4AF188E
:010EBD002212
:10106C00538EBF53890FE4F58BF58DC28FC28E2240
:100FA100E4F516C3E516940874809480500ED2902F
:0C0FB100120003C290120003051680E736
:010FBD002211
:10000E00120FA1D28E309103308FFAC28E208F2A1A
:10001E00AF8DEFFEA28FE433FDEDFFAC06E41206CA
:10002E00A37B967A43798B783C1204F81206DCEFA8
:10003E002403F515E43EF514800B308F08C28F753E
:0E004E0014037515E7E4F58DF58BAE14AF15B0
:01005C002281
:0600030000007F21DFFE7A
:0100090022D4
:0810F2007F3B7E5ADEFEDFFCAD
:0110FA0022D3
:0E10A90000007F237E337DB6DDFEDEFCDFFA25
:0110B7002216
:040FBE00D2A07F0539
:100FC200000000000000000000000000000000AE71
:060FD200071FEE70EB2288
:0F10B800D2A1120FBEC2A17F05120FC2C2A02289
:0C10D400C2A1120FBED2A17F05020FC204
:020E5600AD07E6
:100E5800E4FCECC39408748094805024C2A07F05FD
:100E6800120FC2ED30E704D2A18002C2A17F0512A1
:100E78000FC2D2A0ED25E0FD7F05120FC20C80D273
:020E8800C2A006
:010E8A002245
:100F3600E4FCECC39408748094805017120FBEED45
:100F460025E0FD30A103430501C2A07F05120FC2B3
:050F56000C80DFAF0577
:010F5B002273
:10105A00120FBEA2A1E433FDC2A07F05120FC2AFD8
:01106A000580
:01106B002262
:100FF100C2A0EF24FF92A17F05120FC2120FBEC241
:08100100A0D2A17F05020FC27D
:1004F800EC4D6011E8497017ED33EC3304600DE4FE
:10050800FCFFFEFD22E933E8330470F802074812C5
:10051800071358046009E4CC2481500628500902C6
:10052800075228400302074FC0E0EB4A7044B980E5
:1005380006D0E0FB02073EEF4E701CBD8008EBFFC3
:10054800EAFEE9FD80EBE98DF0A4FEE5F00205E1A5
:10055800E9CDF9EAFEEBFFEF89F0A4FCE5F0CE89DE
:10056800F0A42EFFE435F0CD89F0A42DFEE435F09B
:100578008067EF4E7005BD80D780C3EF8BF0A4ACC9
:10058800F0EE8BF0A42CFCE435F0F8EF8AF0A42C04
:10059800E5F038FCE433CB8DF0A42CFCE5F03BF817
:1005A800EE8AF0A42CFCE5F038F8E433CF89F0A407
:1005B8002CFCE5F038CF3400CE89F0A42FFFE5F00D
:1005C8003EFEE433C98DF0A42EFEE5F039CD8AF065
:1005D800A42FFFE5F03EFEE43DFD33D0E0FB5007DD
:1005E8000BBB000F020752EC2CFCEF33FFEE33FE7F
:0605F800ED33FD02072AAD
:1005FE00020752EC5D046005E859047003020748D7
:10060E00120713580460F6EC4860F2EC7004FDFE1D
:10061E00FF22C860DB2481C85009C39860025006CF
:10062E0002074F9850CAF582E9294B4A7005AB82F2
:10063E0002073E75F0007C1A7880C3EF9BEE9AEDB0
:10064E0099400DC3EF9BFFEE9AFEED99FDE842F047
:10065E00DC23ACF0D0E0FFD0E0FED0E0FDAB82209A
:10066E00E7101BEB60BAEC2CFCEF33FFEE33FEED24
:10067E0033FD02072AE803F830E705C0F075F000F5
:10068E00EF2FFFEE33FEED33FD40B830E7C280AA08
:10069E0075F020800E75F010800575F0087D007ED7
:1006AE00007F003392D530D5031207C4EC334010CF
:1006BE00EF33FFEE33FEED33FDEC33FCD5F0ED22E0
:0E06CE00E5F0247EA2D513CC92E7CDCEFF221C
:1006DC00EDD2E7CD33EC3392D524814006E4FFFE16
:1006EC00FDFC22FCE4CFCECDCC24E0501174FF8075
:1006FC00EDC3CC13CCCD13CDCE13CECF13CF047012
:07070C00F030D5DE0207C446
:10071300E9D2E7C933E833F892D5EDD2E7CD33EC2C
:0707230033FC5002B2D522A5
:10072A00EC30E7100FBF000C0EBE00080DBD000430
:10073A000BEB6014A2D5EB13FCED92E7FD2274FFDC
:10074A00FCFDFEFF22E480F8A2D574FF13FC7D8035
:03075A00E480EF49
:100CAE00021009E493A3F8E493A34003F68001F243
:100CBE0008DFF48029E493A3F85407240CC8C33347
:100CCE00C4540F4420C8834004F456800146F6DF16
:100CDE00E4800B0102040810204080900FD8E47EBF
:100CEE00019360BCA3FF543F30E509541FFEE4930B
:100CFE00A360010ECF54C025E060A840B8E493A3D2
:100D0E00FAE493A3F8E493A3C8C582C8CAC583CAFC
:100D1E00F0A3C8C582C8CAC583CADFE9DEE780BEB4
:010FF0000000
:10075D00EF8DF0A4A8F0CF8CF0A428CE8DF0A42EB0
:02076D00FE226A
:10076F00BC000BBE0029EF8DF084FFADF022E4CC6E
:10077F00F875F008EF2FFFEE33FEEC33FCEE9DEC37
:10078F00984005FCEE9DFE0FD5F0E9E4CEFD22ED7D
:10079F00F8F5F0EE8420D21CFEADF075F008EF2FC7
:1007AF00FFED33FD4007985006D5F0F222C398FDB8
:0507BF000FD5F0EA2255
:100DDA00C2D5E830E70FB2D5E4C39BFBE49AFAE444
:100DEA0099F9E498F8EC30E717B2D5120E10120808
:100DFA0024E4C39BFBE49AFAE499F9E498F88003A3
:100E0A0012082430D50DE4C39FFFE49EFEE49DFD45
:040E1A00E49CFC2236
:0E07C400C3E49FFFE49EFEE49DFDE49CFC2246
:1007D200EB9FF5F0EA9E42F0E99D42F0EC6480C89E
:0607E20064809845F0223E
:1007E80075F008758200EF2FFFEE33FECD33CDCCC8
:1007F80033CCC58233C5829BED9AEC99E58298404B
:100808000CF582EE9BFEED9AFDEC99FC0FD5F0D627
:10081800E4CEFBE4CDFAE4CCF9A88222B800C1B951
:100828000059BA002DEC8BF084CFCECDFCE5F0CB8F
:10083800F97818EF2FFFEE33FEED33FDEC33FCEBC8
:1008480033FB10D703994004EB99FB0FD8E5E4F983
:10085800FA227818EF2FFFEE33FEED33FDEC33FC70
:10086800C933C910D7059BE99A4007EC9BFCE99A64
:10087800F90FD8E0E4C9FAE4CCFB2275F010EF2FA9
:10088800FFEE33FEED33FDCC33CCC833C810D707A9
:100898009BEC9AE899400AED9BFDEC9AFCE899F8E4
:0E08A8000FD5F0DAE4CDFBE4CCFAE4C8F92277
:00000001FF
