:0300000002129158
:0C129100787FE4F6D8FD75817B0212D84E
:10113F00563A252E326620560D0A00543A252E3285
:10114F006620A1E60D0A002578206820200025786A
:10115F00206D202000257820730D0A00433A256466
:10116F0020636D0D0A004C45445F436C6F7365003F
:10117F004C45445F436C6F73655F4F6B210D0A00E5
:10118F004C45445F4F70656E004C45445F4F706532
:10119F006E5F4F6B210D0A00534D475F4F70656EA9
:1011AF0000534D475F4F70656E5F4F6B210D0A0007
:1011BF00534D475F436C6F736500534D475F436CEF
:1011CF006F73655F4F6B210D0A00C0F9A4B0999240
:1011DF0082F880908883C6A1868E407924301912B8
:0A11EF000278001008034621060EE6
:0C19D4000343505923015619C181C185FD
:1018FB00121A30121A3F12000E1219A3121A117B70
:0E190B00007A0079431214EC121A79021A4E77
:10157A0030023CC202A207920D12166FAC07E412A7
:10158A00024F7BA17AA079A0783C1200268F2E8E7A
:10159A002D8D2C8C2BE4FBFA79A0784012012FE4D4
:1015AA00FBFA797F78431200261202831218272247
:10138F00300910C209121A7912170F8F5E8E5D8DF8
:10139F005C8C5BE55714601D047034AC56E412028C
:1013AF004FAB5EAA5DA95CA85B1201CC6021401F08
:1013BF00755701801AAC56E412024FAB5EAA5DA9B5
:1013CF005CA85B1201CC60025005E4F557055AACDE
:1013DF0056E412024FAB5EAA5DA95CA85B1201CC6A
:0A13EF0060054003D20022C2002274
:0F1A210030080BC2087B007A0079431216362278
:1018DC0030040FC204E55AFD7C00E4FF1218951287
:0F18EC001AAF300B09C20BE4FF1216DC8F5A2221
:0D1A6C00300C09C20C1215338E588F592210
:100FE20020030302109AC203E54670187563FF7569
:100FF200641175653F852E69852D68852C67852B63
:1010020066021089E546640170177563FF75641105
:1010120075654A855E69855D68855C67855B668006
:1010220066E5466402704B7563FF7564117565561B
:10103200854566FB7A00792F1208A87B007A007931
:101042002F12184C7563FF75641175655D854466D2
:101052007B007A00792F1208A87B007A00792F1280
:10106200184C7563FF7564117565648543667B0072
:101072008016E546640370207563FF75641175651B
:101082006B855866855967FB7A00792F1208A87B11
:10109200007A00792F12184C20060302113EC20674
:1010A2007563FF75641175656B756600756700750C
:1010B20068477B007A00792F1208A878477C007D68
:1010C200007BFF7A11797512082FEF3395E04F708C
:1010D2000AC2017BFF7A11797F805E78477C007DAE
:1010E200007BFF7A11798F12082FEF3395E04F7052
:1010F2000AD2017BFF7A117998803E78477C007D85
:10110200007BFF7A1179A712082FEF3395E04F7019
:101112000AD2057BFF7A1179B0801E78477C007D68
:10112200007BFF7A1179BF12082FEF3395E04F70E1
:0D1132000BC2057BFF7A1179C912184C22FF
:10131D00121A30300163AF467E00EF7006C280D2E4
:10132D0081800AEF64014E7008D280C281D2828022
:10133D000CEF64024E700CD280D281C282D283D265
:10134D00848022EF64034E700CD280D281D282C28F
:10135D0083D2848010EF64044E700AD280D281D281
:10136D0082D283C284300704C2858002D285300ABE
:10137D0004C2868009D28680057FFF121A9253A07F
:02138D001F221D
:1013F900121ABF8F5F7E00EF6404700A0546E54646
:1014090064057002F546EF64054E7006E546700204
:10141900B207E55F64067002B201AF5F7E00EF6458
:10142900077002B205EF64084E7002F55AEF6409BD
:101439004E7002D204EF640A4E7002D20BEF640BB5
:061449004E7002D20322E6
:100CBB00200503020F99E5466003020D797DC1FC07
:100CCB00FF121AA6A207E4339011D993FD7C007F83
:100CDB0001121AA67DFF7C007F02121AA67DFF7CF3
:100CEB00007F03121AA67DFF7C007F04121AA6E474
:100CFB00FFFE7DC87C42AB2EAA2DA92CA82B12007F
:100D0B00261202837C007D6412061874E92FF5828B
:100D1B0074113EF583E493FD7C007F05121AA6E463
:100D2B00FFFE7DC87C42AB2EAA2DA92CA82B12004E
:100D3B00261202837C007D0A1206187C007D0A12A3
:100D4B00061874D92DF58274113CF583E493FD7C60
:100D5B00007F06121AA6E4FFFE7DC87C42AB2EAACA
:100D6B002DA92CA82B120026120283020EF4E546A5
:100D7B0064016003020E007DC8FCFF121AA67DFF02
:100D8B007C007F01121AA67DFF7C007F02121AA63F
:100D9B007DFF7C007F03121AA67DFF7C007F04126F
:100DAB001AA6AF5EAE5DAD5CAC5B120283EF75F065
:100DBB000A849011D993FD7C007F05121AA6AF5EB1
:100DCB00AE5DAD5CAC5B120283EF75F00A84E5F0AF
:100DDB009011E993FD7C007F06121AA6E4FFFE7DBD
:100DEB00207C41AB5EAA5DA95CA85B1200261202B7
:100DFB0083EF020F8CE5466402706CE545C4540F1B
:100E0B009011D993FD7C00E4FF121AA6E545540F0F
:100E1B009011D993FD7C007F01121AA67DBF7C0037
:100E2B007F02121AA6E544C4540F9011D993FD7C8E
:100E3B00007F03121AA6E544540F9011D993FD7C41
:100E4B00007F04121AA67DBF7C007F05121AA6E54F
:100E5B0043C4540F9011D993FD7C007F06121AA640
:100E6B00E543540F020F92E54664036003020F093A
:100E7B009011E593FD7C00E4FF121AA67DFF7C0028
:100E8B007F01121AA67DFF7C007F02121AA67DFF3E
:100E9B007C007F03121AA67DFF7C007F04121AA62A
:100EAB00AE58AF597C007D6412061874D92FF582A9
:100EBB0074113EF583E493FD7C007F05121AA6AEF8
:100ECB0058AF597C007D0A1206187C007D0A120669
:100EDB001874D92DF58274113CF583E493FD7C00D5
:100EEB007F06121AA6AE58AF597C007D0A1206185F
:100EFB0074D92DF58274113CF583E4020F95E54608
:100F0B0064046003020FE17DC8FCFF121AA67DBFCB
:100F1B007C007F01121AA6D3E55A94097480948041
:100F2B00400DE55A75F00A849011D993FD80027D2E
:100F3B00FF7C007F02121AA6E55A75F00A84E5F0D1
:100F4B009011D993FD7C007F03121AA67D8C7C0037
:100F5B007F04121AA67DBF7C007F05121AA6D3E56B
:100F6B0056940974809480400DE55675F00A849070
:100F7B0011D993FD80027DFF7C007F06121AA6E536
:100F8B005675F00A84E5F09011D993FD80417DFFF1
:100F9B007C00E4FF121AA67DFF7C007F01121AA6CB
:100FAB007DFF7C007F02121AA67DFF7C007F03125F
:100FBB001AA67DFF7C007F04121AA67DFF7C007FA2
:100FCB0005121AA67DFF7C007F06121AA67DFF7CF8
:070FDB00007F07121AA62295
:101871001218FBC2AF12131DD2AF12157A12138FB9
:10188100121A211218DC1213F9120CBB121A6C1263
:041891000FE280DF03
:03000B000211F9E6
:1011F900C0E0C0F0C083C082C0D075D000C000C0BC
:0D12090001C002C003C004C005C006C0073C
:101216000523E52364027005F52312198A0524E5E2
:1012260024640A7005F52412144F0525E525643259
:101236007004F525D2020527E52764327004F527E8
:10124600D2080526E52664647004F526D209052829
:10125600E52864C87004F528D20C30000E0529E58F
:10126600296464700BF529B20A8005752900C20A43
:10127600D007D006D005D004D003D002D001D000CC
:0B128600D0D0D082D083D0F0D0E03276
:030023000215BA09
:0D15BA00C0E0C0D075D000C000C006C00762
:1015C700309824C298AF99EF640D6003BF0A0ED21A
:1015D700067447252AF87600752A00800AAE2A0580
:0715E7002A74472EF8A60745
:0B15EE00D007D006D000D0D0D0E032F3
:0F1A300053A01F7580FFE5A0541F4480F5A0222E
:0A1A9200121A30EF528053A01F22F9
:0F1A3F0053A01FE4F580E5A0541F44A0F5A0229A
:0A1A9C00121A3FEF428053A01F22F0
:0A19E0000809FFFFFFFFFFFFFFFFF4
:1017640053A01FEFFD7C006401700BF580E5A054CD
:101774001F44C0F5A022ED64024C700B7580FFE598
:08178400A0541F44E0F5A0226F
:10173A00AB05AA04AE077F021217641F121764AF23
:10174A0006A8077401088002C333D8FC42807F02CE
:0A175A00121764EB528053A01F2207
:10198A0074092508F8E6FD7C00AF0812173A050825
:08199A00E50864087002F5087D
:0119A2002222
:091AA600AE0574092FF8A6062212
:1014A40075C00175B00FE5C0541033333354F8FFE1
:1014B400E5C05404C454F04FFFE5B0543F4FFF75EA
:1014C400C01F75B0F0E5C05404C454F04FFFE5C02C
:1014D400541033333354F84FFFE5B0543F4FF4FF07
:0714E40065115FF5128F1185
:0114EB0022DE
:10144F001214A4538EEFE512F42489602A24FC6051
:10145F002124FE601824C6603224FC602924FE601B
:10146F002014601824407026751307802175130609
:10147F00801C7513058017751304801275130B806C
:10148F000D75130A80087513098003751308438EB1
:05149F001075B0FF22F2
:051ABF00AF13E4F51374
:011AC40022FF
:10166F00121A5D7F901216A71219FF200D047F41E9
:10167F0080027F431216A71219FF121A86121A5DE3
:10168F007F911216A71219FF1218018F607F011296
:07169F0019BC121A86AF60AE
:0116A6002221
:101827008F60121A5D7F901216A71219FF7F401260
:1018370016A71219FFAF601216A71219FF7F011220
:0518470019BC021A8625
:101895008F608C618D62121A5D7FA01216A71219D6
:1018A500FFAF601216A71219FFAF621216A7121921
:0418B500FF021A868E
:0216DC008F601D
:1016DE00121A5D7FA01216A71219FFAF601216A77D
:1016EE001219FF121A86121A5D7FA11216A712196D
:1016FE00FF1218018F617F011219BC121A86AF6199
:01170E0022B8
:0D1A79001217B37FCC12178C7F4402178C1C
:10170F001217B37FCC12178C7FBE12178C1218B919
:10171F008F601218B9EFFEE560FFFDAC06E4120210
:0B172F004AE4FBFA7980783D020026B6
:1014EC008B608A6189627D7F7F8E1219EBAB60AA5B
:1014FC0061A96212059EFD7F801219EBAB60AA6197
:10150C00A9629000011205B7FD7F821219EBAB6046
:10151C00AA61A9629000021205B7FD7F841219EB33
:07152C007D807F8E0219EBA8
:101636008B608A6189627F811215F9AB60AA61A904
:1016460062EF1205E47F831215F9AB60AA61A96205
:10165600900001EF1205F67F851215F9AB60AA61BD
:09166600A962900002EF0205F6F2
:10000E00438E805389F0758A20758CD1C28DD28C27
:05001E00D2A9D2AF22BF
:1019A300759850438E01438E0475D7C775D6FE4391
:0919B3008E10C298D2ACD2AF2212
:080003008F993099FDC299228A
:10184C008B608A618962AB60AA61A96212059E6095
:10185C00130562E5627002056114F912059EFF1210
:05186C00000380E222F0
:101A1100538EBF53890FE4F58BF58DC28FC28E2291
:10193700E4F562C3E562940874809480500ED290F7
:0C194700121AB8C290121AB8056280E7AC
:011953002271
:10153300121937D28E309103308FFAC28E208F2248
:10154300AF8DEFFEAD8BEDFFAC06E412024A7B9646
:101553007A43798B783C1200261202838E608F6166
:10156300800B308F08C28F7560037561E7E4F58DDA
:06157300F58BAE60AF61D4
:01157900224F
:061AB80000007F21DFFEAB
:011ABE002205
:081AAF007F3B7E5ADEFEDFFCE6
:011AB700220C
:0E1A4E0000007F237E337DB6DDFEDEFCDFFA76
:011A5C002267
:10195400E4FEEEC3940874809480500FC297EF1392
:0B19640092A3EFC313FFD2970E80E7A1
:01196F002255
:1019EB00C29300C29700D29300121954AF0512197B
:0419FB0054C293221D
:1015F900E4FDC29300C29700D29300121954E4FF8C
:10160900EFC39408748094805011C297EDC313FD01
:1016190030A303430580D2970F80E5C29300C29798
:0C16290000D29700C2A300D2A300AF05BE
:011635002292
:04197000D2A07F057D
:10197400000000000000000000000000000000AEB5
:06198400071FEE70EB22CC
:0F1A5D00D2A1121970C2A17F05121974C2A02262
:0C1A8600C2A1121970D2A17F05021974D0
:0216A700AD078D
:1016A900E4FCECC39408748094805024C2A07F05A4
:1016B900121974ED30E704D2A18002C2A17F05128C
:1016C9001974D2A0ED25E0FD7F051219740C80D2A2
:0216D900C2A0AD
:0116DB0022EC
:10180100E4FCECC39408748094805017121970EDB5
:1018110025E0FD30A103430501C2A07F0512197423
:051821000C80DFAF05A3
:01182600229F
:1019FF00121970A2A1E433FDC2A07F05121974AFB2
:011A0F0005D1
:011A100022B3
:1019BC00C2A0EF24FF92A17F05121974121970C2F4
:0819CC00A0D2A17F05021974ED
:041919007F057E00C8
:10191D00EF1FAA0670011E4A600FE4FDEDC3940C83
:09192D007480948050EA0D80F3EF
:01193600228E
:02178C00A907AB
:10178E00E4FBEBC39408748094805012C294E91366
:10179E009294121919D294E9C313F90B80E47F05C0
:0517AE007E0002191D80
:1018B900E4FBEBC39408748094805014C294ECC385
:1018C90013FCD2943094034304801219190B80E25B
:0218D900AF045A
:0118DB0022EA
:1017B300C20DD2947F0C7E0012191DC2947F507EFD
:1017C3000012191DD2947F0A7E0012191DA2949251
:0617D3000D121919A20D10
:0117D90022ED
:10002600EC4D6011E8497017ED33EC3304600DE4D4
:10003600FCFFFEFD22E933E8330470F80202EF12FA
:1000460002BA58046009E4CC2481500628500902FB
:1000560002F92840030202F6C0E0EB4A7044B98078
:1000660006D0E0FB0202E5EF4E701CBD8008EBFFF8
:10007600EAFEE9FD80EBE98DF0A4FEE5F002010F52
:10008600E9CDF9EAFEEBFFEF89F0A4FCE5F0CE89B5
:10009600F0A42EFFE435F0CD89F0A42DFEE435F072
:1000A6008067EF4E7005BD80D780C3EF8BF0A4ACA0
:1000B600F0EE8BF0A42CFCE435F0F8EF8AF0A42CDB
:1000C600E5F038FCE433CB8DF0A42CFCE5F03BF8EE
:1000D600EE8AF0A42CFCE5F038F8E433CF89F0A4DE
:1000E6002CFCE5F038CF3400CE89F0A42FFFE5F0E4
:1000F6003EFEE433C98DF0A42EFEE5F039CD8AF03C
:10010600A42FFFE5F03EFEE43DFD33D0E0FB5007B3
:100116000BBB000F0202F9EC2CFCEF33FFEE33FEB3
:06012600ED33FD0202D1E1
:10012C000202F9EC5D046005E8590470030202EF69
:10013C001202BA580460F6EC4860F2EC7004FDFE52
:10014C00FF22C860DB2481C85009C39860025006A6
:10015C000202F69850CAF582E9294B4A7005AB8227
:10016C000202E575F0007C1A7880C3EF9BEE9AEDE5
:10017C0099400DC3EF9BFFEE9AFEED99FDE842F01E
:10018C00DC23ACF0D0E0FFD0E0FED0E0FDAB822071
:10019C00E7101BEB60BAEC2CFCEF33FFEE33FEEDFB
:1001AC0033FD0202D1E803F830E705C0F075F0002A
:1001BC00EF2FFFEE33FEED33FD40B830E7C280AADF
:1001CC0074F8CC6480CCC86480C8F58204604FC3DA
:1001DC00EB9FF5F0EA9E42F0E99D42F0E89C45F079
:1001EC00603C501DE5825FFFE582D313CB5BCBF403
:1001FC002B5582FB50280ABA002409B9002008802C
:10020C001DE5825BFBE582D313CF5FCFF4C3132FC5
:10021C005582FF50090EBE00050DBD00010CC3EB4D
:10022C009FF5F0EA9E42F0E99D42F0E89C45F060B3
:09023C0007CC4820E701B3EC22D5
:1002450075F020800E75F010800575F0087D007E34
:10025500007F003392D530D50312066DEC33401084
:10026500EF33FFEE33FEED33FDEC33FCD5F0ED223D
:0E027500E5F0247EA2D513CC92E7CDCEFF2279
:10028300EDD2E7CD33EC3392D524814006E4FFFE73
:10029300FDFC22FCE4CFCECDCC24E0501174FF80D2
:1002A300EDC3CC13CCCD13CDCE13CECF13CF04706F
:0702B300F030D5DE02066DFC
:10084C00E5772463F8E60577227860301402786344
:10085C00E475F00112067B02059E200DEB7F2ED273
:10086C000D8018EF540F2490D43440D4FF30110B6A
:10087C00EF24BFB41A0050032461FFE57860021521
:10088C0078057BE57B7002057A30140D7860E47591
:10089C00F00112067BEF0205E40217DA7403D2149E
:1008AC008003E4C214F5778B608A618962E4F57881
:1008BC00F57AF57BE57860077F2012088780F5755F
:1008CC0079FFC20EC20DC20FC210C212C213C215E2
:1008DC00120855FF700D3014057F00120898AF7B7D
:1008EC00AE7A22B4255FC2D5C211120855FF24D0AE
:1008FC00B40A00501A75F00A787830D50508B6FF9E
:10090C000106C6A426F620D5047002D21080D92484
:10091C00CFB41A00EF5004C2E5D211020B85D20EEF
:10092C0080C6D20D80C0D20F80BCD2D580BAD21274
:10093C0080B47F20120887200F077401B57800401F
:10094C00F112084CFF1208870208C0D215D213808E
:10095C009512084CFB12084CFA12084CF94A4B70D1
:10096C0006797C7A0C7BFF200F2EE578602A7E00BE
:10097C008E827583001205B760060EEE657970F0F5
:10098C00C2D5EBC0E0EAC0E0E9C0E0EE120BE5D066
:10099C00E0F9D0E0FAD0E0FB12059EFF60AAEBC0B4
:1009AC00E0EAC0E0E9C0E0120887D0E02401F9D009
:1009BC00E03400FAD0E0FBE5790460DCD579D9802D
:1009CC0087D20F80A2120BC860F7E5797001041270
:1009DC000304A979600DE579600914F579120C6F9F
:1009EC00EF60F3EA30E702F404C3995077EAF42598
:1009FC00790430E701E404F579800D120BC860C16D
:100A0C00EA05792579120304EA7876F630E701E4F1
:100A1C00257904D5790420120114120BE5E4C0E009
:100A2C00120C6F7876E6601320E70714F612086F45
:100A3C00802204F6D0E014C0E07F0012086FE57944
:100A4C0060071208661579800B301203120866D005
:100A5C00E00208C0D0E00480C5120BC860A0E579A4
:100A6C00041203047876EAF6E57920120260010498
:050A7C002404120BE54B
:100A810074FF04C0E0120C6F12086FE579201202A6
:100A91006003120866D0E0B579E87F4512087978DD
:100AA10076E67F2B30E7047F2DF404C0E01208873F
:100AB100D0E075F00A84C0F0120870D0E01208701E
:100AC1000208C0791080027908C213C2158008D2C9
:100AD100D5790A8004790AC2D5E579047002F579DD
:100AE100E4FAFDFEFF12084CFC7B08200E131208ED
:100AF1004CFD7B10300D0A12084CFE12084CFF7B96
:100B010020EC3382D592D55013C3E4300D069FFFFC
:100B1100E49EFEE4200E039DFDE49CFCE4CBF8C2C0
:100B21000EEC700CCFCECDCCE824F8F870F3801722
:100B3100C3EF33FFEE33FEED33FDEC33FCEB33FB60
:100B4100994002FB0FD8E9EB300E05F8D0E0C4481C
:100B5100B20EC0E00AEC4D4E4F78207B0070C2EA25
:100B6100B5790040BCC0E0120BE7D0F0D0E0200E18
:100B710004C4C0E0C4B20EC0F0120870D0F0D5F0C9
:100B8100EB0208C012068B095D530AC458092E4CAA
:100B9100092A420AC84F0AD0440AD0490943430AE4
:100BA100D6550A07460A654509D1470C9C500932BA
:100BB1002D09362E09592B093A230957200C852A6C
:100BC10008F24800000951E579B4FF03757906126E
:100BD100084CFC12084CFD12084CFE12084CFF7820
:100BE1006F020333790AA2D5201014301209B9100B
:100BF100020404B9080104A2D52013025001042003
:100C01000F68920FB578005034C0E07F2030101982
:100C11007F30A20F72137212500F120C3EC20FC21C
:100C210013C212C2157F30800F301203E9C0E012E7
:100C31000887301203D0E0F9D0E0B578CC30121734
:100C41007F30B9100C1208877F583011077F7880E8
:100C510003B90803120887300F057F2D0208877F2B
:100C6100202015F87F2B2013F322920F80CF7F00D5
:100C7100B407005005246FF8E6FF22286E756C6CEE
:100C81002900D20E12084C300EF8C20E787830D5F9
:100C91000108F60208F22D5043495812084C24036A
:100CA100B405004001E4900C9793120878743A124D
:0A0CB1000878D210757804020AC416
:1002BA00E9D2E7C933E833F892D5EDD2E7CD33EC8A
:0702CA0033FC5002B2D52203
:1002D100EC30E7100FBF000C0EBE00080DBD00048E
:1002E1000BEB6014A2D5EB13FCED92E7FD2274FF3A
:1002F100FCFDFEFF22E480F8A2D574FF13FC7D8093
:03030100E480EFA6
:10030400F920E72824F950037907E4F42402FB18C0
:10031400DBFDE624FB5014E9600DE4F618E604F670
:0F032400B40A08E4F6D9F57401F60A22C2D5220C
:10033300ED33EC3392D5FA602AB4FF33EDC2E77B99
:10034300FF60067A037958E4227A03796120D504A1
:100353007A03795C224E614E002B494E46002D49AB
:100363004E4600E47A08F608DAFC7B00740722E8BC
:10037300C0E0ECC0E0EDC0E0EEC0E0EFC0E0EA7545
:10038300F010A4CAABF075F04DA42BFBE435F0FCE0
:10039300EA2410FAEB34C5FBEC34D9FCEDC2E7FFD9
:1003A30075F056A4F42411C5F0F434C58FF0A42AD3
:1003B300E5F03BE43CF620E71412055ED0E0FFD005
:1003C300E0FED0E0FDD0E0FC12012F8014F4041213
:1003D300055ED0E0FFD0E0FED0E0FDD0E0FC1200EF
:1003E30026D0E0F8E6FAEDD2E7CD33EC332482FBF6
:1003F300E4C3CF33CFCE33CECD33CD33DBF37B0763
:1004030075F00A846004F6081B0AE5F0F6088FF01D
:10041300740AA4FFACF08EF0740AA42CFEACF05066
:10042300010C8DF0740AA42CFDE435F0F608DBDE34
:0304330074072229
:100436000202EFE86480F8E933E83360110460F003
:10044600ED33EC337009E8FCE9FDEAFEEBFF22042C
:1004560060DED3EB9FEA9EE99DE8C2E78CF0C2F727
:1004660095F0400CE8CCF8E9CDF9EACEFAEBCFFBF3
:100476001202BA85D0F05804700320D5B3E8047090
:10048600075002B2D50202F992D5EC0460F7E4CC2B
:10049600C0E0C398F8603B94186008400DD0E0FBBC
:1004A6000202D1E4FBFAC9FC8028E830E406E4C97C
:1004B600FBE4CAFCE830E305E4C9CACBFCE8540710
:1004C6006010F8C3E913F9EA13FAEB13FBEC13FC1B
:1004D600D8F130F52FC3E49CFCEF9BFFEE9AFEEDBE
:1004E60099FDD0E0FBEF4E4D4C701222DB03020269
:1004F600F6EC2CFCEF33FFEE33FEED33FDED30E78B
:10050600EB0202D1EF2BFFEE3AFEED39FDD0E0FB18
:1005160050130BBB00030202F9ED13FDEE13FEEFC1
:0805260013FFEC13FC0202D1EB
:10052E003F8000004120000042C80000447A0000D5
:10053E00461C400047C35000497424004B18968057
:10054E004CBEBC205A0E1BCA6753C21C749DC5AE4E
:10055E00FB60065407601C232312058CEB54386095
:10056E0009120578120587120026ECF8EDF9EEFA5D
:10057E00EFCB22EB12058780F1543803241C900533
:10058E002EFE93FC0EEE93FD0EEE930ECE93FF22F7
:10129D00021871E493A3F8E493A34003F68001F2DE
:1012AD0008DFF48029E493A3F85407240CC8C33352
:1012BD00C4540F4420C8834004F456800146F6DF21
:1012CD00E4800B01020408102040809019D4E47EC4
:1012DD00019360BCA3FF543F30E509541FFEE49316
:1012ED00A360010ECF54C025E060A840B8E493A3DD
:1012FD00FAE493A3F8E493A3C8C582C8CAC583CA08
:10130D00F0A3C8C582C8CAC583CADFE9DEE780BEBF
:0119EA0000FC
:10059E00BB010689828A83E0225002E722BBFE025B
:0905AE00E32289828A83E493228E
:1005B700BB010CE58229F582E5833AF583E02250F9
:1005C70006E92582F8E622BBFE06E92582F8E22243
:0D05D700E58229F582E5833AF583E493225D
:1005E400BB010689828A83F0225002F722BBFE01F6
:0205F400F322F0
:1005F600F8BB010DE58229F582E5833AF583E8F03B
:10060600225006E92582C8F622BBFE05E92582C8E6
:02061600F222CE
:10061800BC000BBE0029EF8DF084FFADF022E4CCC6
:10062800F875F008EF2FFFEE33FEEC33FCEE9DEC8F
:10063800984005FCEE9DFE0FD5F0E9E4CEFD22EDD5
:10064800F8F5F0EE8420D21CFEADF075F008EF2F1F
:10065800FFED33FD4007985006D5F0F222C398FD10
:050668000FD5F0EA22AD
:0E066D00C3E49FFFE49EFEE49DFDE49CFC229E
:10067B00FAE6FB0808E6F925F0F618E6CA3AF62280
:10068B00D083D082F8E4937012740193700DA3A3FE
:10069B0093F8740193F5828883E473740293686012
:0606AB00EFA3A3A380DF12
:1017DA00EFB40A07740D1217E5740A309811A89924
:1017EA00B8130CC2983098FDA899C298B811F6306F
:0717FA0099FDC299F5992247
:1006B100E3F5F009E208B5F06D606B80F3E3F5F066
:1006C10009E608B5F060605E80F387F009E608B5D9
:1006D100F054605280F487F009E208B5F0486046B2
:1006E10080F488828C8387F009E0A3B5F038603606
:1006F10080F488828C8387F009E493A3B5F02760A6
:100701002580F388828C83E3F5F009E0A3B5F01628
:10071100601480F388828C83E3F5F009E493A3B538
:10072100F004600280F20207DC808580E7808E8021
:10073100D2803C8015806C807E809B80B5808B80D0
:10074100A1804F8070803A0207E889828A83ECFA9F
:10075100E493F5F0A3C8C582C8CCC583CCE493A3C8
:10076100C8C582C8CCC583CCB5F070606E80E18904
:10077100828A83E493F5F0A3E208B5F05E605C80C1
:10078100F289828A83E0F5F0A3E608B5F04D604B6B
:1007910080F389828A83E0F5F0A3E208B5F03C603A
:1007A1003A80F389828A83E493F5F0A3E608B5F0F1
:1007B1002A602880F2805389828A83ECFAE493F5D7
:1007C100F0A3C8C582C8CCC583CCE0A3C8C582C884
:1007D100CCC583CCB5F004600280E27FFFB5F002A6
:1007E1000F2240027F012289828A83ECFAE0F5F030
:1007F100A3C8C582C8CCC583CCE0A3C8C582C8CC78
:10080100C583CCB5F0D560D380E389828A83ECFAC5
:10081100E0F5F0A3C8C582C8CCC583CCE493A3C8D6
:10082100C582C8CCC583CCB5F0B160AF80E288F099
:10083100ED2402B4040050A3F582EB2402B40400B9
:0B0841005099232345822390072A735F
:00000001FF
