:030000000206FBFA
:0C06FB00787FE4F6D8FD758129020742E3
:100A9400C0F9A4B0999282F880908883C6A1868E0A
:100AA4004079243019120278001008034621060EFA
:030B1700011919A8
:0A0BB400E4FF120BA9E4FF020BC7D7
:1008B400300030C200120B841209138F118E108D78
:1008C4000F8C0E1209131203638F14120913E4FB25
:1008D400FA79C87842120106120363EF75F0648452
:0408E40085F0132266
:1005F00020012AAC19EC12032FAB11AA10A90FA8E5
:100600000E1202AC500BE4FF120A2BE4F50BF50CB2
:10061000227FFF120A2B750B01750CF422200103B7
:100620000206FAE4FFFE7D207C42AB11AA10A90F5E
:10063000A80E1202AC500B7F33120A2B750B0075FB
:100640000C64E4FFFE7D207C42AB11AA10A90FA828
:100650000E1202AC600D400B7FCC120A2B750B0101
:10066000750C90E4FFFE7DA07C41AB11AA10A90F90
:10067000A80E1202AC50030206FAE4FFFE7D207CB5
:1006800042AB11AA10A90FA80E1202AC6002506A68
:10069000E4FFFE7DA07CC1AB11AA10A90FA80E1229
:1006A00000158F188E178D168C157F017E007D70BA
:1006B0007C41AB18AA17A916A815120106E4FBFA8B
:1006C00079C878421200151203638E0B8F0CAC0BA5
:1006D000AD0CE412032AE4FBFA79C8784212020F47
:1006E000E4FBFA79A0784012020FE4FBFA797F78F4
:0B06F00043120106120363120A2B22C2
:03000B0002078762
:10078700C0E0C0F0C083C082C0D075D000C000C038
:0D07970001C002C003C004C005C006C007B9
:1007A40005080509E50864027005F508120AD2E592
:1007B40009640A7005F50912083F050AE50A64642C
:0607C4007004F50AD200EA
:1007CA00D007D006D005D004D003D002D001D00083
:0B07DA00D0D0D082D083D0F0D0E0322D
:1007E5001200038F127E00EF6404700A050DE50DFB
:1007F50064037002F50DE50D64017035EF64084E74
:1008050070121519AF19EF3395E0C36480948050C9
:1008150003751932E512640970170519AF19EF331D
:1008250095E0FED3EF9432EE648094804003E4F5C6
:0A08350019E51264057002B20122F9
:10046900E50D706D900AA093FD7C00E4FF120BBEB0
:100479007DFF7C007F01120BBE7DFF7C007F021295
:100489000BBE7DFF7C007F03120BBEE51475F00ADD
:1004990084900A9493FD7C007F04120BBEE51475C9
:1004A900F00A84E5F0900AA493FD7C007F05120B05
:1004B900BEE51375F00A84900A9493FD7C007F06CB
:1004C900120BBEE51375F00A84E5F0900A94020553
:1004D900E6E50D640170727D8CFCFF120BBE7DFF99
:1004E9007C007F01120BBE7DFF7C007F02120BBED8
:1004F9007DFF7C007F03120BBE7DFF7C007F041211
:100509000BBE7DFF7C007F05120BBEE51975F00A55
:100519001203E4FF3395E0FE74942FF582740A3ECA
:10052900F583E493FD7C007F06120BBEE51975F097
:100539000A1203E4AFF0EF3395E0FE74942FF582CD
:10054900740A3EF583E40205E6E50D6402600302E0
:1005590005EF900A9E93FD7C00E4FF120BBE7DFF20
:100569007C007F01120BBE7DFF7C007F02120BBE57
:100579007DFF7C007F03120BBE7DFF7C007F041290
:100589000BBEAE0BAF0C7C007D6412040674A42F65
:10059900F582740A3EF583E493FD7C007F05120B16
:1005A900BEAE0BAF0C7C007D0A1204067C007D0AEE
:1005B90012040674942DF582740A3CF583E493FDC4
:1005C9007C007F06120BBEAE0BAF0C7C007D0A12BD
:1005D900040674942DF582740A3CF583E493FD7C3A
:0705E900007F07120BBE2288
:1008E800200108E50D70047F03801C20010AE50D36
:1008F800640170047F05800F20010AE50D64027011
:0B090800047F098002E4FF120BA9220B
:100A7300120BB4120B84120B66120B02C2AF1208D4
:100A8300E8D2AF1205F01204691208B41207E58028
:010A9300EB77
:10099000E4FF43B03F43C014C2B220C4027F05202D
:1009A000C2027F0943B03F43C014C2B320C4027FD8
:0609B0000420C2027F08D2
:0109B600221E
:10083F00851A1B1209908F1AAF1B7E00EF6404708C
:10084F0007E51A7003751C04EF64054E7007E51A6F
:10085F007003751C05E51B64087007E51A700375B6
:0F086F001C08E51B64097007E51A7003751C0966
:01087E002257
:05000300E4AF1CF51C38
:0100080022D5
:0D0B1A000822FFFFFFFFFFFFFFFF0121008A
:1009680053A01FEFFD7C006401700BF580E5A054D7
:100978001F44C0F5A022ED64024C700B7580FFE5A2
:08098800A0541F44E0F5A02279
:10093E00AB05AA04AE077F021209681F120968AF41
:10094E0006A8077401088002C333D8FC42807F02D8
:0A095E00120968EB528053A01F221B
:100AD20074222521F8E6FD7C00AF2112093E052192
:080AE200E52164087002F52112
:010AEA0022E9
:090BBE00AE0574222FF8A60622F0
:0F0B390053A01F7580FFE5A0541F4480F5A02234
:0B0BA900120B39EFF4F58053A01F225F
:0F0B480053A01FE4F580E5A0541F44A0F5A022A0
:090BC700120B488F8053A01F227D
:100A2B008F1D120B577F9012087F120B287F4012DD
:100A3B00087F120B28AF1D12087F120B28D202124F
:050A4B000AEB020B9D07
:0D0B84001209DE7FCC1209B77F440209B7C9
:100913001209DE7FCC1209B77FBE1209B7120A5043
:100923008F1D120A50EFFEE51DFFFDAC06E4120316
:0B0933002AE4FBFA7980783D020106FF
:100B0200438E805389F0758A20758CD1C28DD28C28
:050B1200D2A9D2AF22C0
:040B9100D2A07F056A
:080B950000AE071FEE70F9220B
:0F0B5700D2A1120B91C2A17F05120B95C2A02251
:0C0B9D00C2A1120B91D2A17F05020B95A2
:100AEB00C2A0A20292A17F05120B95120B91C2A07C
:070AFB00D2A17F05020B955B
:100B2800120B91A2A19202C2A07F05120B95A202FC
:010B3800229A
:02087F00AD07C3
:10088100E4FCECC39408748094805024C2A07F05DA
:10089100120B95ED30E704D2A18002C2A17F0512AF
:1008A1000B95D2A0ED25E0FD7F05120B950C80D2B2
:0208B100C2A0E3
:0108B3002222
:100A0500E4FCECC39408748094805017120B91EDAC
:100A150025E0FD30A103430501C2A07F05120B951A
:050A25000C80DFAF05AD
:010A2A0022A9
:040AB4007F057E003C
:100AB800EF1FAA0670011E4A600FE4FDEDC3940CF7
:090AC8007480948050EA0D80F363
:010AD1002202
:0209B700A9078E
:1009B900E4FBEBC39408748094805012C294E91349
:1009C9009294120AB4D294E9C313F90B80E47F0517
:0509D9007E00020AB8D7
:100A5000E4FBEBC39408748094805014C294ECC3FC
:100A600013FCD294309403430480120AB40B80E246
:020A7000AF04D1
:010A72002261
:1009DE00C202D2947F0C7E00120AB8C2947F507E5F
:1009EE0000120AB8D2947F0A7E00120AB8A294921C
:0609FE0002120AB4A2027D
:010A040022CF
:0E0B660000007F237E337DB6DDFEDEFCDFFA6D
:010B7400225E
:0E0B750000007F2E7E997DF5DDFEDEFCDFFAAE
:010B8300224F
:10000E000203CFE86480F8E933E83360110460F04E
:10001E00ED33EC337009E8FCE9FDEAFEEBFF220458
:10002E0060DED3EB9FEA9EE99DE8C2E78CF0C2F753
:10003E0095F0400CE8CCF8E9CDF9EACEFAEBCFFB1F
:10004E0012039A85D0F05804700320D5B3E80470DB
:10005E00075002B2D50203D992D5EC0460F7E4CC76
:10006E00C0E0C398F8603B94186008400DD0E0FBE8
:10007E000203B1E4FBFAC9FC8028E830E406E4C9C7
:10008E00FBE4CAFCE830E305E4C9CACBFCE854073C
:10009E006010F8C3E913F9EA13FAEB13FBEC13FC47
:1000AE00D8F130F52FC3E49CFCEF9BFFEE9AFEEDEA
:1000BE0099FDD0E0FBEF4E4D4C701222DB03020394
:1000CE00D6EC2CFCEF33FFEE33FEED33FDED30E7D7
:1000DE00EB0203B1EF2BFFEE3AFEED39FDD0E0FB64
:1000EE0050130BBB00030203D9ED13FDEE13FEEF0D
:0800FE0013FFEC13FC0203B137
:10010600EC4D6011E8497017ED33EC3304600DE4F3
:10011600FCFFFEFD22E933E8330470F80203CF1238
:10012600039A58046009E4CC248150062850090239
:1001360003D92840030203D6C0E0EB4A7044B980D5
:1001460006D0E0FB0203C5EF4E701CBD8008EBFF36
:10015600EAFEE9FD80EBE98DF0A4FEE5F00201EF91
:10016600E9CDF9EAFEEBFFEF89F0A4FCE5F0CE89D4
:10017600F0A42EFFE435F0CD89F0A42DFEE435F091
:100186008067EF4E7005BD80D780C3EF8BF0A4ACBF
:10019600F0EE8BF0A42CFCE435F0F8EF8AF0A42CFA
:1001A600E5F038FCE433CB8DF0A42CFCE5F03BF80D
:1001B600EE8AF0A42CFCE5F038F8E433CF89F0A4FD
:1001C6002CFCE5F038CF3400CE89F0A42FFFE5F003
:1001D6003EFEE433C98DF0A42EFEE5F039CD8AF05B
:1001E600A42FFFE5F03EFEE43DFD33D0E0FB5007D3
:1001F6000BBB000F0203D9EC2CFCEF33FFEE33FEF2
:06020600ED33FD0203B11F
:10020C000203D9EC5D046005E8590470030203CFC6
:10021C0012039A580460F6EC4860F2EC7004FDFE90
:10022C00FF22C860DB2481C85009C39860025006C5
:10023C000203D69850CAF582E9294B4A7005AB8265
:10024C000203C575F0007C1A7880C3EF9BEE9AED23
:10025C0099400DC3EF9BFFEE9AFEED99FDE842F03D
:10026C00DC23ACF0D0E0FFD0E0FED0E0FDAB822090
:10027C00E7101BEB60BAEC2CFCEF33FFEE33FEED1A
:10028C0033FD0203B1E803F830E705C0F075F00068
:10029C00EF2FFFEE33FEED33FD40B830E7C280AAFE
:1002AC0074F8CC6480CCC86480C8F58204604FC3F9
:1002BC00EB9FF5F0EA9E42F0E99D42F0E89C45F098
:1002CC00603C501DE5825FFFE582D313CB5BCBF422
:1002DC002B5582FB50280ABA002409B9002008804B
:1002EC001DE5825BFBE582D313CF5FCFF4C3132FE5
:1002FC005582FF50090EBE00050DBD00010CC3EB6D
:10030C009FF5F0EA9E42F0E99D42F0E89C45F060D2
:09031C0007CC4820E701B3EC22F4
:1003250075F020800E75F010800575F0087D007E53
:10033500007F003392D530D50312045BEC334010B7
:10034500EF33FFEE33FEED33FDEC33FCD5F0ED225C
:0E035500E5F0247EA2D513CC92E7CDCEFF2298
:10036300EDD2E7CD33EC3392D524814006E4FFFE92
:10037300FDFC22FCE4CFCECDCC24E0501174FF80F1
:10038300EDC3CC13CCCD13CDCE13CECF13CF04708E
:07039300F030D5DE02045B2F
:10039A00E9D2E7C933E833F892D5EDD2E7CD33ECA9
:0703AA0033FC5002B2D52222
:1003B100EC30E7100FBF000C0EBE00080DBD0004AD
:1003C1000BEB6014A2D5EB13FCED92E7FD2274FF59
:1003D100FCFDFEFF22E480F8A2D574FF13FC7D80B2
:0303E100E480EFC6
:10070700020A73E493A3F8E493A34003F68001F28B
:1007170008DFF48029E493A3F85407240CC8C333F3
:10072700C4540F4420C8834004F456800146F6DFC2
:10073700E4800B0102040810204080900B17E47E30
:10074700019360BCA3FF543F30E509541FFEE493B7
:10075700A360010ECF54C025E060A840B8E493A37E
:10076700FAE493A3F8E493A3C8C582C8CAC583CAA9
:10077700F0A3C8C582C8CAC583CADFE9DEE780BE61
:010B270000CD
:1003E400C2D530F707B2D563F0FF05F030E70CB2A1
:1003F400D5F4048463F0FF05F080018430D502F461
:020404000422D0
:10040600BC000BBE0029EF8DF084FFADF022E4CCDA
:10041600F875F008EF2FFFEE33FEEC33FCEE9DECA3
:10042600984005FCEE9DFE0FD5F0E9E4CEFD22EDE9
:10043600F8F5F0EE8420D21CFEADF075F008EF2F33
:10044600FFED33FD4007985006D5F0F222C398FD24
:050456000FD5F0EA22C1
:0E045B00C3E49FFFE49EFEE49DFDE49CFC22B2
:00000001FF
