:100EDC00C0F9A4B0999282F880908880C6C0868EA2
:100EEC00BF7F407924301912027800100803462184
:020EFC00060EE0
:100B53001210601210DF900EEBE493FDE4FF12100D
:100B6300D9D3E50B940FE50A9427401DAE0AAF0BCA
:100B73007C277D101209DD74DC2FF582740E3EF59F
:100B830083E493FD7F031210D9D3E50B94E7E50AC1
:100B930094034024AE0AAF0B7C037DE81209DD7C8D
:100BA300007D0A1209DD74DC2DF582740E3CF58399
:100BB300E493FD7F041210D9D3E50B9463E50A9403
:100BC300004024AE0AAF0B7C007D641209DD7C007B
:100BD3007D0A1209DD74DC2DF582740E3CF583E485
:100BE30093FD7F051210D9D3E50B9409E50A940010
:100BF3004024AE0AAF0B7C007D0A1209DD7C007D28
:100C03000A1209DD74DC2DF582740E3CF583E4933E
:100C1300FD7F061210D9AE0AAF0B7C007D0A1209C4
:100C2300DD74DC2DF582740E3CF583E493FD7F07C0
:060C33001210D9020B595A
:0C105400E5A0541F4480F5A07580FF2229
:0C106000E5A0541F44A0F5A05380BF225F
:0D102000121060438040120FE45380BF2285
:0C106C00E5A0541F44A0F5A05380EF2223
:0D102D0012106C438010120FE45380EF226C
:100E2400EFFD7C006401700CE5A0541F44C0F5A0E4
:100E3400E4F58022ED64024C700BE5A0541F44E0FD
:060E4400F5A07580FF22FD
:100EFE00AE05AB077F01120E24AF03A807740108DD
:100F0E008002C333D8FC42807F02120E24EE528040
:010F1E0022B0
:0610D900120EFE0210AE33
:100A400043B03F43C014C2B020C40C1210B730C42E
:100A5000FD1210B7751E0120C20C1210B730C4FD74
:100A60001210B7751E0220B50C1210B730C4FD125B
:100A700010B7751E0320B40C1210B730C4FD12104D
:100A8000B7751E0443B03F43C014C2B120C40C125A
:100A900010B730C4FD1210B7751E0520C20C12101D
:100AA000B730C4FD1210B7751E0620B50C1210B772
:100AB00030C4FD1210B7751E0720B40C1210B730E9
:100AC000C4FD1210B7751E0843B03F43C014C2B234
:100AD00020C40C1210B730C4FD1210B7751E0920C7
:100AE000C20C1210B730C4FD1210B7751E0A20B523
:100AF0000C1210B730C4FD1210B7751E0B20B40CC9
:100B00001210B730C4FD1210B7751E0C43B03F432E
:100B1000C014C2B320C40C1210B730C4FD1210B7F9
:100B2000751E0D20C20C1210B730C4FD1210B7751F
:100B30001E0E20B50C1210B730C4FD1210B7751E72
:100B40000F20B40C1210B730C4FD1210B7751E1070
:030B5000AF1E22B3
:09109C00D288C289D2A8D2AF2289
:0910A500D28AC28BD2AAD2AF227A
:100F5800538E7F5389F0438906758AFF758CFFC2CB
:0A0F68008DD28CD2A9D2AFD2B922EB
:100F7200538EBF53890F758B18758DFCC28FD28E1D
:070F8200D2ABD2AFD2BB22BB
:100F1F00759850538EBF538EFE53890F758BE8759E
:0D0F2F008DFFC2ABD28EC298D2ACD2AF22E1
:0810C9008F993099FDC29922B4
:060E70008B168A17891899
:100E7600E4FEAB16AA17A9188E8275830012098E96
:0E0E8600FFFD3395E04D60061210C90E80E4AA
:010E9400223B
:0810D1008F993099FDC29922AC
:100FC50080828486888A8C8E81838587898B8D8FA4
:060C39008B0E8A0F8910EA
:100C3F007D7F7F8E120FA0E4F511C3E51194077429
:100C4F00809480501EE511900FC593FFAB0EAA0F35
:100C5F00A91085118275830012098EFD120FA00550
:0A0C6F001180D77D807F8E020FA058
:060CEB008B128A1389142C
:100CF100E4F515C3E515940774809480501EE5153D
:100D0100900FCD93FF120C79AB12AA13A91485157C
:0C0D110082758300EF1209BB051580D726
:010D1D0022B3
:0D103A00120DFD7FCC120DD67F44020DD6A5
:100DAB00120DFD7FCC120DD67FBE120DD6120EB9D1
:100DBB008F1F120EB9EFFEE51FFFFDAC06EC1209FB
:0B0DCB000BE4FBFA7980783D02080081
:100D1E001210117F90120CB6120FB47F03120CB684
:100D2E00120FB41210841210117F91120CB6120F02
:100D3E00B4120E4A8F21D201120F89121084AF21E4
:010D4E002282
:100E95008F198C1A8D1B1210117FA0120CB6120F10
:100EA500B4AF19120CB6120FB4AF1B120CB6120F59
:040EB500B4021084EF
:020D4F008F1CF7
:100D51001210117FA0120CB6120FB4AF1C120CB6F8
:100D6100120FB41210117FA1120CB6120FB4120E91
:0D0D71004A8F1DD201120F89121084AF1D90
:010D7E002252
:0610DF00120F58020F720F
:03000B0002104799
:0D104700C0E0050DE50D7002050CD0E03293
:03001B00020D7F54
:100D7F00C0E0C0D00509E50970020508C394E8E595
:100D8F000894034012850C0A850D0B750800750930
:0C0D9F0000750C00750D00D0D0D0E032C3
:0810AE007F0C7EA9DEFEDFFCD1
:0110B6002217
:0810B7007FD87E25DEFEDFFC80
:0110BF00220E
:0810C0007F3B7E5ADEFEDFFCDF
:0110C8002205
:0E0FD50000007F057E347DC3DDFEDEFCDFFA0A
:010FE30022EB
:0E0FE40000007F167E037DE3DDFEDEFCDFFAFB
:010FF20022DC
:0E0FF30000007F2B7E067DCBDDFEDEFCDFFAEC
:0110010022CC
:100F3C00E4FEEEC3940874809480500FC297EF13B4
:0B0F4C0092A3EFC313FFD2970E80E7C3
:010F57002277
:100FA000C29300C29700D29300120F3CAF05120FFC
:040FB0003CC293228A
:100C7900E4FDC29300C29700D29300120F3CE4FF37
:100C8900EFC39408748094805011C297EDC313FD8B
:100C990030A303430580D2970F80E5C29300C29722
:0C0CA90000D29700C2A300D2A300AF0548
:010CB500221C
:041002007F327E00BB
:0B100600EF1FAC0670011E4C70F622BC
:020DD600AD0767
:100DD800E4FBEBC39408748094805012C294ED1322
:100DE8009294121002D294EDC313FD0B80E47F326B
:050DF8007E0002100660
:100EB900E4FBEBC39408748094805014C294EDC38E
:100EC90013FDD2943094034305801210020B80E283
:020ED900AF0563
:010EDB0022F4
:100DFD00C200D2947F787E00121006C2947F207EAE
:100E0D0003121006D2947F647E00121006A29492F3
:060E1D0000121002A20009
:010E230022AC
:04107800D2A07F057E
:08107C0000AE071FEE70F9221F
:0F101100D2A1121078C2A17F0512107CC2A022BA
:0C108400C2A1121078D2A17F0502107CDE
:100F8900C2A0A20192A17F0512107C121078C2A002
:070F9900D2A17F0502107CCC
:100FB400121078A2A19202C2A07F0512107CA20294
:010FC400220A
:020CB600AD0788
:100CB800E4FCECC39408748094805024C2A07F059F
:100CC80012107CED30E704D2A18002C2A17F051288
:100CD800107CD2A0ED25E0FD7F0512107C0C80D29F
:020CE800C2A0A8
:010CEA0022E7
:100E4A00E4FCECC39408748094805017121078ED77
:100E5A0025E0FD30A103430501C2A07F0512107CE5
:050E6A000C80DFAF0564
:010E6F002260
:10080000EC4D6011E8497017ED33EC3304600DE4F2
:10081000FCFFFEFD22E933E8330470F80209791287
:10082000094458046009E4CC248150062850090288
:100830000983284003020980C0E0EB4A7044B98074
:1008400006D0E0FB02096FEF4E701CBD8008EBFF85
:10085000EAFEE9FD80EBE98DF0A4FEE5F00208E98F
:10086000E9CDF9EAFEEBFFEF89F0A4FCE5F0CE89D3
:10087000F0A42EFFE435F0CD89F0A42DFEE435F090
:100880008067EF4E7005BD80D780C3EF8BF0A4ACBE
:10089000F0EE8BF0A42CFCE435F0F8EF8AF0A42CF9
:1008A000E5F038FCE433CB8DF0A42CFCE5F03BF80C
:1008B000EE8AF0A42CFCE5F038F8E433CF89F0A4FC
:1008C0002CFCE5F038CF3400CE89F0A42FFFE5F002
:1008D0003EFEE433C98DF0A42EFEE5F039CD8AF05A
:1008E000A42FFFE5F03EFEE43DFD33D0E0FB5007D2
:1008F0000BBB000F020983EC2CFCEF33FFEE33FE41
:06090000ED33FD02095B6E
:1009060075F020800E75F010800575F0087D007E6C
:10091600007F003392D530D503120A32EC334010F3
:10092600EF33FFEE33FEED33FDEC33FCD5F0ED2275
:0E093600E5F0247EA2D513CC92E7CDCEFF22B1
:10094400E9D2E7C933E833F892D5EDD2E7CD33ECF9
:0709540033FC5002B2D52272
:10095B00EC30E7100FBF000C0EBE00080DBD0004FD
:10096B000BEB6014A2D5EB13FCED92E7FD2274FFA9
:10097B00FCFDFEFF22E480F8A2D574FF13FC7D8002
:03098B00E480EF16
:030000000210905B
:0C109000787FE4F6D8FD758121020B5337
:10098E00BB010CE58229F582E5833AF583E022501E
:10099E0006E92582F8E622BBFE06E92582F8E22268
:0D09AE00E58229F582E5833AF583E4932282
:1009BB00F8BB010DE58229F582E5833AF583E8F072
:1009CB00225006E92582C8F622BBFE05E92582C81E
:0209DB00F22206
:1009DD00BC000BBE0029EF8DF084FFADF022E4CCFE
:1009ED00F875F008EF2FFFEE33FEEC33FCEE9DECC7
:1009FD00984005FCEE9DFE0FD5F0E9E4CEFD22ED0D
:100A0D00F8F5F0EE8420D21CFEADF075F008EF2F56
:100A1D00FFED33FD4007985006D5F0F222C398FD47
:050A2D000FD5F0EA22E4
:0E0A3200C3E49FFFE49EFEE49DFDE49CFC22D5
:00000001FF
