:03000000020E9E4F
:0C0E9E00787FE4F6D8FD758147020EE570
:10129000C0F9A4B0999282F880908883C6A1868E06
:1012A0004079243019120278001008034621060EF6
:09137C0001435A01442801420614
:0F13EC001213FB12140A1213671213B80213DC48
:100A1100200F03020AAEC20F120F718E398F3AAC4A
:100A210039AD3AE4120382E4FBFA792078411202EB
:100A310067C004C005C006C007AC42E4120387A822
:100A410004A905AA06AB07D007D006D005D0041229
:100A51000304501120100E12140AD28453A01FD285
:100A610010D2008048AC39AD3AE4120382E4FBFABB
:100A710079207841120267C004C005C006C007ACE6
:100A810042E4120387A804A905AA06AB07D007D040
:100A910006D005D004120304401330101012140ABA
:100AA100C28453A01FC210C2000537D2052009031A
:100AB100020B92C209D21412106FAC07E412038721
:100AC100E4FBFA797F7843120267E4FBFA79A078B4
:100AD1004012015E8F368E358D348C33E4FBFA790A
:100AE100A07840120267E4FBFA79C8784212015EED
:100AF1001203BB8F3EE53ED395444004D2118002E0
:100B0100C211E53ED3954450057F33020B8FE53E7C
:100B1100D39544406CE53E9450748094805062C3F8
:100B210074509544FDE49400FC120382A804A905C5
:100B3100AA06AB07E4FFFE7D807C40120267C00479
:100B4100C005C006C007C3E53E9544FDE49400FC22
:100B5100120382D003D002D001D00012015EE4FB67
:100B6100FA7980783F12006DE4FBFA79A07840129F
:100B71000267E4FBFA797F784312015E1203BB80BE
:100B81000DC3E53E94507480948040057FFF12129E
:100B91006E30050FC205E537FD7C00E4FF1211DA66
:100BA100121462E54375F064A4FFD3E53C9FE53B75
:0A0BB10095F04003D20A22C20A2286
:100DF600AF387E00EF7006D20CC20D800AEF640198
:100E06004E7008C20CD20DC20E800CEF64024E70FA
:100E16000AC20CC20DD20EC201800EEF64034E70E0
:100E260028AF3DFEEF7008D201C202C203801AEF5E
:100E360064014E7008C201D202C203800CEF640244
:100E46004E7006C201C202D2031213FB300C04C25A
:100E5600808002D280300D04C2818002D281300EA1
:100E660004C2828002D282E54375F064A4FFD3E512
:100E76003C9FE53B95F04004C2838002D28330114B
:100E860004C2848002D284300004C2858002D285E6
:080E9600D286D28753A01F226F
:100CF300200603020DF5C2061214598F3F7E00EF42
:100D0300640470070538533803F53DEF64054E70EE
:100D130011E5386403700B053DE53D75F0038485EB
:100D2300F03DE53F6406705AAF38FEEF6403704A46
:100D3300AD3DFCED700674052543F543ED64014CB0
:100D43007006740A2544F544ED64024C70020542B2
:100D5300D3E543947874809480400375430AD3E5C4
:100D630044943C74809480400375440AD3E54294D0
:100D73000C748094804003754201EF64024E70024C
:100D8300B207E53F6407705B200458AF38FEEF6499
:100D930003704AAD3DFCED700674FB2543F543ED4E
:100DA30064014C700674F62544F544ED64024C70FE
:100DB300021542C3E543940A74809480500375433B
:100DC30078C3E544940A74809480500375443CC30B
:100DD300E542940174809480500375420CEF4E7089
:100DE30002B208E51164077009300406F511F537FE
:030DF300D2052204
:1005FD00E538600302076690129F93FD7C00E4FFCF
:10060D001214507DFF7C007F01121450AE3BAF3CA5
:10061D00E4FCFD7B9F7A867901F8C3120519501B06
:10062D00AE3BAF3CE4FCFD0BF8120FB574902FF50B
:10063D008274123EF583E493FD80027DFF7C007F82
:10064D0002121450D3E53C940FE53B94274021AEA4
:10065D003BAF3C7C277D101204B67C007D0A120452
:10066D00B674902DF58274123CF583E493FD8002EF
:10067D007DFF7C007F03121450D3E53C94E7E53BEE
:10068D0094034021AE3BAF3C7C037DE81204B67C65
:10069D00007D0A1204B674902DF58274123CF58318
:1006AD00E493FD80027DFF7C007F04121450D3E59E
:1006BD003C9463E53B94004021AE3BAF3C7C007D18
:1006CD00641204B67C007D0A1204B674902DF58276
:1006DD0074123CF583E493FD80027DFF7C007F0561
:1006ED00121450200837D3E53C9409E53B940040A3
:1006FD0021AE3BAF3C7C007D0A1204B67C007D0A26
:10070D001204B674902DF58274123CF583E493FDBA
:10071D0080027DFF7C007F061214508035D3E53CAE
:10072D009409E53B94004021AE3BAF3C7C007D0A33
:10073D001204B67C007D0A1204B674A02DF58274E5
:10074D00123CF583E493FD80027DFF7C007F061251
:10075D001450AE3BAF3C0208A5E5386401704B7DEB
:10076D0089FCFF1214507DFF7C007F011214507D17
:10077D00FF7C007F021214507DFF7C007F0312145A
:10078D00507DFF7C007F041214507DFF7C007F059F
:10079D00121450E53E75F00A8490129093FD7C0082
:1007AD007F06121450E53E020943E53864026003EA
:1007BD000208BA90129A93FD7C00E4FF1214507D4A
:1007CD00FF7C007F011214507DFF7C007F0212140C
:1007DD00507DFF7C007F031214507DFF7C007F0451
:1007ED00121450200769D3E53A9463E5399400401B
:1007FD001AAE39AF3A7C007D641204B674902FF5B1
:10080D008274123EF583E493FD80027DFF7C007FB0
:10081D0005121450D3E53A9409E53994004021AE00
:10082D0039AF3A7C007D0A1204B67C007D0A1204B1
:10083D00B674902DF58274123CF583E493FD80021D
:10084D007DFF7C007F06121450AE39AF3A8049AE61
:10085D0039AF3A7C007D641204B674A02FF5827412
:10086D00123EF583E493FD7C007F05121450AE39E2
:10087D00AF3A7C007D0A1204B67C007D0A1204B6E4
:10088D0074902DF58274123CF583E493FD7C007F0A
:10089D0006121450AE39AF3A7C007D0A1204B674BC
:1008AD00902DF58274123CF583E4020A07E5386455
:1008BD00036003020A10E53D600302094F7D8CFCC5
:1008CD00FF121450901291E493FD7C007F011214DD
:1008DD00507DFF7C007F021214507DFF7C007F0352
:1008ED001214507DFF7C007F04121450D3E5439405
:1008FD006374809480400DE54375F064849012908C
:10090D0093FD80027DFF7C007F05121450D3E543DB
:10091D009409748094804013E54375F00A8475F052
:10092D000A84E5F09012A093FD80027DFF7C007F8C
:10093D0006121450E54375F00A84E5F0901290020A
:10094D000A07E53D640170577D8CFCFF1214509031
:10095D001292E493FD7C007F011214507DFF7C0008
:10096D007F021214507DFF7C007F031214507DFF17
:10097D007C007F041214507DFF7C007F0512145003
:10098D00E54475F00A8490129093FD7C007F061269
:10099D001450E54475F00A84E5F0901290805BE503
:1009AD003D6402705E7D8CFCFF121450901293E436
:1009BD0093FD7C007F011214507DFF7C007F02129D
:1009CD0014507DFF7C007F031214507DFF7C007F4F
:1009DD00041214507DFF7C007F05121450E5427502
:1009ED00F00A849012A093FD7C007F06121450E54E
:1009FD004275F00A84E5F090129093FD7C007F071C
:040A0D00121450224D
:101352001213ECC2AF120DF6D2AF120A111205FD32
:05136200120CF380EE07
:03000B000200559B
:0D005500C0E00541E54170020540D0E032F9
:03006300020BBBD2
:100BBB00C0E0C0F0C083C082C0D075D000C000C000
:0D0BCB0001C002C003C004C005C006C00781
:100BD8000523E52364647004F523D2060524E5247F
:100BE80064147005F5241213900526E52670020595
:100BF80025B41017E525B42712752500752600853C
:100C0800403B85413C7540007541000528E528704A
:100C1800020527B4D00DE527B40708752700752805
:100C280000D20F052AE52A70020529B4E80DE52946
:100C3800B40308752900752A00D20930121B052C47
:100C4800E52C7002052BC39410E52B9427401275F0
:100C58002B00752C00D2048008752B00752C00C25F
:100C68000430011A052EE52E7002052DB4E817E5AB
:100C78002DB40312752D00752E00B20C8008752D49
:100C880000752E00C20C30021A0530E530700205DE
:100C98002FB4E817E52FB40312752F00753000B292
:100CA8000D8008752F00753000C20D30031A05320B
:100CB800E53270020531B4E817E531B40312753135
:100CC80000753200B20E8008753100753200C20E10
:100CD800D007D006D005D004D003D002D001D00070
:0B0CE800D0D0D082D083D0F0D0E0321A
:0A1385000809FFFFFFFFFFFFFFFF55
:0F13FB0053A01F7580FFE5A0541F4480F5A0226A
:0F140A0053A01FE4F580E5A0541F44A0F5A022D5
:1011640053A01FEFFD7C006401700BF580E5A054D3
:101174001F44C0F5A022ED64024C700B7580FFE59E
:08118400A0541F44E0F5A02275
:10113A00AB05AA04AE077F021211641F121164AF35
:10114A0006A8077401088002C333D8FC42807F02D4
:0A115A00121164EB528053A01F2213
:1013900074092508F8E6FD7C00AF0812113A05082B
:0313A000530807E8
:0113A3002227
:09145000AE0574092FF8A606226E
:10000E0043B00FE51214602D04703B20B00B751336
:10001E0007751201751107D21220B10675130675F8
:10002E00120120B20675130575120120B31875134F
:10003E00047512012230B00E30B10B30B20830B35D
:07004E0005E4F512C21222C5
:0814590012000EAF13E4F513BD
:011461002268
:0D1437001211B37FCC12118C7F4402118C76
:10110F001211B37FCC12118C7FBE12118C12124BA5
:10111F008F4712124BEFFEE547FFFDAC06E41203BB
:0B112F0082E4FBFA7980783D02015E4B
:100F2A008B148A1589167D7F7F8E1213A4AB14AA9F
:100F3A0015A91612043CFD7F801213A4AB14AA153E
:100F4A00A916900001120455FD7F821213A4AB1456
:100F5A00AA15A916900002120455FD7F841213A443
:070F6A007D807F8E0213A4BD
:101036008B178A1889197F81120FF9AB17AA18A97D
:1010460019EF1204827F83120FF9AB17AA18A91998
:10105600900001EF1204947F85120FF9AB17AA18BE
:09106600A919900002EF020494A4
:10136700438E80438906758AF4758CFFC28DD28CB3
:05137700D2A9D2AF2253
:1013B800438E0475D75075D6FB438E1043AF04D2C5
:0213C800AF2252
:10106F001214287F901210A71213CA2014047F4164
:10107F0080027F431210A71213CA121444121428AD
:10108F007F911210A71213CA1212008F1D7F011227
:07109F00133A121444AF1DC7
:0110A6002227
:10126E008F1D1214287F901210A71213CA7F4012DE
:10127E0010A71213CAAF1D1210A77F0112133A0244
:02128E00144406
:1011DA008F1D8C1E8D1F1214287FA01210A71213A8
:1011EA00CAAF1D1210A71213CAAF1F1210A77F0190
:0611FA0012133A02144436
:0210DC008F453E
:1010DE001214287FA01210A71213CAAF451210A720
:1010EE001213CA1214441214287FA11210A712133D
:1010FE00CA1212008F467F0112133A121444AF46E1
:01110E0022BE
:06146B0000007F21DFFEFE
:011471002258
:081462007F3B7E5ADEFEDFFC39
:01146A00225F
:0E14190000007F237E337DB6DDFEDEFCDFFAB1
:0114270022A2
:1013DC00538EBF53890FE4F58BF58DC28FC28E22CD
:1012CE00E4F51FC3E51F940874809480500ED290ED
:0C12DE0012146BC29012146B051F80E705
:0112EA0022E1
:100F71001212CED28E208F032091FAC28E208F22A0
:100F8100AF8DEFFEAD8BEDFFAC06E41203827B96D5
:100F91007A43798B783C12015E1203BB8E1D8F1E42
:100FA1008008C28F751D03751EE7E4F58DF58BAEC4
:030FB1001DAF1E53
:010FB400221A
:10132100759850438E01438E0475D78F75D6FD4352
:091331008E10C298D2ACD2AF229A
:080003008F993099FDC299228A
:101226008B1A8A1B891CAB1AAA1BA91C12043C60C8
:1012360013051CE51C7002051B14F912043CFF1271
:05124600000380E2221C
:1012EB00E4FEEEC3940874809480500FC297EF1302
:0B12FB0092A3EFC313FFD2970E80E711
:0113060022C4
:1013A400C29300C29700D293001212EBAF0512123F
:0413B400EBC29322D3
:100FF900E4FDC29300C29700D293001212EBE4FF02
:10100900EFC39408748094805011C297EDC313FD07
:1010190030A303430580D2970F80E5C29300C2979E
:0C10290000D29700C2A300D2A300AF05C4
:011035002298
:04130700D2A07F05EC
:10130B00000000000000000000000000000000AE24
:06131B00071FEE70EB223B
:0F142800D2A1121307C2A17F0512130BC2A0227B
:0C144400C2A1121307D2A17F0502130BF6
:0210A700AD0793
:1010A900E4FCECC39408748094805024C2A07F05AA
:1010B90012130BED30E704D2A18002C2A17F051201
:1010C900130BD2A0ED25E0FD7F0512130B0C80D286
:0210D900C2A0B3
:0110DB0022F2
:10120000E4FCECC39408748094805017121307ED2B
:1012100025E0FD30A103430501C2A07F0512130B99
:051220000C80DFAF05AA
:0112250022A6
:1013CA00121307A2A1E433FDC2A07F0512130BAFCB
:0113DA00050D
:0113DB0022EF
:10133A00C2A0EF24FF92A17F0512130B121307C25A
:08134A00A0D2A17F0502130BE4
:0412B0007F057E0038
:1012B400EF1FAA0670011E4A600FE4FDEDC3940CF3
:0912C4007480948050EA0D80F35F
:0112CD0022FE
:02118C00A907B1
:10118E00E4FBEBC39408748094805012C294E9136C
:10119E0092941212B0D294E9C313F90B80E47F0536
:0511AE007E000212B4F6
:10124B00E4FBEBC39408748094805014C294ECC3F9
:10125B0013FCD2943094034304801212B00B80E23F
:02126B00AF04CE
:01126D00225E
:1011B300C213D2947F0C7E001212B4C2947F507E6D
:1011C300001212B4D2947F0A7E001212B4A2949237
:0611D300131212B0A2137A
:0111D90022F3
:10006600020427E86480F8E933E83360110460F09D
:10007600ED33EC337009E8FCE9FDEAFEEBFF220400
:1000860060DED3EB9FEA9EE99DE8C2E78CF0C2F7FB
:1000960095F0400CE8CCF8E9CDF9EACEFAEBCFFBC7
:1000A6001203F285D0F05804700320D5B3E804702B
:1000B600075002B2D502043192D5EC0460F7E4CCC5
:1000C600C0E0C398F8603B94186008400DD0E0FB90
:1000D600020409E4FBFAC9FC8028E830E406E4C916
:1000E600FBE4CAFCE830E305E4C9CACBFCE85407E4
:1000F6006010F8C3E913F9EA13FAEB13FBEC13FCEF
:10010600D8F130F52FC3E49CFCEF9BFFEE9AFEED91
:1001160099FDD0E0FBEF4E4D4C701222DB0302043A
:100126002EEC2CFCEF33FFEE33FEED33FDED30E726
:10013600EB020409EF2BFFEE3AFEED39FDD0E0FBB2
:1001460050130BBB0003020431ED13FDEE13FEEF5B
:0801560013FFEC13FC02040985
:10015E00EC4D6011E8497017ED33EC3304600DE49B
:10016E00FCFFFEFD22E933E8330470F80204271287
:10017E0003F258046009E4CC248150062850090289
:10018E00043128400302042EC0E0EB4A7044B980CB
:10019E0006D0E0FB02041DEF4E701CBD8008EBFF85
:1001AE00EAFEE9FD80EBE98DF0A4FEE5F0020247E0
:1001BE00E9CDF9EAFEEBFFEF89F0A4FCE5F0CE897C
:1001CE00F0A42EFFE435F0CD89F0A42DFEE435F039
:1001DE008067EF4E7005BD80D780C3EF8BF0A4AC67
:1001EE00F0EE8BF0A42CFCE435F0F8EF8AF0A42CA2
:1001FE00E5F038FCE433CB8DF0A42CFCE5F03BF8B5
:10020E00EE8AF0A42CFCE5F038F8E433CF89F0A4A4
:10021E002CFCE5F038CF3400CE89F0A42FFFE5F0AA
:10022E003EFEE433C98DF0A42EFEE5F039CD8AF002
:10023E00A42FFFE5F03EFEE43DFD33D0E0FB50077A
:10024E000BBB000F020431EC2CFCEF33FFEE33FE40
:06025E00ED33FD0204096E
:10026400020431EC5D046005E859047003020427BC
:100274001203F2580460F6EC4860F2EC7004FDFEE0
:10028400FF22C860DB2481C85009C398600250066D
:1002940002042E9850CAF582E9294B4A7005AB82B4
:1002A40002041D75F0007C1A7880C3EF9BEE9AED72
:1002B40099400DC3EF9BFFEE9AFEED99FDE842F0E5
:1002C400DC23ACF0D0E0FFD0E0FED0E0FDAB822038
:1002D400E7101BEB60BAEC2CFCEF33FFEE33FEEDC2
:1002E40033FD020409E803F830E705C0F075F000B7
:1002F400EF2FFFEE33FEED33FD40B830E7C280AAA6
:1003040074F8CC6480CCC86480C8F58204604FC3A0
:10031400EB9FF5F0EA9E42F0E99D42F0E89C45F03F
:10032400603C501DE5825FFFE582D313CB5BCBF4C9
:100334002B5582FB50280ABA002409B900200880F2
:100344001DE5825BFBE582D313CF5FCFF4C3132F8C
:100354005582FF50090EBE00050DBD00010CC3EB14
:100364009FF5F0EA9E42F0E99D42F0E89C45F0607A
:0903740007CC4820E701B3EC229C
:10037D0075F020800E75F010800575F0087D007EFB
:10038D00007F003392D530D50312050BEC334010AE
:10039D00EF33FFEE33FEED33FDEC33FCD5F0ED2204
:0E03AD00E5F0247EA2D513CC92E7CDCEFF2240
:1003BB00EDD2E7CD33EC3392D524814006E4FFFE3A
:1003CB00FDFC22FCE4CFCECDCC24E0501174FF8099
:1003DB00EDC3CC13CCCD13CDCE13CECF13CF047036
:0703EB00F030D5DE02050B26
:1003F200E9D2E7C933E833F892D5EDD2E7CD33EC51
:0704020033FC5002B2D522C9
:10040900EC30E7100FBF000C0EBE00080DBD000454
:100419000BEB6014A2D5EB13FCED92E7FD2274FF00
:10042900FCFDFEFF22E480F8A2D574FF13FC7D8059
:03043900E480EF6D
:100EAA00021352E493A3F8E493A34003F68001F2F9
:100EBA0008DFF48029E493A3F85407240CC8C33349
:100ECA00C4540F4420C8834004F456800146F6DF18
:100EDA00E4800B010204081020408090137CE47E19
:100EEA00019360BCA3FF543F30E509541FFEE4930D
:100EFA00A360010ECF54C025E060A840B8E493A3D4
:100F0A00FAE493A3F8E493A3C8C582C8CAC583CAFE
:100F1A00F0A3C8C582C8CAC583CADFE9DEE780BEB6
:01138F00005D
:10043C00BB010689828A83E0225002E722BBFE02BE
:09044C00E32289828A83E49322F1
:10045500BB010CE58229F582E5833AF583E022505C
:1004650006E92582F8E622BBFE06E92582F8E222A6
:0D047500E58229F582E5833AF583E49322C0
:10048200BB010689828A83F0225002F722BBFE0159
:02049200F32253
:10049400F8BB010DE58229F582E5833AF583E8F09E
:1004A400225006E92582C8F622BBFE05E92582C84A
:0204B400F22232
:1004B600BC000BBE0029EF8DF084FFADF022E4CC2A
:1004C600F875F008EF2FFFEE33FEEC33FCEE9DECF3
:1004D600984005FCEE9DFE0FD5F0E9E4CEFD22ED39
:1004E600F8F5F0EE8420D21CFEADF075F008EF2F83
:1004F600FFED33FD4007985006D5F0F222C398FD74
:050506000FD5F0EA2210
:100FB500C2D5E830E70FB2D5E4C39BFBE49AFAE467
:100FC50099F9E498F8EC30E717B2D5120FEB120552
:100FD5006BE4C39BFBE49AFAE499F9E498F880037F
:100FE50012056B30D50DE4C39FFFE49EFEE49DFD25
:040FF500E49CFC225A
:0E050B00C3E49FFFE49EFEE49DFDE49CFC2201
:10051900EB9FF5F0EA9E42F0E99D42F0EC6480C859
:0605290064809845F022F9
:10052F0075F008758200EF2FFFEE33FECD33CDCC83
:10053F0033CCC58233C5829BED9AEC99E582984006
:10054F000CF582EE9BFEED9AFDEC99FC0FD5F0D6E3
:10055F00E4CEFBE4CDFAE4CCF9A88222B800C1B90D
:10056F000059BA002DEC8BF084CFCECDFCE5F0CB4B
:10057F00F97818EF2FFFEE33FEED33FDEC33FCEB84
:10058F0033FB10D703994004EB99FB0FD8E5E4F93F
:10059F00FA227818EF2FFFEE33FEED33FDEC33FC2C
:1005AF00C933C910D7059BE99A4007EC9BFCE99A20
:1005BF00F90FD8E0E4C9FAE4CCFB2275F010EF2F65
:1005CF00FFEE33FEED33FDCC33CCC833C810D70765
:1005DF009BEC9AE899400AED9BFDEC9AFCE899F8A0
:0E05EF000FD5F0DAE4CDFBE4CCFAE4C8F92233
:00000001FF
