:1017EA00256620430D0A00C0F9A4B0999282F880B8
:1017FA00908880C6C0868EBF7F4079243019120235
:09180A0078001008034621060EC7
:101363001219C41218F01219AB1219731219AB1215
:1013730017BF8F0C8E0B8D0A8C097BFF7A1779EAC6
:101383008F288E278D268C25120F56E4FFFEFDFC39
:10139300AB0CAA0BA90AA80912090650030214C32D
:1013A300AF0CAE0BAD0AAC091209CE8F08E4FFFEF9
:1013B3007DC87C42AB0CAA0BA90AA809120800122B
:1013C30009CE7C007D64120E7A8C0D8D0EE4FFFE37
:1013D300FDFCAB0CAA0BA90AA8091209064067E495
:1013E300FFFE7D207C41AB0CAA0BA90AA8091209B8
:1013F300065053AF08EF3395E0FE74032FF5827464
:10140300183EF583E493FDE4FF121A25AE0DAF0EEB
:101413007C007D0A120E2574F12FF58274173EF5B8
:1014230083E493FD7F01121A25AE0DAF0E7C007D80
:101433000A120E2574F12DF58274173CF583E4939B
:10144300FD7F02021579E50875F00A120D89FF3355
:1014530095E0FE74F12FF58274173EF583E493FD56
:10146300E4FF121A25E50875F00A120D89AFF0EFB3
:101473003395E0FE74032FF58274183EF583E493ED
:10148300FD7F01121A25AE0DAF0E7C007D0A120EF0
:101493002574F12FF58274173EF583E493FD7F02E3
:1014A300121A25AE0DAF0E7C007D0A120E2574F1C3
:1014B3002DF58274173CF583E493FD7F03021579C0
:1014C300AF0CAE0BAD0AAC0912097F1209CE8F081F
:1014D300AF0CAE0BAD0AAC0912097FE4FBFA79C875
:1014E30078421208001209CE7C007D64120E7A8CB9
:1014F3000D8D0E901801E493FDE4FF121A25E4FF0D
:10150300FE7D207CC1AB0CAA0BA90AA8091209060F
:10151300606A4068E4FFFEFDFCAB0CAA0BA90AA8B5
:10152300091209065056AF08EF3395E0FE74032FF6
:10153300F58274183EF583E493FD7F01121A25AEFC
:101543000DAF0E7C007D0A120E2574F12FF5827407
:10155300173EF583E493FD7F02121A25AE0DAF0EFD
:101563007C007D0A120E2574F12DF58274173CF56B
:1015730083E493FD7F03121A2502136FE50875F0C8
:101583000A120D89FF3395E0FE74F12FF58274176B
:101593003EF583E493FD7F01121A25E50875F00AF1
:1015A300120D89AFF0EF3395E0FE74032FF58274CB
:1015B300183EF583E493FD7F02121A25AE0DAF0E9C
:1015C3007C007D0A120E2574F12FF58274173EF507
:1015D30083E493FD7F03121A25AE0DAF0E7C007DCD
:1015E3000A120E2574F12DF58274173CF583E493EA
:0915F300FD7F04121A2502136F9A
:0C19B800E5A0541F4480F5A07580FF22BC
:0C19C400E5A0541F44A0F5A05380BF22F2
:0D1991001219C44380401219645380BF2214
:0C19D000E5A0541F44A0F5A05380EF22B6
:0D199E001219D04380101219645380EF22FB
:10186100EFFD7C006401700CE5A0541F44C0F5A09D
:10187100E4F58022ED64024C700BE5A0541F44E0B6
:06188100F5A07580FF22B6
:1018CF00AE05AB077F01121861AF03A807740108BB
:1018DF008002C333D8FC42807F02121861EE52801F
:0118EF0022D6
:061A25001218CF0219FAAD
:1015FC0043B03F43C014C2B020C40C121A0330C411
:10160C00FD121A03751A0120C20C121A0330C4FD04
:10161C00121A03751A0220B50C121A0330C4FD12EB
:10162C001A03751A0320B40C121A0330C4FD121AD3
:10163C0003751A0443B03F43C014C2B120C40C124A
:10164C001A0330C4FD121A03751A0520C20C121AA3
:10165C000330C4FD121A03751A0620B50C121A03B6
:10166C0030C4FD121A03751A0720B40C121A033079
:10167C00C4FD121A03751A0843B03F43C014C2B21A
:10168C0020C40C121A0330C4FD121A03751A092057
:10169C00C20C121A0330C4FD121A03751A0A20B5B3
:1016AC000C121A0330C4FD121A03751A0B20B40C59
:1016BC00121A0330C4FD121A03751A0C43B03F43BF
:1016CC00C014C2B320C40C121A0330C4FD121A0386
:1016DC00751A0D20C20C121A0330C4FD121A0375B0
:1016EC001A0E20B50C121A0330C4FD121A03751A07
:1016FC000F20B40C121A0330C4FD121A03751A1001
:03170C00AF1A22EF
:0919E800D288C289D2A8D2AF2234
:0919F100D28AC28BD2AAD2AF2225
:10192900538E7F5389F0758A9C758CFFC28DD28C3A
:07193900D2A9D2AFD2B922FE
:1018F000759850538EBF538EFE53890F758BE875C4
:0D1900008DFFC2ABD28EC298D2ACD2AF2206
:081A15008F993099FDC299225E
:061887008B178A18891975
:10188D00E4FEAB17AA18A9198E82758300120DC438
:0E189D00FFFD3395E04D6006121A150E80E433
:0118AB00221A
:081A1D008F993099FDC2992256
:1019540080828486888A8C8E81838587898B8D8F0B
:06170F008B0F8A10891106
:101715007D7F7F8E121940E4F512C3E5129407749C
:10172500809480501EE51290195493FFAB0FAA10B8
:10173500A911851282758300120DC4FD1219400589
:0A1745001280D77D807F8E021940CC
:06178C008B138A1489157D
:10179200E4F516C3E516940774809480501EE5168E
:1017A20090195C93FF12174FAB13AA14A915851653
:0C17B20082758300EF120E03051680D72D
:0117BE002208
:0D19AB0012183A7FCC1218137F4402181353
:1017BF0012183A7FCC1218137FBE1218131218ACDE
:1017CF008F221218ACEFFEE522FFFDAC06EC1209DA
:0B17DF0095E4FBFA7980783D020800D9
:0819FA007F0C7EA9DEFEDFFC7C
:011A020022C1
:081A03007FD87E25DEFEDFFC2A
:011A0B0022B8
:081A0C007F3B7E5ADEFEDFFC89
:011A140022AF
:0E19640000007F167E037DE3DDFEDEFCDFFA71
:011972002252
:0E19730000007F2B7E067DCBDDFEDEFCDFFA62
:011981002243
:10190D00E4FEEEC3940874809480500FC297EF13D9
:0B191D0092A3EFC313FFD2970E80E7E8
:01192800229C
:10194000C29300C29700D2930012190DAF0512196D
:041950000DC293220F
:10174F00E4FDC29300C29700D2930012190DE4FF7B
:10175F00EFC39408748094805011C297EDC313FDAA
:10176F0030A303430580D2970F80E5C29300C29741
:0C177F0000D29700C2A300D2A300AF0567
:01178B00223B
:041982007F327E0032
:0B198600EF1FAC0670011E4C70F62233
:02181300AD071F
:10181500E4FBEBC39408748094805012C294ED13DA
:101825009294121982D294EDC313FD0B80E47F329A
:051835007E000219868F
:1018AC00E4FBEBC39408748094805014C294EDC391
:1018BC0013FDD2943094034305801219820B80E2FD
:0218CC00AF0566
:0118CE0022F7
:10183A00C200D2947F787E00121986C2947F207EDD
:10184A0003121986D2947F647E00121986A294929A
:06185A0000121982A20039
:011860002265
:10080000EC4D6011E8497017ED33EC3304600DE4F2
:10081000FCFFFEFD22E933E8330470F8020A3A12C5
:100820000A0558046009E4CC2481500628500902C6
:100830000A44284003020A41C0E0EB4A7044B980F0
:1008400006D0E0FB020A30EF4E701CBD8008EBFFC3
:10085000EAFEE9FD80EBE98DF0A4FEE5F00208E98F
:10086000E9CDF9EAFEEBFFEF89F0A4FCE5F0CE89D3
:10087000F0A42EFFE435F0CD89F0A42DFEE435F090
:100880008067EF4E7005BD80D780C3EF8BF0A4ACBE
:10089000F0EE8BF0A42CFCE435F0F8EF8AF0A42CF9
:1008A000E5F038FCE433CB8DF0A42CFCE5F03BF80C
:1008B000EE8AF0A42CFCE5F038F8E433CF89F0A4FC
:1008C0002CFCE5F038CF3400CE89F0A42FFFE5F002
:1008D0003EFEE433C98DF0A42EFEE5F039CD8AF05A
:1008E000A42FFFE5F03EFEE43DFD33D0E0FB5007D2
:1008F0000BBB000F020A44EC2CFCEF33FFEE33FE7F
:06090000ED33FD020A1CAC
:1009060074F8CC6480CCC86480C8F58204604FC398
:10091600EB9FF5F0EA9E42F0E99D42F0E89C45F037
:10092600603C501DE5825FFFE582D313CB5BCBF4C1
:100936002B5582FB50280ABA002409B900200880EA
:100946001DE5825BFBE582D313CF5FCFF4C3132F84
:100956005582FF50090EBE00050DBD00010CC3EB0C
:100966009FF5F0EA9E42F0E99D42F0E89C45F06072
:0909760007CC4820E701B3EC2294
:10097F00ED33EC33600A047003BD8004ECB2E7FC86
:01098F002245
:1009900075F020800E75F010800575F0087D007EE2
:1009A000007F003392D530D503120EB0EC334010E7
:1009B000EF33FFEE33FEED33FDEC33FCD5F0ED22EB
:0E09C000E5F0247EA2D513CC92E7CDCEFF2227
:1009CE00EDD2E7CD33EC3392D524814006E4FFFE21
:1009DE00FDFC22FCE4CFCECDCC24E0501174FF8080
:1009EE00EDC3CC13CCCD13CDCE13CECF13CF04701D
:0709FE00F030D5DE020EB05F
:100EF400E5392425F8E605392278223007027825D9
:100F0400E475F001120EBE020DAB2000EB7F2ED271
:100F1400008018EF540F2490D43440D4FF30040BD5
:100F2400EF24BFB41A0050032461FFE53A600215B0
:100F34003A053DE53D7002053C30070D7822E47525
:100F4400F001120EBEEF020DF1021A1D7403D20756
:100F54008003E4C207F5398B228A238924E4F53A15
:100F6400F53CF53DE53A60077F20120F2F80F575BB
:100F74003BFFC201C200C202C203C205C206C208CC
:100F8400120EFDFF700D3007057F00120F40AF3DBC
:100F9400AE3C22B4255FC2D5C204120EFDFF24D09C
:100FA400B40A00501A75F00A783A30D50508B6FF2D
:100FB4000106C6A426F620D5047002D20380D924E3
:100FC400CFB41A00EF5004C2E5D20402122DD201AC
:100FD40080C6D20080C0D20280BCD2D580BAD205ED
:100FE40080B47F20120F2F2002077401B53A00400D
:100FF400F1120EF4FF120F2F020F68D208D20680EE
:1010040095120EF4FB120EF4FA120EF4F94A4B7018
:101014000679247A137BFF20022EE53A602A7E00AB
:101024008E82758300120DC460060EEE653B70F06F
:10103400C2D5EBC0E0EAC0E0E9C0E0EE12128DD008
:10104400E0F9D0E0FAD0E0FB120DABFF60AAEBC0F0
:10105400E0EAC0E0E9C0E0120F2FD0E02401F9D0AB
:10106400E03400FAD0E0FBE53B0460DCD53BD980FA
:1010740087D20280A212127060F7E53B700104125D
:101084000A4FA93B600DE53B600914F53B121317A9
:10109400EF60F3EA30E702F404C3995077EAF425E9
:1010A4003B0430E701E404F53B800D12127060C18B
:1010B400EA053B253B120A4FEA7838F630E701E4AB
:1010C400253B04D53B042005011412128DE4C0E035
:1010D4001213177838E6601320E70714F6120F1777
:1010E400802204F6D0E014C0E07F00120F17E53B25
:1010F4006007120F0E153B800B300503120F0ED044
:10110400E0020F68D0E00480C512127060A0E53BD5
:1011140004120A4F7838EAF6E53B20050260010420
:05112400240412128DED
:1011290074FF04C0E0121317120F17E53B200502E4
:101139006003120F0ED0E0B53BE87F45120F21780E
:1011490038E67F2B30E7047F2DF404C0E0120F2F1F
:10115900D0E075F00A84C0F0120F18D0E0120F1811
:10116900020F68791080027908C206C2088008D285
:10117900D5790A8004790AC2D5E53B047002F53BAA
:10118900E4FAFDFEFF120EF4FC7B08200113120E97
:10119900F4FD7B1030000A120EF4FE120EF4FF7BF0
:1011A90020EC3382D592D55013C3E43000069FFF5B
:1011B900E49EFEE42001039DFDE49CFCE4CBF8C21F
:1011C90001EC700CCFCECDCCE824F8F870F3801781
:1011D900C3EF33FFEE33FEED33FDEC33FCEB33FBB2
:1011E900994002FB0FD8E9EB300105F8D0E0C4487B
:1011F900B201C0E00AEC4D4E4F78207B0070C2EA84
:10120900B53B0040BCC0E012128FD0F0D0E0200105
:1012190004C4C0E0C4B201C0F0120F18D0F0D5F078
:10122900EB020F68120ECE100553116C580FD64CF5
:101239000FD24211704F1178441178490FEB4311C5
:101249007E5510AF46110D451079471344500FDAFA
:101259002D0FDE2E10012B0FE2230FFF20132D2A55
:101269000F9A4800000FF9E53BB4FF03753B0612DE
:101279000EF4FC120EF4FD120EF4FE120EF4FF78B9
:1012890031020A7E790AA2D5200314300509B91062
:10129900020404B9080104A2D52006025001042061
:1012A90002689202B53A005034C0E07F2030031939
:1012B9007F30A20272067205500F1212E6C202C2F4
:1012C90006C205C2087F30800F300503E9C0E0126D
:1012D9000F2F300503D0E0F9D0E0B53ACC3005172F
:1012E9007F30B9100C120F2F7F583004077F788098
:1012F90003B90803120F2F3002057F2D020F2F7F2C
:10130900202008F87F2B2006F322920280CF7F004D
:10131900B4070050052431F8E6FF22286E756C6C7D
:101329002900D201120EF43001F8C201783A30D501
:101339000108F6020F9A2D50434958120EF424035E
:10134900B405004001E490133F93120F20743A1240
:0A1359000F20D203753A0402116C54
:100A0500E9D2E7C933E833F892D5EDD2E7CD33EC37
:070A150033FC5002B2D522B0
:100A1C00EC30E7100FBF000C0EBE00080DBD00043B
:100A2C000BEB6014A2D5EB13FCED92E7FD2274FFE7
:100A3C00FCFDFEFF22E480F8A2D574FF13FC7D8040
:030A4C00E480EF54
:100A4F00F920E72824F950037907E4F42402FB186E
:100A5F00DBFDE624FB5014E9600DE4F618E604F61E
:0F0A6F00B40A08E4F6D9F57401F60A22C2D522BA
:100A7E00ED33EC3392D5FA602AB4FF33EDC2E77B47
:100A8E00FF60067A0A79A3E4227A0A79AC20D504AB
:100A9E007A0A79A7224E614E002B494E46002D4907
:100AAE004E4600E47A08F608DAFC7B00740722E86A
:100ABE00C0E0ECC0E0EDC0E0EEC0E0EFC0E0EA75F3
:100ACE00F010A4CAABF075F04DA42BFBE435F0FC8E
:100ADE00EA2410FAEB34C5FBEC34D9FCEDC2E7FF87
:100AEE0075F056A4F42411C5F0F434C58FF0A42A81
:100AFE00E5F03BE43CF620E714120D49D0E0FFD0C0
:100B0E00E0FED0E0FDD0E0FC120C7C8014F4041268
:100B1E000D49D0E0FFD0E0FED0E0FDD0E0FC1208A1
:100B2E0000D0E0F8E6FAEDD2E7CD33EC332482FBC9
:100B3E00E4C3CF33CFCE33CECD33CD33DBF37B0710
:100B4E0075F00A846004F6081B0AE5F0F6088FF0CB
:100B5E00740AA4FFACF08EF0740AA42CFEACF05014
:100B6E00010C8DF0740AA42CFDE435F0F608DBDEE2
:030B7E00740722D7
:100B8100020A3AE86480F8E933E83360110460F05E
:100B9100ED33EC337009E8FCE9FDEAFEEBFF2204DA
:100BA10060DED3EB9FEA9EE99DE8C2E78CF0C2F7D5
:100BB10095F0400CE8CCF8E9CDF9EACEFAEBCFFBA1
:100BC100120A0585D0F05804700320D5B3E80470EB
:100BD100075002B2D5020A4492D5EC0460F7E4CC86
:100BE100C0E0C398F8603B94186008400DD0E0FB6A
:100BF100020A1CE4FBFAC9FC8028E830E406E4C9D7
:100C0100FBE4CAFCE830E305E4C9CACBFCE85407BD
:100C11006010F8C3E913F9EA13FAEB13FBEC13FCC8
:100C2100D8F130F52FC3E49CFCEF9BFFEE9AFEED6B
:100C310099FDD0E0FBEF4E4D4C701222DB03020A0E
:100C410041EC2CFCEF33FFEE33FEED33FDED30E7ED
:100C5100EB020A1CEF2BFFEE3AFEED39FDD0E0FB73
:100C610050130BBB0003020A44ED13FDEE13FEEF1C
:080C710013FFEC13FC020A1C46
:100C7900020A44EC5D046005E859047003020A3A6B
:100C8900120A05580460F6EC4860F2EC7004FDFEA7
:100C9900FF22C860DB2481C85009C398600250064E
:100CA900020A419850CAF582E9294B4A7005AB827C
:100CB900020A3075F0007C1A7880C3EF9BEE9AED3A
:100CC90099400DC3EF9BFFEE9AFEED99FDE842F0C6
:100CD900DC23ACF0D0E0FFD0E0FED0E0FDAB822019
:100CE900E7101BEB60BAEC2CFCEF33FFEE33FEEDA3
:100CF90033FD020A1CE803F830E705C0F075F0007F
:100D0900EF2FFFEE33FEED33FD40B830E7C280AA86
:100D19003F8000004120000042C80000447A0000E2
:100D2900461C400047C35000497424004B18968064
:100D39004CBEBC205A0E1BCA6753C21C749DC5AE5B
:100D4900FB60065407601C2323120D77EB543860AF
:100D590009120D63120D72120800ECF8EDF9EEFAA2
:100D6900EFCB22EB120D7280F1543803241C900D45
:100D790019FE93FC0EEE93FD0EEE930ECE93FF2219
:030000000219DC06
:0C19DC00787FE4F6D8FD75813D021363AE
:100D8900C2D530F707B2D563F0FF05F030E70CB2F2
:100D9900D5F4048463F0FF05F080018430D502F4B2
:020DA900042222
:100DAB00BB010689828A83E0225002E722BBFE0246
:090DBB00E32289828A83E4932279
:100DC400BB010CE58229F582E5833AF583E02250E4
:100DD40006E92582F8E622BBFE06E92582F8E2222E
:0D0DE400E58229F582E5833AF583E4932248
:100DF100BB010689828A83F0225002F722BBFE01E1
:020E0100F322DA
:100E0300F8BB010DE58229F582E5833AF583E8F025
:100E1300225006E92582C8F622BBFE05E92582C8D1
:020E2300F222B9
:100E2500BC000BBE0029EF8DF084FFADF022E4CCB1
:100E3500F875F008EF2FFFEE33FEEC33FCEE9DEC7A
:100E4500984005FCEE9DFE0FD5F0E9E4CEFD22EDC0
:100E5500F8F5F0EE8420D21CFEADF075F008EF2F0A
:100E6500FFED33FD4007985006D5F0F222C398FDFB
:050E75000FD5F0EA2298
:100E7A00C2D5EC30E709B2D5E4C39DFDE49CFCEE93
:100E8A0030E715B2D5E4C39FFFE49EFE120E25C3D8
:100E9A00E49DFDE49CFC8003120E2530D507C3E4D3
:060EAA009FFFE49EFE2202
:0E0EB000C3E49FFFE49EFEE49DFDE49CFC2253
:100EBE00FAE6FB0808E6F925F0F618E6CA3AF62235
:100ECE00D083D082F8E4937012740193700DA3A3B3
:100EDE0093F8740193F5828883E4737402936860C7
:060EEE00EFA3A3A380DFC7
:00000001FF
