:1003B700C0F9A4B0999282F880908883C6A1868EEE
:0C036D00060D3132330D0A00020A01F4C3
:0F03C7001204598F0CEF64047004B200D20122AB
:10000E002000030200A47DC17C00E4FF12042390B3
:10001E0003B8E493FD7C007F011204237DFF7C0076
:10002E007F021204237DFF7C007F031204237DFFD9
:10003E007C007F04120423AE0AAF0B7C007D641299
:10004E00019274B72FF58274033EF583E493FD7C21
:10005E00007F05120423AE0AAF0B7C007D0A12014D
:10006E00927C007D0A12019274B72DF58274033CC6
:10007E00F583E493FD7C007F06120423AE0AAF0BDA
:10008E007C007D0A12019274B72DF58274033CF543
:10009E0083E493FD80417DFF7C00E4FF1204237D09
:1000AE00FF7C007F011204237DFF7C007F0212047F
:1000BE00237DFF7C007F031204237DFF7C007F04E1
:1000CE001204237DFF7C007F051204237DFF7C003C
:0F00DE007F061204237DFF7C007F07120423227C
:1003310012040B1203501203A012000E1203C73055
:0F03410001F7C2017B007A00790D12030C80EAEC
:03000B000201E708
:1001E700C0E0C0F0C083C082C0D075D000C000C0DE
:0D01F70001C002C003C004C005C006C0075F
:1002040005080509E50864027005F508120387E589
:0A02140009640A7005F50912028161
:10021E00D007D006D005D004D003D002D001D00034
:0B022E00D0D0D082D083D0F0D0E032DE
:0C03FF00E5A0541F4480F5A07580FF228B
:0C040B00E5A0541F44A0F5A05380BF22C0
:0D03E50012040B4380401203D65380BF2248
:0C041700E5A0541F44A0F5A05380EF2284
:0D03F2001204174380101203D65380EF222F
:0D0379000814FFFFFFFFFFFFFFFF0113004F
:1002E40053A01FEFFD7C006401700BF580E5A05462
:1002F4001F44C0F5A022ED64024C700B7580FFE52D
:08030400A0541F44E0F5A02203
:1002BA00AB05AA04AE077F021202E41F1202E4AFE2
:1002CA0006A8077401088002C333D8FC42807F0263
:0A02DA001202E4EB528053A01F2231
:1003870074142513F8E6FD7C00AF131202BA0513A7
:08039700E51364087002F51380
:01039F00223B
:09042300AE0574142FF8A60622A0
:1002390075C00175B00FE5C0541033333354F8FF5E
:10024900E5C05404C454F04FFFE5B0543F4FFF7567
:10025900C01F75B0F0E5C0541033333354F8FEE5D0
:10026900C05404C454F04EFEE5B0543F4E4FF4FF61
:07027900651C5FF51D8F1CE1
:01028000225B
:10028100120239C28CE51DF42449601524FC60205A
:1002910024E4601224F0601324707017751E04802A
:1002A10012751E08800D751E0C8008751E108003C6
:0902B100751E09D28C75B0FF2204
:05045900AF1EE4F51EDA
:01045E00227B
:09042C00D288C289D2A8D2AF2205
:09043500D28AC28BD2AAD2AF22F6
:1003A000438E805389F0758A20758CD1C28DD28C92
:0703B000D2A9D2AFD2B9229D
:10035000759850438E40538EFE53890F758B1E75D2
:0D0360008DFBC2ABD28EC298D2ACD2AF22C0
:080003008F993099FDC299228A
:10030C008B218A228923AB21AA22A923120179608D
:10031C00130523E5237002052214F9120179FF124B
:05032C00000380E22245
:08043E007F0C7EA9DEFEDFFC4D
:010446002293
:080447007FD87E25DEFEDFFCFC
:01044F00228A
:080450007F3B7E5ADEFEDFFC5B
:010458002281
:0E03D60000007F167E037DE3DDFEDEFCDFFA15
:0103E40022F6
:030000000200ED0E
:0C00ED00787FE4F6D8FD75812302013411
:10017900BB010689828A83E0225002E722BBFE0284
:09018900E32289828A83E49322B7
:10019200BC000BBE0029EF8DF084FFADF022E4CC51
:1001A200F875F008EF2FFFEE33FEEC33FCEE9DEC1A
:1001B200984005FCEE9DFE0FD5F0E9E4CEFD22ED60
:1001C200F8F5F0EE8420D21CFEADF075F008EF2FAA
:1001D200FFED33FD4007985006D5F0F222C398FD9B
:0501E2000FD5F0EA2238
:1000F900020331E493A3F8E493A34003F68001F2E9
:1001090008DFF48029E493A3F85407240CC8C33307
:10011900C4540F4420C8834004F456800146F6DFD6
:10012900E4800B010204081020408090036DE47EF6
:10013900019360BCA3FF543F30E509541FFEE493CB
:10014900A360010ECF54C025E060A840B8E493A392
:10015900FAE493A3F8E493A3C8C582C8CAC583CABD
:10016900F0A3C8C582C8CAC583CADFE9DEE780BE75
:010386000076
:00000001FF
