:030000000209B939
:0C09B900787FE4F6D8FD75813E020A004C
:100D1200C0F9A4B0999282F880908883C6A1868E89
:100D22004079243019120278001008034621060E79
:100CF000032C505916013811012B19012F0401340E
:070D00001101361901350451
:100D8600120E1B120E2A120DCC7B007A00792C1241
:080D96000AB5120E57020E39D6
:10079E00300459C2047B007A00792C120B39E52EF5
:1007AE00C4540F75F00AA4FFE52E540F2FFFE53841
:1007BE00FD3395E0FCEFFB7A00D39DEC6480F8747A
:1007CE008098400AED9408EC648094804018D3EB36
:1007DE009DEC6480F8EA648098400FD3ED9408ECA9
:1007EE00648094804004D2058002C20530023EC26D
:1007FE0002C20B120B72AC07E41204EF7BA17AA0BB
:10080E0079A0783C1203668F338E328D318C30E4B2
:10081E00FFFE7D207C40AB33AA32A931A8301204F2
:10082E006C5006D200D20A8004C200C20A300328DD
:10083E00C203120E57120BDC8F3C8E3B8D3A8C3955
:10084E00AC2BEC1204EFAB3CAA3BA93AA83912042C
:08085E006C5003D20622C20611
:01086600226F
:100A4500120E1B300504C2808002D280300604C21B
:100A5500818002D281300704C2828002D282300AAC
:100A650041AF2F7E00EF64047004C2838002D283FD
:100A7500EF64054E7004C2848002D284EF64064E92
:100A85007004C2858002D285EF64074E7004C28669
:100A95008002D286EF64084E7004C287800ED2872A
:100AA500800AD283D284D285D286D28753A01F22D0
:1006A30020080302079DC208120E798F3D7E00EFDA
:1006B30064047012B201F53EF53720010985343820
:1006C30085362B85352FEF64054E701E20010D05F1
:1006D3003EE53E75F0038485F03E800E30010B0548
:1006E30037E53775F0038485F037EF64084E704DB6
:1006F30030011CAF37FEEF700415348012EF640134
:100703004E700415368008EF64024E70021535AF43
:1007130038EF3395E0C3648094805003753817AF86
:100723002BEF3395E0C3648094805003752B63C330
:10073300E52F9404748094805003752F08E53D647D
:1007430009705730011CAF37FEEF70040534801277
:10075300EF64014E700405368008EF64024E7002A8
:100763000535AF38EF3395E0FED3EF9417EE648091
:1007730094804003E4F538AF2BEF3395E0FED3EFDD
:100783009463EE648094804003E4F52BD3E52F94C7
:0B07930008748094804003752F04223E
:10000E00300103020219E53E706CE52EC4540F90C8
:10001E000D1293FD7C00E4FF120E70E52E540F902E
:10002E000D1293FD7C007F01120E707DBF7C007F50
:10003E0002120E70E52DC4540F900D1293FD7C002C
:10004E007F03120E70E52D540F900D1293FD7C0060
:10005E007F04120E707DBF7C007F05120E70E52CA2
:10006E00C4540F900D1293FD7C007F06120E70E5A6
:10007E002C540F020359E53E6401600302014B90BC
:10008E000D1E93FD7C00E4FF120E707DFF7C007F41
:10009E0001120E707DFF7C007F02120E707DFF7CC0
:1000AE00007F03120E707DFF7C007F04120E70E441
:1000BE00FFFE7D207C41AB3CAA3BA93AA839120336
:1000CE00661205237C007D6412064074122FF582A1
:1000DE00740D3EF583E493FD7C007F05120E70E4F3
:1000EE00FFFE7D207C41AB3CAA3BA93AA839120306
:1000FE00661205237C007D0A1206407C007D0A12E2
:10010E00064074222DF582740D3CF583E493FD7C3C
:10011E00007F06120E70E4FFFE7D207C41AB3CAAF0
:10012E003BA93AA8391203661205237C007D0A12F8
:10013E00064074122DF582740D3C02030BE53E64ED
:10014E00026003020365900D2093FD7C00E4FF1214
:10015E000E707DFF7C007F01120E70E4FFFE7DC8E5
:10016E007C42AB33AA32A931A830120366120523A2
:10017E007C007D6412064074222FF582740D3EF5CC
:10018E0083E493FD7C007F02120E70E4FFFE7DC8B7
:10019E007C42AB33AA32A931A83012036612052372
:1001AE007C007D0A1206407C007D0A120640741205
:1001BE002DF582740D3CF583E493FD7C007F0312D4
:1001CE000E70E4FFFE7DC87C42AB33AA32A931A883
:1001DE00301203661205237C007D0A12064074124B
:1001EE002DF582740D3CF583E493FD7C007F0412A3
:1001FE000E707DFF7C007F05120E707DFF7C007FF0
:10020E0006120E70A200E43302035920010302030A
:10021E0065E53770727D8CFCFF120E70900D13E445
:10022E0093FD7C007F01120E707DFF7C007F021219
:10023E000E707DFF7C007F03120E707DFF7C007FB1
:10024E0004120E707DFF7C007F05120E70E5347572
:10025E00F00A1205A4FF3395E0FE74122FF5827496
:10026E000D3EF583E493FD7C007F06120E70E5349F
:10027E0075F00A1205A4AFF0EF3395E0FE74122F5D
:10028E00F582740D3E8076E537640170757D8CFCC9
:10029E00FF120E70900D14E493FD7C007F01120E80
:1002AE00707DFF7C007F02120E707DFF7C007F034D
:1002BE00120E707DFF7C007F04120E707DFF7C009D
:1002CE007F05120E70E53675F00A1205A4FF339500
:1002DE00E0FE74122FF582740D3EF583E493FD7CDF
:1002EE00007F06120E70E53675F00A1205A4AFF007
:1002FE00EF3395E0FE74122FF582740D3EF583E414
:10030E00804CE5376402704F7D8CFCFF120E7090AE
:10031E000D15E493FD7C007F01120E707DFF7C00B5
:10032E007F02120E707DFF7C007F03120E707DFF28
:10033E007C007F04120E707DFF7C007F05120E7014
:10034E007DFF7C007F06120E70E535900D1293FD39
:08035E007C007F07120E7022E3
:100DB600120D8612079E12000E1206A33009F4C207
:060DC60009120A4580ED50
:03000B0002086781
:10086700C0E0C0F0C083C082C0D075D000C000C057
:0D08770001C002C003C004C005C006C007D8
:10088400D2090522E522640A7004F522D208052360
:10089400E52364027005F523120DE10524E52464C3
:1008A400327004F524D2040525E52564647004F54A
:1008B40025D2020526E52664C87004F526D2033045
:1008C400002520071A0528E5287002052764B8705A
:1008D40004E527640B7033F527F528D207802B75C0
:1008E4002900752A00802330071A052AE52A700298
:1008F4000529B4B815E529B40B10752900752A002B
:0A090400C207800675270075280061
:10090E00D007D006D005D004D003D002D001D0003D
:0B091E00D0D0D082D083D0F0D0E032E7
:0A0D07000809FFFFFFFFFFFFFFFFD9
:0F0E1B0053A01F7580FFE5A0541F4480F5A0224F
:0F0E2A0053A01FE4F580E5A0541F44A0F5A022BB
:100C310053A01FEFFD7C006401700BF580E5A0540B
:100C41001F44C0F5A022ED64024C700B7580FFE5D6
:080C5100A0541F44E0F5A022AD
:100C0700AB05AA04AE077F02120C311F120C31AFDD
:100C170006A8077401088002C333D8FC42807F020C
:0A0C2700120C31EB528053A01F2283
:100DE10074092508F8E6FD7C00AF08120C07050818
:030DF1005308079D
:010DF40022DC
:090E7000AE0574092FF8A6062254
:10092900E4F511D2B2D2B3C2C2C2C420B303751264
:100939000720B20375120B30B30630B20375120FDC
:10094900C2B2C2B3D2C2D2C420C40375137020C2CA
:10095900037513B030C40630C2037513F0E51245B0
:1009690013F511E51414601014603D24027040E57C
:1009790011F4603B75140122E511F47003F514229A
:10098900E5112485601124C4601224FC60132444F9
:100999007012751504800D75150580087515088088
:0F09A9000375150975140222E511F47002F51497
:0109B800221C
:080E7900120929AF15E4F5157B
:010E8100224E
:100B7200120E487F90120BA7120E09200B047F0160
:100B820080027F03120BA7120E09120E487F9112E8
:100B92000BA7120E09120CA78F117F01120D9E12C4
:040BA2000E64AF111D
:010BA600222C
:100AB5008B118A1289137D7F7F8E120DF5AB11AADA
:100AC50012A9131205C6FD7F80120DF5AB11AA12EE
:100AD500A9139000011205DFFD7F82120DF5AB1100
:100AE500AA12A9139000021205DFFD7F84120DF5ED
:070AF5007D807F8E020DF5EC
:100B39008B118A1289137F81120AFCAB11AA12A99F
:100B490013EF12060C7F83120AFCAB11AA12A91328
:100B5900900001EF12061E7F85120AFCAB11AA1242
:090B6900A913900002EF02061E20
:0D0E5700120C807FCC120C597F44020C5904
:100BDC00120C807FCC120C597FBE120C59120CCD0A
:100BEC008F11120CCDEFFEE511FFFDAC06E41204E3
:0B0BFC00EAE4FBFA7980783D02036612
:100DCC00438E805389F0758A20758CD1C28DD28C5C
:050DDC00D2A9D2AF22F4
:0E0E390000007F237E337DB6DDFEDEFCDFFA97
:010E47002288
:100D5000E4FEEEC3940874809480500FC297EF13A2
:0B0D600092A3EFC313FFD2970E80E7B1
:010D6B002265
:100DF500C29300C29700D29300120D50AF05120D99
:040E050050C2932222
:100AFC00E4FDC29300C29700D29300120D50E4FFA4
:100B0C00EFC39408748094805011C297EDC313FD09
:100B1C0030A303430580D2970F80E5C29300C297A0
:0C0B2C0000D29700C2A300D2A300AF05C6
:010B3800229A
:040D6C00D2A07F058D
:100D7000000000000000000000000000000000AEC5
:060D8000071FEE70EB22DC
:0F0E4800D2A1120D6CC2A17F05120D70C2A022A3
:0C0E6400C2A1120D6CD2A17F05020D701E
:020BA700AD0798
:100BA900E4FCECC39408748094805024C2A07F05AF
:100BB900120D70ED30E704D2A18002C2A17F0512A7
:100BC9000D70D2A0ED25E0FD7F05120D700C80D2CD
:020BD900C2A0B8
:010BDB0022F7
:100CA700E4FCECC39408748094805017120D6CED2B
:100CB70025E0FD30A103430501C2A07F05120D7099
:050CC7000C80DFAF0509
:010CCC002205
:100E0900120D6CA2A1E433FDC2A07F05120D70AFD3
:010E190005D3
:010E1A0022B5
:100D9E00C2A0EF24FF92A17F05120D70120D6CC23E
:080DAE00A0D2A17F05020D7027
:040D32007F057E00BB
:100D3600EF1FAA0670011E4A600FE4FDEDC3940C76
:090D46007480948050EA0D80F3E2
:010D4F002281
:020C5900A907E9
:100C5B00E4FBEBC39408748094805012C294E913A4
:100C6B009294120D32D294E9C313F90B80E47F05F1
:050C7B007E00020D36B1
:100CCD00E4FBEBC39408748094805014C294ECC37D
:100CDD0013FCD294309403430480120D320B80E246
:020CED00AF0452
:010CEF0022E2
:100C8000C20BD2947F0C7E00120D36C2947F507E30
:100C900000120D36D2947F0A7E00120D36A2949275
:060CA0000B120D32A20B45
:010CA600222B
:10036600EC4D6011E8497017ED33EC3304600DE491
:10037600FCFFFEFD22E933E8330470F802058F1214
:10038600055A58046009E4CC248150062850090215
:100396000599284003020596C0E0EB4A7044B980EF
:1003A60006D0E0FB020585EF4E701CBD8008EBFF12
:1003B600EAFEE9FD80EBE98DF0A4FEE5F002044FCC
:1003C600E9CDF9EAFEEBFFEF89F0A4FCE5F0CE8972
:1003D600F0A42EFFE435F0CD89F0A42DFEE435F02F
:1003E6008067EF4E7005BD80D780C3EF8BF0A4AC5D
:1003F600F0EE8BF0A42CFCE435F0F8EF8AF0A42C98
:10040600E5F038FCE433CB8DF0A42CFCE5F03BF8AA
:10041600EE8AF0A42CFCE5F038F8E433CF89F0A49A
:100426002CFCE5F038CF3400CE89F0A42FFFE5F0A0
:100436003EFEE433C98DF0A42EFEE5F039CD8AF0F8
:10044600A42FFFE5F03EFEE43DFD33D0E0FB500770
:100456000BBB000F020599EC2CFCEF33FFEE33FECD
:06046600ED33FD020571FB
:10046C0074F8CC6480CCC86480C8F58204604FC337
:10047C00EB9FF5F0EA9E42F0E99D42F0E89C45F0D6
:10048C00603C501DE5825FFFE582D313CB5BCBF460
:10049C002B5582FB50280ABA002409B90020088089
:1004AC001DE5825BFBE582D313CF5FCFF4C3132F23
:1004BC005582FF50090EBE00050DBD00010CC3EBAB
:1004CC009FF5F0EA9E42F0E99D42F0E89C45F06011
:0904DC0007CC4820E701B3EC2233
:1004E50075F020800E75F010800575F0087D007E92
:1004F500007F003392D530D503120695EC334010BA
:10050500EF33FFEE33FEED33FDEC33FCD5F0ED229A
:0E051500E5F0247EA2D513CC92E7CDCEFF22D6
:10052300EDD2E7CD33EC3392D524814006E4FFFED0
:10053300FDFC22FCE4CFCECDCC24E0501174FF802F
:10054300EDC3CC13CCCD13CDCE13CECF13CF0470CC
:07055300F030D5DE02069531
:10055A00E9D2E7C933E833F892D5EDD2E7CD33ECE7
:07056A0033FC5002B2D52260
:10057100EC30E7100FBF000C0EBE00080DBD0004EB
:100581000BEB6014A2D5EB13FCED92E7FD2274FF97
:10059100FCFDFEFF22E480F8A2D574FF13FC7D80F0
:0305A100E480EF04
:1009C500020DB6E493A3F8E493A34003F68001F285
:1009D50008DFF48029E493A3F85407240CC8C33333
:1009E500C4540F4420C8834004F456800146F6DF02
:1009F500E4800B0102040810204080900CF0E47E96
:100A0500019360BCA3FF543F30E509541FFEE493F6
:100A1500A360010ECF54C025E060A840B8E493A3BD
:100A2500FAE493A3F8E493A3C8C582C8CAC583CAE8
:100A3500F0A3C8C582C8CAC583CADFE9DEE780BEA0
:010D110000E1
:1005A400C2D530F707B2D563F0FF05F030E70CB2DF
:1005B400D5F4048463F0FF05F080018430D502F49F
:0205C40004220F
:1005C600BB010689828A83E0225002E722BBFE0233
:0905D600E32289828A83E4932266
:1005DF00BB010CE58229F582E5833AF583E02250D1
:1005EF0006E92582F8E622BBFE06E92582F8E2221B
:0D05FF00E58229F582E5833AF583E4932235
:10060C00BB010689828A83F0225002F722BBFE01CD
:02061C00F322C7
:10061E00F8BB010DE58229F582E5833AF583E8F012
:10062E00225006E92582C8F622BBFE05E92582C8BE
:02063E00F222A6
:10064000BC000BBE0029EF8DF084FFADF022E4CC9E
:10065000F875F008EF2FFFEE33FEEC33FCEE9DEC67
:10066000984005FCEE9DFE0FD5F0E9E4CEFD22EDAD
:10067000F8F5F0EE8420D21CFEADF075F008EF2FF7
:10068000FFED33FD4007985006D5F0F222C398FDE8
:050690000FD5F0EA2285
:0E069500C3E49FFFE49EFEE49DFDE49CFC2276
:00000001FF
