:100DBD00C0F9A4B0999282F880908880C6C0868EC2
:100DCD00BF7F4079243019120278001008034621A4
:020DDD00060E00
:100AFE00120F1A1209EBD3EF940074809480401CED
:100B0E001209EBC3EF941074809480500F1209EB0E
:100B1E00EFFD7C007F01120D76120F7A1209EBEFBA
:100B2E00641070CF7F01120C5C8F16EF900DBD9389
:080B3E00FDE4FF120F9380BBE0
:0C0F0E00E5A0541F4480F5A07580FF2270
:0C0F1A00E5A0541F44A0F5A05380BF22A6
:0D0EE700120F1A438040120EAB5380BF2241
:0C0F2600E5A0541F44A0F5A05380EF226A
:0D0EF400120F26438010120EAB5380EF2228
:100D0500EFFD7C006401700CE5A0541F44C0F5A004
:100D1500E4F58022ED64024C700BE5A0541F44E01D
:060D2500F5A07580FF221D
:100DDF00AE05AB077F01120D05AF03A8077401081D
:100DEF008002C333D8FC42807F02120D05EE528081
:010DFF0022D1
:060F9300120DDF020F68E1
:1009EB0043B03F43C014C2B020C40C120F7130C4CB
:1009FB00FD120F7175170120C20C120F7130C4FD5F
:100A0B00120F7175170220B50C120F7130C4FD1245
:100A1B000F7175170320B40C120F7130C4FD120F38
:100A2B007175170443B03F43C014C2B120C40C12FC
:100A3B000F7130C4FD120F7175170520C20C120F08
:100A4B007130C4FD120F7175170620B50C120F71A2
:100A5B0030C4FD120F7175170720B40C120F7130D3
:100A6B00C4FD120F7175170843B03F43C014C2B2D7
:100A7B0020C40C120F7130C4FD120F7175170920B1
:100A8B00C20C120F7130C4FD120F7175170A20B50D
:100A9B000C120F7130C4FD120F7175170B20B40CB3
:100AAB00120F7130C4FD120F7175170C43B03F4319
:100ABB00C014C2B320C40C120F7130C4FD120F71DD
:100ACB0075170D20C20C120F7130C4FD120F71750A
:100ADB00170E20B50C120F7130C4FD120F71751764
:100AEB000F20B40C120F7130C4FD120F717517105B
:030AFB00AF172210
:090F5600D288C289D2A8D2AF22D0
:090F5F00D28AC28BD2AAD2AF22C1
:100E3900538E7F5389F0758A9C758CFFC28DD28C35
:070E4900D2A9D2AFD2B922F9
:100E0000759850538EBF538EFE53890F758BE875BE
:0D0E10008DFFC2ABD28EC298D2ACD2AF2201
:080F83008F993099FDC29922FB
:060D51008B108A118912CB
:100D5700E4FEAB10AA11A9128E8275830012098EC8
:0E0D6700FFFD3395E04D6006120F830E80E411
:010D7500225B
:080F8B008F993099FDC29922F3
:100E8C0080828486888A8C8E81838587898B8D8FDE
:060B46008B088A09890AF0
:100B4C007D7F7F8E120E67E4F50BC3E50B94077463
:100B5C00809480501EE50B900E8C93FFAB08AA0975
:100B6C00A90A850B8275830012098EFD120E67058A
:0A0B7C000B80D77D807F8E020E678C
:060BF8008B0C8A0D890E32
:100BFE00E4F50FC3E50F940774809480501EE50F43
:100C0E00900E9493FF120B86AB0CAA0DA90E850FB6
:0C0C1E0082758300EF1209BB050F80D720
:010C2A0022A7
:0D0F0100120CDE7FCC120CB77F44020CB73F
:100C8C00120CDE7FCC120CB77FBE120CB7120D9A71
:100C9C008F18120D9AEFFEE518FFFDAC06EC120949
:0B0CAC000BE4FBFA7980783D020800A1
:100C2B00120ED87F90120BC3120E7B7F03120BC3D5
:100C3B00120E7B120F3E120ED87F91120BC3120EA7
:100C4B007B120D2B8F19D201120E50120F3EAF19C2
:010C5B002276
:100D76008F138C148D15120ED87FA0120BC3120E72
:100D86007BAF13120BC3120E7BAF15120BC3120EE1
:040D96007B020F3E8F
:020C5C008F13F4
:100C5E00120ED87FA0120BC3120E7BAF13120BC352
:100C6E00120E7B120ED87FA1120BC3120E7B120D29
:0D0C7E002B8F14D201120E50120F3EAF1436
:010C8B002246
:080F68007F0C7EA9DEFEDFFC18
:010F7000225E
:080F71007FD87E25DEFEDFFCC7
:010F79002255
:080F7A007F3B7E5ADEFEDFFC26
:010F8200224C
:0E0E9C0000007F057E347DC3DDFEDEFCDFFA44
:010EAA002225
:0E0EAB0000007F167E037DE3DDFEDEFCDFFA35
:010EB9002216
:0E0EBA0000007F2B7E067DCBDDFEDEFCDFFA26
:010EC8002207
:100E1D00E4FEEEC3940874809480500FC297EF13D4
:0B0E2D0092A3EFC313FFD2970E80E7E3
:010E38002297
:100E6700C29300C29700D29300120E1DAF05120E57
:040E77001DC29322E3
:100B8600E4FDC29300C29700D29300120E1DE4FF4B
:100B9600EFC39408748094805011C297EDC313FD7F
:100BA60030A303430580D2970F80E5C29300C29716
:0C0BB60000D29700C2A300D2A300AF053C
:010BC2002210
:040EC9007F327E00F6
:0B0ECD00EF1FAC0670011E4C70F622F7
:020CB700AD0787
:100CB900E4FBEBC39408748094805012C294ED1342
:100CC9009294120EC9D294EDC313FD0B80E47F32C6
:050CD9007E00020ECDBB
:100D9A00E4FBEBC39408748094805014C294EDC3AE
:100DAA0013FDD294309403430580120EC90B80E2DE
:020DBA00AF0583
:010DBC002214
:100CDE00C200D2947F787E00120ECDC2947F207E09
:100CEE0003120ECDD2947F647E00120ECDA294928A
:060CFE0000120EC9A20065
:010D040022CC
:040F3200D2A07F05C5
:080F360000AE071FEE70F92266
:0F0ED800D2A1120F32C2A17F05120F36C2A02283
:0C0F3E00C2A1120F32D2A17F05020F36B3
:100E5000C2A0A20192A17F05120F36120F32C2A0CA
:070E6000D2A17F05020F364D
:100E7B00120F32A2A19201C2A07F05120F36A2015E
:010E8B002244
:020BC300AD077C
:100BC500E4FCECC39408748094805024C2A07F0593
:100BD500120F36ED30E704D2A18002C2A17F0512C3
:100BE5000F36D2A0ED25E0FD7F05120F360C80D221
:020BF500C2A09C
:010BF70022DB
:100D2B00E4FCECC39408748094805017120F32EDDE
:100D3B0025E0FD30A103430501C2A07F05120F364C
:050D4B000C80DFAF0584
:010D50002280
:10080000EC4D6011E8497017ED33EC3304600DE4F2
:10081000FCFFFEFD22E933E8330470F80209791287
:10082000094458046009E4CC248150062850090288
:100830000983284003020980C0E0EB4A7044B98074
:1008400006D0E0FB02096FEF4E701CBD8008EBFF85
:10085000EAFEE9FD80EBE98DF0A4FEE5F00208E98F
:10086000E9CDF9EAFEEBFFEF89F0A4FCE5F0CE89D3
:10087000F0A42EFFE435F0CD89F0A42DFEE435F090
:100880008067EF4E7005BD80D780C3EF8BF0A4ACBE
:10089000F0EE8BF0A42CFCE435F0F8EF8AF0A42CF9
:1008A000E5F038FCE433CB8DF0A42CFCE5F03BF80C
:1008B000EE8AF0A42CFCE5F038F8E433CF89F0A4FC
:1008C0002CFCE5F038CF3400CE89F0A42FFFE5F002
:1008D0003EFEE433C98DF0A42EFEE5F039CD8AF05A
:1008E000A42FFFE5F03EFEE43DFD33D0E0FB5007D2
:1008F0000BBB000F020983EC2CFCEF33FFEE33FE41
:06090000ED33FD02095B6E
:1009060075F020800E75F010800575F0087D007E6C
:10091600007F003392D530D5031209DDEC33401049
:10092600EF33FFEE33FEED33FDEC33FCD5F0ED2275
:0E093600E5F0247EA2D513CC92E7CDCEFF22B1
:10094400E9D2E7C933E833F892D5EDD2E7CD33ECF9
:0709540033FC5002B2D52272
:10095B00EC30E7100FBF000C0EBE00080DBD0004FD
:10096B000BEB6014A2D5EB13FCED92E7FD2274FFA9
:10097B00FCFDFEFF22E480F8A2D574FF13FC7D8002
:03098B00E480EF16
:03000000020F4AA2
:0C0F4A00787FE4F6D8FD758120020AFED5
:10098E00BB010CE58229F582E5833AF583E022501E
:10099E0006E92582F8E622BBFE06E92582F8E22268
:0D09AE00E58229F582E5833AF583E4932282
:1009BB00F8BB010DE58229F582E5833AF583E8F072
:1009CB00225006E92582C8F622BBFE05E92582C81E
:0209DB00F22206
:0E09DD00C3E49FFFE49EFEE49DFDE49CFC222B
:00000001FF
