:030000000209F9F9
:0C09F900787FE4F6D8FD758131020A40D9
:100D5100C0F9A4B0999282F880908883C6A1868E4A
:100D61004079243019120278001008034621060E3A
:060DCB00041B4040000083
:0A0E3400E4FF120E29E4FF020E3E57
:1009370030001EC200120C0FAC07E412033F7BA16C
:100947007AA079A0783C1201168F0E8E0D8D0C8C33
:100957000BE4FFFE7DC87C42AB0EAA0DA90CA80BC9
:100967001201161203738E188F19AF1EAE1DAD1C20
:10097700AC1BAB0EAA0DA90CA80B1202BC5004D2DB
:100987008E801EAF1EAE1DAD1CAC1BAB0EAA0DA9F3
:100997000CA80B1202BC4009C28EC202E4F512F584
:1009A70013E50F14601E047048AF1EAE1DAD1CACDE
:1009B7001BAB0EAA0DA90CA80B1202BC6033403169
:1009C700750F0122AF1EAE1DAD1CAC1BAB0EAA0DE1
:1009D700A90CA80B1202BC5018E4F50FE517240167
:1009E700F517E43516F516E43515F515E43514F560
:0209F7001422C8
:100C6900300124C201E4FFFE7D207C41AB1EAA1D98
:100C7900A91CA81B1201168F2E8E2D8D2C8C2BE4EE
:080C8900FF120C40120E512273
:100BA000120DF0300204C2808002D280E517540199
:100BB000FFE4FEFDFCFBFAF9F8C31205256004C250
:100BC000818002D281C3E510940374809480400434
:0A0BD000C2828002D28253A01F22CD
:100850001200038F1A7E00EF640C70150511E5116C
:1008600064037002F511E51164027002D201E4F52F
:1008700010E511FB7A0064027010EF640D4E700AEF
:10088000F517F516F515F514F510EB64014A60033C
:10089000020911E51A6410703AAF1EAE1DAD1CAC12
:1008A0001BFBFAF9783F1200258F1E8E1D8D1C8CC4
:1008B0001BE4FFFE7DA07C40AB1EAA1DA91CA81B4B
:1008C0001202BC600B4009E4F51EF51DF51CF51B7A
:1008D000E4F510E51A64117038AF1EAE1DAD1CAC06
:1008E0001BFBFAF9783F1200218F1E8E1D8D1C8C88
:1008F0001BE4FFFEFDFCAB1EAA1DA91CA81B1202D7
:10090000BC500BE4F51EF51D751CA0751B40E4F5ED
:1009100010AF117E00EF6401600EAD1AED6410603F
:1009200005ED641170020510EF64024E6008E51ACF
:07093000640D7002051022A6
:10053600E51170777DC1FCFF120E487DFF7C007FC0
:1005460001120E487DFF7C007F02120E487DFF7C63
:10055600007F03120E487DFF7C007F04120E48AE1A
:1005660018AF197C007D641203F474612FF5827450
:100576000D3EF583E493FD7C007F05120E48AE1810
:10058600AF197C007D0A1203F47C007D0A1203F485
:1005960074512DF582740D3CF583E493FD7C007F48
:1005A60006120E48AE18AF19020661E51164016025
:1005B600030206737D8CFCFF120E487DFF7C007FD4
:1005C60001120E487DFF7C007F02120E487DFF7CE3
:1005D600007F03120E487DFF7C007F04120E48E464
:1005E600FFFE7DC87C42AB1EAA1DA91CA81B1201DA
:1005F600161203737C007D641203F474612FF58276
:10060600740D3EF583E493FD7C007F05120E48E4ED
:10061600FFFE7DC87C42AB1EAA1DA91CA81B1201A9
:10062600161203737C007D0A1203F47C007D0A1205
:1006360003F474512DF582740D3CF583E493FD7C2F
:10064600007F06120E48E4FFFE7DC87C42AB1EAA60
:100656001DA91CA81B1201161203737C007D0A1229
:1006660003F474512DF582740D3C020843E51164C0
:1006760002600302084F7D89FCFF120E487F3F7E11
:10068600427D0F7C00AB17AA16A915A814D3120534
:100696002540227B407A42790F7800AF17AE16AD1F
:1006A60015AC1412048574512FF582740D3EF58332
:1006B600E493FD80027DFF7C007F01120E487F9F40
:1006C6007E867D017C00AB17AA16A915A814D31245
:1006D6000525402B7BA07A8679017800AF17AE16E8
:1006E600AD15AC14120485E47B0AFAF9F8120485F8
:1006F60074512BF582740D3AF583E493FD80027DE7
:10070600FF7C007F02120E48E47F0F7E27FDFCABC4
:1007160017AA16A915A814D3120525402AE47B109A
:100726007A27F9F8AF17AE16AD15AC14120485E4A6
:100736007B0AFAF9F812048574512BF582740D3A86
:10074600F583E493FD80027DFF7C007F03120E4853
:10075600E47FE77E03FDFCAB17AA16A915A814D300
:10076600120525402AE47BE87A03F9F8AF17AE169E
:10077600AD15AC14120485E47B0AFAF9F812048567
:1007860074512BF582740D3AF583E493FD80027D56
:10079600FF7C007F04120E48E47F63FEFDFCAB176E
:1007A600AA16A915A814D31205254029E47B64FAD4
:1007B600F9F8AF17AE16AD15AC14120485E47B0A32
:1007C600FAF9F812048574512BF582740D3AF58303
:1007D600E493FD80027DFF7C007F05120E48E47FD6
:1007E60009FEFDFCAB17AA16A915A814D3120525F8
:1007F6004029E47B0AFAF9F8AF17AE16AD15AC142A
:10080600120485E47B0AFAF9F812048574512BF573
:1008160082740D3AF583E493FD80027DFF7C007FB0
:1008260006120E48E47B0AFAF9F8AF17AE16AD15B4
:10083600AC1412048574512BF582740D3AF583E4D9
:0A08460093FD7C007F07120E48228C
:03000B00020A8561
:100A8500C0E0C0F0C083C082C0D075D000C000C037
:0D0A950001C002C003C004C005C006C007B8
:100AA20005080509E50864027005F508120D71E5EF
:100AB2000964147005F509120B25050AE50A64326A
:040AC2007002D200EC
:100AC600D007D006D005D004D003D002D001D00084
:0B0AD600D0D0D082D083D0F0D0E0322E
:03001B00020D2DA6
:100D2D00C0E0C0D00513E51370020512D39488E519
:100D3D00129413400A751200751300D202C28ED0A0
:040D4D00D0D0E032F0
:100B6500120E34120DA1120DB6E4FF120AE1AC0704
:100B7500E412033FE4FBFA7920784112021F8F1E2D
:100B85008E1D8D1C8C1BC2AF120BA0D2AF120C692F
:0B0B950012093712085012053680EBE1
:0F0DF00053A01F7580FFE5A0541F4480F5A0227B
:0B0E2900120DF0EFF4528053A01F22C6
:0F0DFF0053A01FE4F580E5A0541F44A0F5A022E7
:0A0E3E00120DFFEF428053A01F22A7
:0D0DD1000822FFFFFFFFFFFFFFFF012100D1
:100C910053A01FEFFD7C006401700BF580E5A054AB
:100CA1001F44C0F5A022ED64024C700B7580FFE576
:080CB100A0541F44E0F5A0224D
:100CB900AB05AA04AE077F02120C911F120C91AF6B
:100CC90006A8077401088002C333D8FC42807F025A
:070CD900120C91EB52802286
:100D710074222521F8E6FD7C00AF21120CB9052172
:080D8100E52164087002F52170
:010D89002247
:090E4800AE0574222FF8A6062263
:100CE000E4FF43B03F43C014C2B220B5027F0D20E1
:100CF000B4027F1143B03F43C014C2B320B5027F9A
:060D00000C20B4027F107C
:010D060022CA
:100B250085302F120CE08F30AF2F7E00EF640D70F3
:100B350007E530700375310DEF64114E7007E53030
:100B45007003753111E52F640C7007E5307003757E
:0F0B5500310CE52F64107007E530700375311017
:010B6400226E
:05000300E4AF31F5310E
:0100080022D5
:100DA100438E805389F0758A20758CD1C28DD28C87
:050DB100D2A9D2AF221F
:100DB600438E4053890F758B20758DD1C28FC28E9D
:050DC600D2ABD2AF2208
:100C0F00120E0E7F90120BDA120DDF7F03120BDA2A
:100C1F00120DDF120E1D120E0E7F91120BDA120D36
:100C2F00DF120D078F2AD203120D8A120E1DAF2A63
:010C3F002292
:100C40008F2A120E0E7FA0120BDA120DDFAF2A12BE
:100C50000BDA120DDFAF2EAE2DAD2CAC2B120373C1
:090C6000120BDA120DDF020E1D69
:020AE1008F2A5A
:100AE300120E0E7FA0120BDA120DDFAF2A120BDAF1
:100AF300120DDF120E0E7FA1120BDA120DDF120D93
:100B030007AC07E412033F8F2E8E2D8D2C8C2BD236
:100B130003120D8A120E1DAF2EAE2DAD2CAC2B027F
:020B230003735A
:04000E00D2A07F05F8
:0800120000AE071FEE70F92299
:0F0E0E00D2A112000EC2A17F05120012C2A022B3
:0C0E1D00C2A112000ED2A17F050200123B
:100D8A00C2A0A20392A17F0512001212000EC2A0F5
:070D9A00D2A17F0502001247
:100DDF0012000EA2A19203C2A07F05120012A2035D
:010DEF0022E1
:020BDA00AD0765
:100BDC00E4FCECC39408748094805024C2A07F057C
:100BEC00120012ED30E704D2A18002C2A17F0512DF
:100BFC000012D2A0ED25E0FD7F051200120C80D270
:020C0C00C2A084
:010C0E0022C3
:100D0700E4FCECC3940874809480501712000EED35
:100D170025E0FD30A103430501C2A07F05120012A3
:050D27000C80DFAF05A8
:010D2C0022A4
:080E51007F3B7E5ADEFEDFFC50
:010E59002276
:10001E000203DFE86480F8E933E83360110460F02E
:10002E00ED33EC337009E8FCE9FDEAFEEBFF220448
:10003E0060DED3EB9FEA9EE99DE8C2E78CF0C2F743
:10004E0095F0400CE8CCF8E9CDF9EACEFAEBCFFB0F
:10005E001203AA85D0F05804700320D5B3E80470BB
:10006E00075002B2D50203E992D5EC0460F7E4CC56
:10007E00C0E0C398F8603B94186008400DD0E0FBD8
:10008E000203C1E4FBFAC9FC8028E830E406E4C9A7
:10009E00FBE4CAFCE830E305E4C9CACBFCE854072C
:1000AE006010F8C3E913F9EA13FAEB13FBEC13FC37
:1000BE00D8F130F52FC3E49CFCEF9BFFEE9AFEEDDA
:1000CE0099FDD0E0FBEF4E4D4C701222DB03020384
:1000DE00E6EC2CFCEF33FFEE33FEED33FDED30E7B7
:1000EE00EB0203C1EF2BFFEE3AFEED39FDD0E0FB44
:1000FE0050130BBB00030203E9ED13FDEE13FEEFED
:08010E0013FFEC13FC0203C116
:10011600EC4D6011E8497017ED33EC3304600DE4E3
:10012600FCFFFEFD22E933E8330470F80203DF1218
:1001360003AA58046009E4CC248150062850090219
:1001460003E92840030203E6C0E0EB4A7044B980A5
:1001560006D0E0FB0203D5EF4E701CBD8008EBFF16
:10016600EAFEE9FD80EBE98DF0A4FEE5F00201FF71
:10017600E9CDF9EAFEEBFFEF89F0A4FCE5F0CE89C4
:10018600F0A42EFFE435F0CD89F0A42DFEE435F081
:100196008067EF4E7005BD80D780C3EF8BF0A4ACAF
:1001A600F0EE8BF0A42CFCE435F0F8EF8AF0A42CEA
:1001B600E5F038FCE433CB8DF0A42CFCE5F03BF8FD
:1001C600EE8AF0A42CFCE5F038F8E433CF89F0A4ED
:1001D6002CFCE5F038CF3400CE89F0A42FFFE5F0F3
:1001E6003EFEE433C98DF0A42EFEE5F039CD8AF04B
:1001F600A42FFFE5F03EFEE43DFD33D0E0FB5007C3
:100206000BBB000F0203E9EC2CFCEF33FFEE33FED1
:06021600ED33FD0203C1FF
:10021C000203E9EC5D046005E8590470030203DF96
:10022C001203AA580460F6EC4860F2EC7004FDFE70
:10023C00FF22C860DB2481C85009C39860025006B5
:10024C000203E69850CAF582E9294B4A7005AB8245
:10025C000203D575F0007C1A7880C3EF9BEE9AED03
:10026C0099400DC3EF9BFFEE9AFEED99FDE842F02D
:10027C00DC23ACF0D0E0FFD0E0FED0E0FDAB822080
:10028C00E7101BEB60BAEC2CFCEF33FFEE33FEED0A
:10029C0033FD0203C1E803F830E705C0F075F00048
:1002AC00EF2FFFEE33FEED33FD40B830E7C280AAEE
:1002BC0074F8CC6480CCC86480C8F58204604FC3E9
:1002CC00EB9FF5F0EA9E42F0E99D42F0E89C45F088
:1002DC00603C501DE5825FFFE582D313CB5BCBF412
:1002EC002B5582FB50280ABA002409B9002008803B
:1002FC001DE5825BFBE582D313CF5FCFF4C3132FD5
:10030C005582FF50090EBE00050DBD00010CC3EB5C
:10031C009FF5F0EA9E42F0E99D42F0E89C45F060C2
:09032C0007CC4820E701B3EC22E4
:1003350075F020800E75F010800575F0087D007E43
:10034500007F003392D530D503120517EC334010EA
:10035500EF33FFEE33FEED33FDEC33FCD5F0ED224C
:0E036500E5F0247EA2D513CC92E7CDCEFF2288
:10037300EDD2E7CD33EC3392D524814006E4FFFE82
:10038300FDFC22FCE4CFCECDCC24E0501174FF80E1
:10039300EDC3CC13CCCD13CDCE13CECF13CF04707E
:0703A300F030D5DE02051762
:1003AA00E9D2E7C933E833F892D5EDD2E7CD33EC99
:0703BA0033FC5002B2D52212
:1003C100EC30E7100FBF000C0EBE00080DBD00049D
:1003D1000BEB6014A2D5EB13FCED92E7FD2274FF49
:1003E100FCFDFEFF22E480F8A2D574FF13FC7D80A2
:0303F100E480EFB6
:100A0500020B65E493A3F8E493A34003F68001F297
:100A150008DFF48029E493A3F85407240CC8C333F2
:100A2500C4540F4420C8834004F456800146F6DFC1
:100A3500E4800B0102040810204080900DCBE47E79
:100A4500019360BCA3FF543F30E509541FFEE493B6
:100A5500A360010ECF54C025E060A840B8E493A37D
:100A6500FAE493A3F8E493A3C8C582C8CAC583CAA8
:100A7500F0A3C8C582C8CAC583CADFE9DEE780BE60
:010DDE000014
:1003F400BC000BBE0029EF8DF084FFADF022E4CCED
:10040400F875F008EF2FFFEE33FEEC33FCEE9DECB5
:10041400984005FCEE9DFE0FD5F0E9E4CEFD22EDFB
:10042400F8F5F0EE8420D21CFEADF075F008EF2F45
:10043400FFED33FD4007985006D5F0F222C398FD36
:050444000FD5F0EA22D3
:1004490075F008758200EF2FFFEE33FECD33CDCC6A
:1004590033CCC58233C5829BED9AEC99E5829840ED
:100469000CF582EE9BFEED9AFDEC99FC0FD5F0D6CA
:10047900E4CEFBE4CDFAE4CCF9A88222B800C1B9F4
:100489000059BA002DEC8BF084CFCECDFCE5F0CB32
:10049900F97818EF2FFFEE33FEED33FDEC33FCEB6B
:1004A90033FB10D703994004EB99FB0FD8E5E4F926
:1004B900FA227818EF2FFFEE33FEED33FDEC33FC13
:1004C900C933C910D7059BE99A4007EC9BFCE99A07
:1004D900F90FD8E0E4C9FAE4CCFB2275F010EF2F4C
:1004E900FFEE33FEED33FDCC33CCC833C810D7074C
:1004F9009BEC9AE899400AED9BFDEC9AFCE899F887
:0E0509000FD5F0DAE4CDFBE4CCFAE4C8F92219
:0E051700C3E49FFFE49EFEE49DFDE49CFC22F5
:10052500EB9FF5F0EA9E42F0E99D42F0E89C45F02C
:0105350022A3
:00000001FF
