:030000000200DD1E
:0C00DD00787FE4F6D8FD75812002012434
:10037200C0F9A4B0999282F880908883C6A1868E33
:0503B000E4FF02035F01
:03000B000201EB04
:1001EB00C0E0C0F0C083C082C0D075D000C000C0DA
:0D01FB0001C002C003C004C005C006C0075B
:1002080005110512E511640A7004F511D201E51211
:0902180064027005F51212031CCA
:10022100D007D006D005D004D003D002D001D00031
:0B023100D0D0D082D083D0F0D0E032DB
:03001B000202DB03
:1002DB00C0E0C0D00514E51470020513D394E8E513
:1002EB00139403400AB200C28E751300751400D02C
:0402FB00D0D0E0324D
:10026600300124C20112000EE51A30E302D28EE5F7
:100276001930E30C300004E4FF80027F0102035FC3
:08028600C28EE4F513F5142209
:10001E001203B012033512034A120266AE13AF1466
:10002E007C277D1012019674722FF58274033EF5B3
:10003E0083E493FD7C00E4FF12039FAE13AF147CA8
:10004E00037DE81201967C007D0A12019674722DD2
:10005E00F58274033CF583E493FD7C007F0112036B
:10006E009FAE13AF147C007D641201967C007D0A56
:10007E0012019674722DF58274033CF583E493FDA0
:10008E007C007F0212039FAE13AF147C007D0A1218
:10009E0001967C007D0A12019674722DF58274030E
:1000AE003CF583E493FD7C007F0312039FAE13AFF8
:1000BE00147C007D0A12019674722DF58274033C35
:0F00CE00F583E493FD7C007F0412039F0200275B
:0B000E00E5B0F4FF65195FF51A8F19CB
:0100190022C4
:10033500438E805389F0758A20758CD1C28DD28CFD
:05034500D2A9D2AF2295
:10034A00438E4053890F758B20758DD1C28FC28E13
:05035A00D2ABD2AF227E
:0F03820053A01F7580FFE5A0541F4480F5A022F3
:10035F00120382E5A0541F4480F5A0EFF45280539E
:03036F00A01F22AA
:1002FF00759850538EBF538EFE53890F758BE875CB
:0D030F008DFFC2ABD28EC298D2ACD2AF220D
:080003008F993099FDC299228A
:0602B6008B168A1789185F
:1002BC00E4FEAB16AA17A9188E8275830012016989
:0E02CC00FFFD3395E04D60061200030E80E446
:0102DA002201
:0803A8008F993099FDC29922E2
:0D0391000809FFFFFFFFFFFFFFFF0108004D
:10028E0053A01FEFFD7C006401700BF580E5A054B8
:10029E001F44C0F5A022ED64024C700B7580FFE583
:0802AE00A0541F44E0F5A0225A
:10023C00AB05AA04AE077F0212028E1F12028EAF0C
:10024C0006A8077401088002C333D8FC42807F02E1
:0A025C0012028EEB528053A01F2205
:10031C0074092508F8E6FD7C00AF0812023C0508BC
:08032C00E50864087002F50801
:0103340022A6
:09039F00AE0574092FF8A6062230
:1000E90002001EE493A3F8E493A34003F68001F20F
:1000F90008DFF48029E493A3F85407240CC8C33318
:10010900C4540F4420C8834004F456800146F6DFE6
:10011900E4800B0102040810204080900391E47EE2
:10012900019360BCA3FF543F30E509541FFEE493DB
:10013900A360010ECF54C025E060A840B8E493A3A2
:10014900FAE493A3F8E493A3C8C582C8CAC583CACD
:10015900F0A3C8C582C8CAC583CADFE9DEE780BE85
:01039E00005E
:10016900BB010CE58229F582E5833AF583E022504B
:1001790006E92582F8E622BBFE06E92582F8E22295
:0D018900E58229F582E5833AF583E49322AF
:10019600BC000BBE0029EF8DF084FFADF022E4CC4D
:1001A600F875F008EF2FFFEE33FEEC33FCEE9DEC16
:1001B600984005FCEE9DFE0FD5F0E9E4CEFD22ED5C
:1001C600F8F5F0EE8420D21CFEADF075F008EF2FA6
:1001D600FFED33FD4007985006D5F0F222C398FD97
:0501E6000FD5F0EA2234
:00000001FF
