:100E2500C0F9A4B0999282F88090407924301912C3
:040E3500027800102F
:060E1100010D01010B04BC
:0E0E8600E4FF120EA1E4FF120EAC53A01F22D7
:100E390030010DC201120E94120C851209448F0F54
:010E49002286
:100BD500120ED18F117E00EF6404700B050DE50D2B
:100BE50064047003750D01EF64054E7012743C25A5
:100BF5000CF50C0510E51064037004F50CF510E513
:100C05001164067002F50CE51164077002B200224A
:1009D30020006F7DBF7C00E4FF120EB6E50D900E84
:1009E3002593FD7C007F01120EB67DBF7C007F0244
:1009F300120EB67DFF7C007F03120EB6900E25E427
:100A030093FD7C007F04120EB6E50C75F0648490B0
:100A13000E2593FD7C007F05120EB6E50C75F00ADA
:100A23008475F00A84E5F0900E2593FD7C007F0623
:100A3300120EB6E50C75F00A84E5F0900E2593FDD1
:100A4300805D3000617DBF7C00E4FF120EB6E50BD4
:100A5300900E2593FD7C007F01120EB67DBF7C00B6
:100A63007F02120EB67DFF7C007F03120EB67DFF60
:100A73007C007F04120EB6E50F75F00A84900E25F4
:100A830093FD7C007F05120EB6E50F75F00A84E531
:100A9300F0900E2593FD7C007F06120EB67DC67C7A
:070AA300007F07120EB622CE
:100C5500E50D64017008E50C60047F01801EE50D5B
:100C650064027008E50C60047F028010E50D6403E2
:100C75007008E50C60047F048002E4FF120EA122D7
:100D9200AF0D7E00EF64017004750E0222EF640253
:100DA2004E7004750E0322EF64034E7003750E0736
:010DB200221E
:03000B00020B9451
:100B9400C0E0C0F0C0D0E50C60180514E514700284
:100BA4000513B4100DE513B42708150C751300755F
:100BB40014000512E512C3950E5004D2B48002C28B
:100BC400B4E51275F00A8485F012D0D0D0F0D0E0EC
:010BD40032EE
:03001B00020B369F
:100B3600C0E0C0F0C083C082C0D075D000C000C085
:0D0B460001C002C003C004C005C006C00706
:100B530005080509E50864027005F508120DB3E5FB
:100B630009640A7005F509120C15050AE50A64649F
:060B73007004F50AD20136
:100B7900D007D006D005D004D003D002D001D000D0
:0B0B8900D0D0D082D083D0F0D0E0327A
:100D4B00120E86120DE7120DFC120E94120E77C2C4
:100D5B00AF120C55D2AF120E39120BD51209D3129A
:040D6B000D9280EB7A
:03000000020AAA47
:0C0AAA00787FE4F6D8FD758123020AF184
:0F0E4A0053A01F7580FFE5A0541F4480F5A02220
:0B0EA100120E4AEFF4528053A01F22F3
:0D0E17000816FFFFFFFFFFFFFFFF011500A2
:100CB00053A01FEFFD7C006401700BF580E5A0548C
:100CC0001F44C0F5A022ED64024C700B7580FFE557
:080CD000A0541F44E0F5A0222E
:100D2600AE05AB077F02120CB01F120CB0AF03A8C2
:100D3600077401088002C333D8FC42807F02120C7C
:050D4600B0EE52802216
:100DB30074162515F8E6FDAF15120D260515C3E5C6
:0C0DC300159408748094804003E4F5153A
:010DCF002201
:090EB600AE0574162FF8A6062201
:0D0E9400120CFF7FCC120CD87F44020CD84A
:100C8500120CFF7FCC120CD87FBE120CD8120D6F40
:100C95008F1E120D6FEFFEE51EFFFDAC06EC12096F
:0B0CA5000BE4FBFA7980783D020800A8
:100DD000E4FF20B0027F0720B1027F0620B2027F2D
:060DE0000520B3027F04B0
:010DE60022EA
:100C1500852122120DD08F21AF227E00EF6407704F
:100C250007E5217003752307EF64064E7007E5217C
:100C35007003752306E52264057007E521700375C9
:0F0C45002305E52264047007E52170037523047D
:010C5400227D
:050ED100E4AF23F5234E
:010ED60022F9
:100DE700538E7F5389F0758A9C758CFFC28DD28C88
:050DF700D2A9D2AF22D9
:100DFC00438E4053890F758B20758DD1C28FD28E47
:050E0C00D2ABD2AF22C1
:0F0E590053A01FE4F580E5A0541F44A0F5A0228C
:0A0EAC00120E59EF428053A01F22DE
:040E68007F327E0057
:0B0E6C00EF1FAC0670011E4C70F62258
:020CD800AD0766
:100CDA00E4FBEBC39408748094805012C294ED1321
:100CEA009294120E68D294EDC313FD0B80E47F3206
:050CFA007E00020E6CFB
:100D6F00E4FBEBC39408748094805014C294EDC3D9
:100D7F0013FDD294309403430580120E680B80E26A
:020D8F00AF05AE
:010D9100223F
:100CFF00C202D2947F787E00120E6CC2947F207E47
:100D0F0003120E6CD2947F647E00120E6CA294922A
:060D1F0002120E68A202A0
:010D250022AB
:0E0E770000007F2E7E997DF5DDFEDEFCDFFAA9
:010E8500224A
:080EBF007FEA7E73DEFEDFFC1A
:010EC7002208
:080EC8007F0C7EA9DEFEDFFCB9
:010ED00022FF
:10080000EC4D6011E8497017ED33EC3304600DE4F2
:10081000FCFFFEFD22E933E8330470F80209B01250
:10082000097B58046009E4CC248150062850090251
:1008300009BA2840030209B7C0E0EB4A7044B98006
:1008400006D0E0FB0209A6EF4E701CBD8008EBFF4E
:10085000EAFEE9FD80EBE98DF0A4FEE5F00208E98F
:10086000E9CDF9EAFEEBFFEF89F0A4FCE5F0CE89D3
:10087000F0A42EFFE435F0CD89F0A42DFEE435F090
:100880008067EF4E7005BD80D780C3EF8BF0A4ACBE
:10089000F0EE8BF0A42CFCE435F0F8EF8AF0A42CF9
:1008A000E5F038FCE433CB8DF0A42CFCE5F03BF80C
:1008B000EE8AF0A42CFCE5F038F8E433CF89F0A4FC
:1008C0002CFCE5F038CF3400CE89F0A42FFFE5F002
:1008D0003EFEE433C98DF0A42EFEE5F039CD8AF05A
:1008E000A42FFFE5F03EFEE43DFD33D0E0FB5007D2
:1008F0000BBB000F0209BAEC2CFCEF33FFEE33FE0A
:06090000ED33FD02099237
:1009060075F020800E75F010800575F0087D007E6C
:10091600007F003392D530D5031209C5EC33401061
:10092600EF33FFEE33FEED33FDEC33FCD5F0ED2275
:0E093600E5F0247EA2D513CC92E7CDCEFF22B1
:10094400EDD2E7CD33EC3392D524814006E4FFFEAB
:10095400FDFC22FCE4CFCECDCC24E0501174FF800A
:10096400EDC3CC13CCCD13CDCE13CECF13CF0470A7
:07097400F030D5DE0209C5D9
:10097B00E9D2E7C933E833F892D5EDD2E7CD33ECC2
:07098B0033FC5002B2D5223B
:10099200EC30E7100FBF000C0EBE00080DBD0004C6
:1009A2000BEB6014A2D5EB13FCED92E7FD2274FF72
:1009B200FCFDFEFF22E480F8A2D574FF13FC7D80CB
:0309C200E480EFDF
:100AB600020D4BE493A3F8E493A34003F68001F2FE
:100AC60008DFF48029E493A3F85407240CC8C33341
:100AD600C4540F4420C8834004F456800146F6DF10
:100AE600E4800B0102040810204080900E11E47E81
:100AF600019360BCA3FF543F30E509541FFEE49305
:100B0600A360010ECF54C025E060A840B8E493A3CB
:100B1600FAE493A3F8E493A3C8C582C8CAC583CAF6
:100B2600F0A3C8C582C8CAC583CADFE9DEE780BEAE
:010E240000CD
:0E09C500C3E49FFFE49EFEE49DFDE49CFC2243
:00000001FF
