:03000000020800F3
:0C080000787FE4F6D8FD758108020847F7
:10095000C0F9A4B0999282F880908880C6C0868E33
:02096000BF7F57
:0309620001080188
:1008D100EF24FB601314601914601F24037023E5D7
:1008E100A0541F4480F5A022E5A0541F44A0F5A008
:1008F10022E5A0541F44C0F5A022E5A0541F44E006
:03090100F5A0223C
:10090400AE077580FF7F061208D1AF05A8077401F2
:10091400088002C333D8FCF5807F071208D18E808B
:0109240022B0
:0B092500E493FF0D1209047FF47E0133
:0B093000EF1FAC0670011E4C70F62299
:10088C00900952E493FFE4FD1209299009501209D2
:10089C0025A31209259009581209259009601209FF
:1008AC0025120925E50875F00A84900950120926CD
:1008BC00E50875F00A84E5F093FF0D1209047FF446
:0508CC007E010209306D
:10093B0012088C0508D3E508940C7480948040F061
:05094B0075080180EBBE
:10080C0002093BE493A3F8E493A34003F68001F2BE
:10081C0008DFF48029E493A3F85407240CC8C333ED
:10082C00C4540F4420C8834004F456800146F6DFBC
:10083C00E4800B0102040810204080900962E47EE1
:10084C00019360BCA3FF543F30E509541FFEE493B1
:10085C00A360010ECF54C025E060A840B8E493A378
:10086C00FAE493A3F8E493A3C8C582C8CAC583CAA3
:10087C00F0A3C8C582C8CAC583CADFE9DEE780BE5B
:010965000091
:00000001FF
