:030000000205D422
:0C05D400787FE4F6D8FD75815002061B0C
:10080C003F065B4F666D7D077F6F01020408102069
:02081C0040801A
:10078100042E01051E3C0222000002240000022664
:0A079100000002280000022A000008
:0E081E0000007F057E347DC3DDFEDEFCDFFAC8
:01082C0022A9
:10038800E4F512C2B0C2B1C2B2C2B3D2B4D2B5D2CD
:10039800C2D2C420C40375147020C2037514B020DF
:1003A800B5037514D020B4037514E030B40C30B51F
:1003B8000930C20630C4037514F0D2B0D2B1D2B23B
:1003C800D2B3C2B4C2B5C2C2C2C420B00375150E3E
:1003D80020B10375150D20B20375150B20B30375F5
:1003E800150730B00C30B10930B20630B3037515BB
:1003F8000FE5144515F513E52114601B147003026D
:1004080004B3240260030204BBE513F4700302047E
:10041800BB7521010204BBE521B4FF030204B8E562
:100428001312021504607704657B046A7D046F7EED
:100438000474B70479BB047EBD0483BE0488D70462
:100448008DDB0492DD0497DE049CE704A1EB04A68F
:10045800ED04ABEE000004AE751204804975120578
:100468008044751206803F751207803A751208801D
:1004780035751209803075120A802B75120B80268B
:1004880075120C802175120D801C75120E8017755F
:10049800120F8012751210800D75121180087512D6
:1004A8001280037512137521028008E513B4FF0347
:0504B800E4F521AF1284
:0104BD00221C
:1007D000438E805389F0758ACD758CD4C28DD28CAE
:0507E000D2A9D2AF22F6
:10023B007511FF75A0A0E4F580F5A075A080758001
:10024B00FFF5A07B377D3B7F171206601207D07F2F
:10025B00811207068F337F831207068F377F851234
:10026B0007068F38E538C4540F90080C93F541E519
:10027B0038540F93F542E537C4540F93F544E537E3
:10028B00540F93F545E533C4540F93F547E53354B9
:10029B000F93F548E4F539F53AF53BF53CF53D752B
:1002AB003E40742E252CF8E6FF75F00A8493F53F3B
:1002BB00EF75F00A84E5F093F540300354C2031256
:1002CB0003888F11E51124FB601A14602814603C1D
:1002DB002403703DE5347039052CE52C6404703132
:1002EB00F52C802DE5347029753401742E252CF8EE
:1002FB00E6F532801CC20175A0807580FFE4F5A085
:10030B00052DE52DB40A0AE4F52D8005E4F534F549
:10031B0010300223C202E510C3940A5015C2A91271
:10032B0006C612015274352510F8A607D2A905107E
:10033B008005753402D201E5346402600302025A6F
:10034B00754940E52D75F00A8490080C93F54AE544
:10035B002D75F00A84E5F093F54BE4F54CF54D75EE
:10036B004E407435252DF8E6FF75F00A8493F54F52
:0D037B00EF75F00A84E5F093F55002025A88
:03000B000204BE2E
:0D04BE00C0E0C0F0C083C082C0D075D0087F
:1004CB000525E525700205240527E527700205267D
:1004DB000529E52970020528E525640A45247006DF
:1004EB00F524F525D203E52764034526706EF52622
:1004FB00F52775A0C0F580F5A0E534700F75A0E069
:10050B0074392523F8E6F4F58075A000E534B401C1
:10051B000F75A0E074412523F8E6F4F58075A00073
:10052B00E534B4020F75A0E074492523F8E6F4F521
:10053B008075A00075A0C074162523F5827408354C
:10054B0022F583E493F58075A0000523E523700263
:10055B000522640845227004F522F523E52964E899
:10056B007004E5286403702EF528F529B2003000DD
:10057B00087543407546408006754300754600304C
:10058B00011430000875A0807580FE800675A08070
:10059B007580FF75A000E534B40123052BE52B70A6
:1005AB0002052AAF327E007C037DE81201F5EFB520
:0E05BB002B0CEEB52A08752A00752B00D20213
:0B05C900D0D0D082D083D0F0D0E03240
:1007F900E4FEC297EF1392A3EFC313FFD2970EBE85
:0208090008F0F5
:01080B0022CA
:1007E500C29300C29700D293001207F9AF05120712
:0407F500F9C2932290
:10070600E4FDC29300C29700D293001207F9E4FFFA
:10071600C297EDC313FD30A303430580D2970FBFE5
:1007260008EEC29300C293C29700D29700C2A300FC
:05073600D2A300AF0595
:01073B00229B
:10066000AC07AA05E4FD7F8E1207E5EB75F00A12D0
:1006700001D3C454F0FFEB75F00A1201D3AEF0EFD2
:100680002EFD7F801207E5EA75F00A1201D3C454EB
:10069000F0FFEA75F00A1201D3AEF0EF2EFD7F8273
:1006A0001207E5EC75F00A1201D3C454F0FFEC75A3
:1006B000F00A1201D3AEF0EF2EFD7F841207E57D24
:0606C000807F8E0207E5B9
:04079C007F057E0057
:1007A000EF1FAA0670011E4A600BE4FDEDC3940C16
:0507B00050EE0D80F782
:0107B5002221
:02076300A907E4
:10076500E4FBC294E913929412079CD294E9C31353
:0C077500F90BBB08ED7F057E000207A019
:1007B600E4FBC294ECC313FCD2943094034304804C
:0907C60012079C0BBB08EBAF0409
:0107CF002207
:10073C00C204D2947F0C7E001207A0C2947F507E1C
:10074C00001207A0D2947F0A7E001207A0A29492F6
:06075C000412079CA20438
:010762002274
:1006C60012073C7FCC1207637F441207637FC87E04
:1006D600001207A012073C7FCC1207637FBE1207E9
:1006E600631207B6A9071207B6EFFEE9FFE4AD07E6
:0F06F600AC06120119E4FBFA7980783D12000E70
:0107050022D1
:10000E00EC4D6011E8497017ED33EC3304600DE4EC
:10001E00FCFFFEFD22E933E8330470F80201BE1244
:10002E00018958046009E4CC248150062850090245
:10003E0001C82840030201C5C0E0EB4A7044B980F4
:10004E0006D0E0FB0201B4EF4E701CBD8008EBFF42
:10005E00EAFEE9FD80EBE98DF0A4FEE5F00200F783
:10006E00E9CDF9EAFEEBFFEF89F0A4FCE5F0CE89CD
:10007E00F0A42EFFE435F0CD89F0A42DFEE435F08A
:10008E008067EF4E7005BD80D780C3EF8BF0A4ACB8
:10009E00F0EE8BF0A42CFCE435F0F8EF8AF0A42CF3
:1000AE00E5F038FCE433CB8DF0A42CFCE5F03BF806
:1000BE00EE8AF0A42CFCE5F038F8E433CF89F0A4F6
:1000CE002CFCE5F038CF3400CE89F0A42FFFE5F0FC
:1000DE003EFEE433C98DF0A42EFEE5F039CD8AF054
:1000EE00A42FFFE5F03EFEE43DFD33D0E0FB5007CC
:1000FE000BBB000F0201C8EC2CFCEF33FFEE33FEFE
:06010E00ED33FD0201A02B
:1001140075F020800E75F010800575F0087D007E66
:10012400007F003392D530D503120207EC33401020
:10013400EF33FFEE33FEED33FDEC33FCD5F0ED226F
:0E014400E5F0247EA2D513CC92E7CDCEFF22AB
:10015200EDD2E7CD33EC3392D524814006E4FFFEA5
:10016200FDFC22FCE4CFCECDCC24E0501174FF8004
:10017200EDC3CC13CCCD13CDCE13CECF13CF0470A1
:07018200F030D5DE02020798
:10018900E9D2E7C933E833F892D5EDD2E7CD33ECBC
:0701990033FC5002B2D52235
:1001A000EC30E7100FBF000C0EBE00080DBD0004C0
:1001B0000BEB6014A2D5EB13FCED92E7FD2274FF6C
:1001C000FCFDFEFF22E480F8A2D574FF13FC7D80C5
:0301D000E480EFD9
:1005E00002023BE493A3F8E493A34003F68001F2F4
:1005F00008DFF48029E493A3F85407240CC8C3331C
:10060000C4540F4420C8834004F456800146F6DFEA
:10061000E4800B0102040810204080900781E47EF2
:10062000019360BCA3FF543F30E509541FFEE493DF
:10063000A360010ECF54C025E060A840B8E493A3A6
:10064000FAE493A3F8E493A3C8C582C8CAC583CAD1
:10065000F0A3C8C582C8CAC583CADFE9DEE780BE89
:01079B00005D
:1001D300C2D530F707B2D563F0FF05F030E70CB2B4
:1001E300D5F4048463F0FF05F080018430D502F474
:0201F3000422E4
:1001F500EF8DF0A4A8F0CF8CF0A428CE8DF0A42E1E
:02020500FE22D7
:0E020700C3E49FFFE49EFEE49DFDE49CFC2208
:10021500D083D082F8E4937012740193700DA3A378
:1002250093F8740193F5828883E47374029368608C
:06023500EFA3A3A380DF8C
:00000001FF
