:030000000208D320
:0C08D300787FE4F6D8FD7581070208DF8D
:1008C100C0F9A4B0999282F880908880C6C0868EC3
:0208D100BF7FE7
:0408A8007F607EEA05
:1008AC00EF1FAC0670011E4C70F6EF1FAC0670010A
:0508BC001E4C70F62245
:10085700EF24FB601314601914601F24037023E551
:10086700A0541F4480F5A022E5A0541F44A0F5A082
:1008770022E5A0541F44C0F5A022E5A0541F44E080
:03088700F5A022B7
:10088A00AE077F06120857AF05A807740108800251
:0E089A00C333D8FCF5807F071208578E8022EA
:10080000E4FAEAC39408748094805022E4FBEBC3BA
:10081000940A748094805013EB9008C193FFEAFD12
:100820007C0012088A1208A80B80E30A80D4E4FB3B
:10083000EBC3941074809480501C7F061208577587
:1008400080FF0F120857EB9008C193F5801208A89B
:060850001208A80B80DA7B
:01085600227F
:0508DF0012080080FB7F
:00000001FF
