:0300000002048077
:0C048000787FE4F6D8FD7581290204C7DE
:1007E000C0F9A4B0999282F880904079243019120F
:0407F000027800107B
:0607CC0001141E011314CC
:0E084E00E4FF120882E4FF12088D53A01F225F
:1005910030000DC2001208691206551201628F1651
:1005A100E516C39513500BE51495134005E4F50AC0
:1005B1008018E516D395145016E516C39513400F10
:1005C100E514D395134008750A01C203C20222E55E
:1005D10016D39514400FE514D395134008750A02FC
:1005E100D203C20222E514D395135009750A0AC237
:0605F10003C201D2022248
:10050C001208A9EF14F515FF7E00640A7040AD09BE
:10051C00FCED70028030ED64014C7032E50F601F11
:10052C00E50B75F00AA4250CF514E50D75F00AA47D
:10053C00250EF513E4F50FF50EF50DF50CF50BE5A1
:10054C0014D3951350057509018003E4F509E509E9
:10055C0064017030C3EF940AEE648094805015C32C
:10056C00E50F940474809480500AAF0F050F740B40
:10057C002FF8A615E515640B700AF50EF50DF50CA4
:05058C00F50BF50F2244
:1001F100E509703B7DBFFCFF120897E50A9007E017
:1002010093FD7C007F011208977DBF7C007F021265
:100211000897E51675F00A849007E093FD7C007F4E
:1002210006120897E51675F00A84E5F00202E0E58A
:1002310009640160030203127DBFFCFF1208977D70
:10024100BF7C007F05120897E50F6401700EE50B76
:100251009007E093FD7C007F0102030FE50F64022C
:10026100701CE50B9007E093FD7C007F011208975D
:10027100E50C9007E093FD7C007F0202030FE50F80
:1002810064037029E50B9007E093FD7C007F011268
:100291000897E50C9007E093FD7C007F0212089718
:1002A100E50D9007E093FD7C007F068061E50F641A
:1002B100047037E50B9007E093FD7C007F01120885
:1002C10097E50C9007E093FD7C007F02120897E50B
:1002D1000D9007E093FD7C007F06120897E50E90D4
:1002E10007E093FD7C007F078024E50F70237DFFED
:1002F100FC7F011208977DFF7C007F021208977D29
:10030100FF7C007F061208977DFF7C007F071208A3
:02031100972231
:10079D003001072002047F01800C20010730020484
:0A07AD007F028002E4FF120882229E
:0D085C003003047F108002E4FF12088D229B
:03001B00020313CA
:10031300C0E0C0F0C083C082C0D075D000C000C0B0
:0D03230001C002C003C004C005C006C00731
:1003300005100511E51064027005F510120780E53F
:100340001164147005F5111203CFAF0A7E00EF702F
:10035000190518E51870020517C39420E5179403D2
:100360004008751700751800B201EF64014E70194E
:100370000518E51870020517C39490E5179401401D
:1003800008751700751800B201EF64024E70190568
:1003900018E51870020517C394C8E51794004008C3
:1003A000751700751800B2010508E508646470044B
:0403B000F508D2007A
:1003B400D007D006D005D004D003D002D001D0009D
:0B03C400D0D0D082D083D0F0D0E03247
:1007410012084E1207B7120869120812C2AF120737
:100751009D12085CD2AF1205911201F112050C80B5
:01076100EBAC
:0F07F40053A01F7580FFE5A0541F4480F5A0227D
:0B0882001207F4EFF4528053A01F2275
:1005F700E4FF43B03F43C014C2B020C4010F20C280
:10060700027F0220B5027F0343B03F43C014C2B14B
:1006170020C4027F0420C2027F0520B5027F064363
:10062700B03F43C014C2B220C4027F0720C2027F7A
:100637000820B5027F0943B03F43C014C2B320C4AA
:0D064700027F0A20C2027F0B20B5027F0C4B
:010654002283
:1003CF0085191A1205F78F19AF1A7E00EF640170A5
:1003DF0007E5197003751B01EF64024E7007E519ED
:1003EF007003751B02E51A64037007E51970037536
:1003FF001B03AF1A7E00EF64047007E519700375D5
:10040F001B04EF64054E7007E5197003751B05E5B6
:10041F001A64067007E5197003751B06AF1A7E0084
:10042F00EF64077007E5197003751B07EF64084E3B
:10043F007007E5197003751B08E51A64097007E565
:10044F00197003751B09AF1A7E00EF640A7007E578
:10045F00197003751B0AEF640B4E7007E5197003D3
:10046F00751B0BE51A640C7007E5197003751B0CEF
:01047F00225A
:0508A900E4AF1BF51B8C
:0108AE002227
:0D07D2000822FFFFFFFFFFFFFFFF012100D6
:1006800053A01FEFFD7C006401700BF580E5A054C2
:100690001F44C0F5A022ED64024C700B7580FFE58D
:0806A000A0541F44E0F5A02264
:1006A800AE05AB077F021206801F120680AF03A8B3
:1006B800077401088002C333D8FC42807F02120607
:0806C80080EE528053A01F22B6
:1007800074222521F8E6FDAF211206A80521C3E554
:0C079000219408748094804003E4F5215B
:01079C00223A
:09089700AE0574222FF8A606221A
:0D0869001206F77FCC1206D07F440206D0A5
:100655001206F77FCC1206D07FBE1206D012071EF7
:100665008F1C12071EEFFEE51CFFFDAC06EC120108
:0B06750029E4FBFA7980783D02001EAA
:10000300538E7F5389F0758AF0758CD8C28DD28C4C
:05001300D2A9D2AF22CA
:1007B700438E4053890F758B20758DD1C28FD28E92
:0507C700D2ABD2AF220D
:0F08030053A01FE4F580E5A0541F44A0F5A022E8
:0A088D00120803EF428053A01F225F
:040762007F057E0091
:10076600EF1FAA0670011E4A600FE4FDEDC3940C4C
:090776007480948050EA0D80F3B8
:01077F002257
:0206D000A90778
:1006D200E4FBEBC39408748094805012C294E91333
:1006E2009294120762D294E9C313F90B80E47F0556
:0506F2007E0002076616
:10071E00E4FBEBC39408748094805014C294ECC331
:10072E0013FCD2943094034304801207620B80E2D0
:02073E00AF0406
:010740002296
:1006F700C204D2947F0C7E00120766C2947F507E9C
:1007070000120766D2947F0A7E00120766A29492AF
:0607170004120762A204B7
:01071D0022B9
:0B0876000000007F0B7EBEDEFEDFFCFA
:010881002254
:0808A0007FD87E25DEFEDFFC9F
:0108A800222D
:0E08120000007F237E337DB6DDFEDEFCDFFAC4
:0108200022B5
:0E08210000007F057E347DC3DDFEDEFCDFFAC5
:01082F0022A6
:0E08300000007F037E1A7DDFDDFEDEFCDFFAB6
:01083E002297
:0E083F0000007F027EAF7D4BDDFEDEFCDFFAA7
:01084D002288
:10001E00EC4D6011E8497017ED33EC3304600DE4DC
:10002E00FCFFFEFD22E933E8330470F80201CE1224
:10003E00019958046009E4CC248150062850090225
:10004E0001D82840030201D5C0E0EB4A7044B980C4
:10005E0006D0E0FB0201C4EF4E701CBD8008EBFF22
:10006E00EAFEE9FD80EBE98DF0A4FEE5F002010762
:10007E00E9CDF9EAFEEBFFEF89F0A4FCE5F0CE89BD
:10008E00F0A42EFFE435F0CD89F0A42DFEE435F07A
:10009E008067EF4E7005BD80D780C3EF8BF0A4ACA8
:1000AE00F0EE8BF0A42CFCE435F0F8EF8AF0A42CE3
:1000BE00E5F038FCE433CB8DF0A42CFCE5F03BF8F6
:1000CE00EE8AF0A42CFCE5F038F8E433CF89F0A4E6
:1000DE002CFCE5F038CF3400CE89F0A42FFFE5F0EC
:1000EE003EFEE433C98DF0A42EFEE5F039CD8AF044
:1000FE00A42FFFE5F03EFEE43DFD33D0E0FB5007BC
:10010E000BBB000F0201D8EC2CFCEF33FFEE33FEDD
:06011E00ED33FD0201B00B
:1001240075F020800E75F010800575F0087D007E56
:10013400007F003392D530D5031201E3EC33401035
:10014400EF33FFEE33FEED33FDEC33FCD5F0ED225F
:0E015400E5F0247EA2D513CC92E7CDCEFF229B
:10016200EDD2E7CD33EC3392D524814006E4FFFE95
:10017200FDFC22FCE4CFCECDCC24E0501174FF80F4
:10018200EDC3CC13CCCD13CDCE13CECF13CF047091
:07019200F030D5DE0201E3AD
:10019900E9D2E7C933E833F892D5EDD2E7CD33ECAC
:0701A90033FC5002B2D52225
:1001B000EC30E7100FBF000C0EBE00080DBD0004B0
:1001C0000BEB6014A2D5EB13FCED92E7FD2274FF5C
:1001D000FCFDFEFF22E480F8A2D574FF13FC7D80B5
:0301E000E480EFC9
:10048C00020741E493A3F8E493A34003F68001F23E
:10049C0008DFF48029E493A3F85407240CC8C33371
:1004AC00C4540F4420C8834004F456800146F6DF40
:1004BC00E4800B01020408102040809007CCE47EFD
:1004CC00019360BCA3FF543F30E509541FFEE49335
:1004DC00A360010ECF54C025E060A840B8E493A3FC
:1004EC00FAE493A3F8E493A3C8C582C8CAC583CA27
:1004FC00F0A3C8C582C8CAC583CADFE9DEE780BEDF
:0107DF000019
:0E01E300C3E49FFFE49EFEE49DFDE49CFC222D
:00000001FF
