:030000000200CA31
:0C00CA00787FE4F6D8FD75810D0200B3CC
:0A00D600C0F9A4B0999282F880905E
:1000B300438902758C06758A06D2AFD2A9D28CAF5A
:0700C3000812000E80F92273
:03000B000200747C
:10007400C0E0C0D0050BE50B7002050A0509E509CF
:10008400B4100D750900050CE50CB40203750C00E1
:10009400E50BB4A015E50AB40F10750A00750B0042
:0F00A4000508E508B43C03750800D0D0D0E03261
:10000E008F0DE50C7031E50D75F00A84FFEF60275A
:10001E007580FF43A0E053A01FE50D75F00A84FF25
:10002E00EF9000D693FF8F8043A0E053A01F758002
:10003E004043A0C053A03FE50C640170287580FFBB
:10004E0043A0E053A01FE50D75F00A84AFF0EF90CA
:10005E0000D693FF8F8043A0E053A01F758080438E
:06006E00A0C053A03F22D8
:00000001FF
