:03000000021809DA
:0C180900787FE4F6D8FD75817F0218504E
:101908005400543A252E3266A1E3430D0A004400E0
:10191800443A2564636D0D0A00520041443A252E6D
:101928003266560D0A004572726F720D0A00C0F9D0
:10193800A4B0999282F880908883C6A1868E407957
:0E194800243019120278001008034621060E02
:101CE800034650592001541E01512301391E016237
:071CF80023015F00015E63A0
:101C7B00121E2E121E3D7B007A0079461219561247
:101C8B00000E121E1E121D9D121E6AE4FF121B0A6D
:051C9B008F63021E4CE6
:1012970030100BC2107B007A007946121A64300EA8
:1012A70010C20E121E6A121B3D8F5D8E5C8D5B8C09
:1012B7005A200C03021398C20CC213121A9DAC07D2
:1012C700E4120347E4FBFA797F7843120227E4FB31
:1012D700FA79A0784012011E8F388E378D368C35FB
:1012E700E4FFFEFD7C40AB38AA37A936A8351202C9
:1012F700C4600B4009200706D205D207801EE4FF11
:10130700FEFD7C40AB38AA37A936A8351202C45077
:101317000B300708C205C207D20AD200300B028081
:101327006BD3E553940AE552940050047F33805EF3
:10133700D3E553940AE55294004046E5539450E5AB
:10134700529400503CE55324F6FDE55234FFFCE48B
:101357001203427BA17A0E796A783D12011EE4FBE3
:10136700FA7980783F12002DE4FBFA79A0784012D1
:101377000227E4FBFA797F784312011E12037B8070
:101387000DD3E5539450E552940040057FFF121D9D
:101397000A200A0302141CC20A0561AC5FE41203A7
:1013A70047AB5DAA5CA95BA85A1202C4600F400D47
:1013B700AF5DAE5CAD5BAC5A12037B8F5FAC5EE496
:1013C700120347AB5DAA5CA95BA85A1202C4500D71
:1013D700AF5DAE5CAD5BAC5A12037B8F5EE56164BB
:1013E70001700E855D59855C58855B57855A568017
:1013F70024AF59AE58AD57AC56AB5DAA5CA95BA8F4
:101407005A12002DE4FBFAF978401202278F598E01
:10141700588D578C5630111AC2111219E38E528FFC
:1014270053D3E5539463E552940040067552007513
:10143700536330060FC206E563FD7C00E4FF121C10
:101447002F121E952008030214EBC208784C7C006B
:101457007D007BFF7A197908120851EF3395E04F29
:1014670070177567FF75681975690A855D6D855C05
:101477006C855B6B855A6A8052784C7C007D007B5B
:10148700FF7A197916120851EF3395E04F701175ED
:1014970067FF75681975691885526A85536B802BC4
:1014A700784C7C007D007BFF7A197921120851EF77
:1014B7003395E04F70257567FF7568197569238542
:1014C700386D85376C85366B85356AFB7A00793AD6
:1014D700120E847B007A00793A80067BFF7A1979AD
:0514E7002E121CA022E2
:10189500121E2EAF4B7E00EF7004C2808002D280F4
:1018A500EF64014E7004C2818002D281EF64024E62
:1018B5007004C2828002D282AC39E4120347AB5D68
:1018C500AA5CA95BA85A1202C460064004C28380C0
:1018D50002D283D3E5539562E55294004004C28455
:1018E5008002D284300004C2858002D28530010492
:1018F500C2868002D286300304C2878002D2875313
:03190500A01F22FE
:1014EC00200903021647C209121E8C8F607E00EF82
:1014FC006404702B054BE54B75F0038485F04BE4CD
:10150C00F549F54AF555AD4BFCED7006855439851A
:10151C005162ED4C7009300F06C20F0563D206EF15
:10152C0064054E7037AF4BFEEF700D0549E54975FC
:10153C00F0058485F0498024EF64014E700D054A56
:10154C00E54A75F0038485F04A8011EF64024E7011
:10155C000B0555E55575F0038485F055E5116408C8
:10156C007058200255201D52F511E54B6402701A7B
:10157C00AF55FEEF700605540554D20FEF64014EC3
:10158C00700874052551F551D20FAF54EF3395E027
:10159C00FED3EF9463EE648094804006749C2554D3
:1015AC00F554AF51EF3395E0FED3EF9463EE6480C6
:1015BC0094804006749C2551F551E511640870091E
:1015CC00300206F511B20BD201E5116409704E2000
:1015DC00044B201E48F511E54B6402701AAF55FE02
:1015EC00EF700615541554D20FEF64014E70087449
:1015FC00FB2551F551D20FAF54EF3395E0C3648006
:10160C009480500674642554F554AF51EF3395E033
:10161C00C364809480500674642551F551E51164BF
:10162C00097018300415F511F55F755E63F559F501
:0C163C0058F557F556F563D206D203228C
:10086E00E54B6003020B38E549706CE548C4540F44
:10087E0090193693FD7C00E4FF121E83E548540F59
:10088E0090193693FD7C007F01121E837DBF7C0084
:10089E007F02121E83E547C4540F90193693FD7CD8
:1008AE00007F03121E83E547540F90193693FD7C8B
:1008BE00007F04121E837DBF7C007F05121E83E520
:1008CE0046C4540F90193693FD7C007F06121E838A
:1008DE00E546540F020B93E5496401600302099744
:1008EE0090194293FD7C00E4FF121E837DFF7C0075
:1008FE007F01121E837DFF7C007F02121E837DFF0F
:10090E007C007F03121E837DFF7C007F04121E83FA
:10091E00E4FFFE7D207C41AB5DAA5CA95BA85A1268
:10092E00011E12037B7C007D6412063A74362FF58D
:10093E008274193EF583E493FD7C007F05121E83BD
:10094E00E4FFFE7D207C41AB5DAA5CA95BA85A1238
:10095E00011E12037B7C007D0A12063A7C007D0A82
:10096E0012063A74462DF58274193CF583E493FD14
:10097E007C007F06121E83E4FFFE7D207C41AB5D72
:10098E00AA5CA95BA85A020C45E549640260030201
:10099E000A6590194493FD7C00E4FF121E837DFFCF
:1009AE007C007F01121E837DFF7C007F02121E835E
:1009BE00E4FFFE7DC87C42AB38AA37A936A83512B3
:1009CE00011E12037B7C007D6412063A74462FF5DD
:1009DE008274193EF583E493FD7C007F03121E831F
:1009EE00E4FFFE7DC87C42AB38AA37A936A8351283
:1009FE00011E12037B7C007D0A12063A7C007D0AE2
:100A0E0012063A74362DF58274193CF583E493FD83
:100A1E007C007F04121E83E4FFFE7DC87C42AB384F
:100A2E00AA37A936A83512011E12037B7C007D0A57
:100A3E0012063A74362DF58274193CF583E493FD53
:100A4E007C007F05121E837DFF7C007F06121E83B5
:100A5E00A205E433020B93E54964037047901945F0
:100A6E0093FD7C00E4FF121E837DFF7C007F01124C
:100A7E001E837DFF7C007F02121E837DFF7C007F24
:100A8E0003121E837DFF7C007F04121E837DFF7C7C
:100A9E00007F05121E837DFF7C007F06121E837D64
:100AAE00FF020E20E54964046003020E277DC7FC99
:100ABE00FF121E837DFF7C007F01121E837DFF7C53
:100ACE00007F02121E837DFF7C007F03121E837D3A
:100ADE00FF7C007F04121E837DFF7C007F05121EAB
:100AEE0083D3E5539409E5529400401AAE52AF53A6
:100AFE007C007D0A12063A74362FF58274193EF583
:100B0E0083E493FD80027DFF7C007F06121E83AE80
:100B1E0052AF537C007D0A12063A74362DF582745C
:100B2E00193CF583E493FD020E20E54B640160034E
:100B3E00020CC1E54A70567D89FCFF121E837DFEB4
:100B4E007C007F01121E837DFF7C007F02121E83BC
:100B5E007DFF7C007F03121E837DFF7C007F0412CD
:100B6E001E837DFF7C007F05121E83E55F75F00AF4
:100B7E008490193693FD7C007F06121E83E55F7507
:100B8E00F00A84E5F090193693FD020E20E54A64D2
:100B9E00016003020C627D89FCFF121E837DBF7C07
:100BAE00007F01121E837DFF7C007F02121E837D5B
:100BBE00FF7C007F03121E837DFF7C007F04121ECC
:100BCE0083E4FFFE7D207C41AB59AA58A957A85655
:100BDE0012011E12037B7C007D6412063A74362FBE
:100BEE00F58274193EF583E493FD7C007F05121E99
:100BFE0083E4FFFE7D207C41AB59AA58A957A85625
:100C0E0012011E12037B7C007D0A12063A7C007DC7
:100C1E000A12063A74462DF58274193CF583E49354
:100C2E00FD7C007F06121E83E4FFFE7D207C41AB1F
:100C3E0059AA58A957A85612011E12037B7C007D93
:100C4E000A12063A74362DF58274193CF583E49334
:100C5E00FD020E20E54A64026003020E277D89FC28
:100C6E00FF121E837DF77C007F01121E837DFF7CA9
:100C7E00007F02121E837DFF7C007F03121E837D88
:100C8E00FF7C007F04121E837DFF7C007F05121EF9
:100C9E0083E55E75F00A8490193693FD7C007F061D
:100CAE00121E83E55E75F00A84E5F090193693FD09
:100CBE00020E20E54B64026003020E27E5557078A4
:100CCE007D8CFCFF121E83901937E493FD7C007F10
:100CDE0001121E837DFF7C007F02121E837DFF7C2E
:100CEE00007F03121E837DFF7C007F04121E837D16
:100CFE00FF7C007F05121E83E55475F00A12059ED7
:100D0E00FF3395E0FE74362FF58274193EF583E4B9
:100D1E0093FD7C007F06121E83E55475F00A1205C2
:100D2E009EAFF0EF3395E0FE74362FF58274193EC8
:100D3E00F583E493FD020E20E555640170777D8CFA
:100D4E00FCFF121E83901938E493FD7C007F011284
:100D5E001E837DFF7C007F02121E837DFF7C007F41
:100D6E0003121E837DFF7C007F04121E837DFF7C99
:100D7E00007F05121E83E55175F00A12059EFF33A2
:100D8E0095E0FE74362FF58274193EF583E493FDDB
:100D9E007C007F06121E83E55175F00A12059EAF88
:100DAE00F0EF3395E0FE74362FF58274193EF5831D
:100DBE00E493FD805DE5556402705E7D8CFCFF1250
:100DCE001E83901939E493FD7C007F01121E837DF2
:100DDE00FF7C007F02121E837DFF7C007F03121EAC
:100DEE00837DFF7C007F04121E837DFF7C007F05C8
:100DFE00121E83E56375F00A8490193693FD7C000C
:100E0E007F06121E83E56375F00A84E5F0901936AD
:0A0E1E0093FD7C007F07121E832263
:101DCE00121C7B121297300D05C20D1218951208B7
:061DDE006E1214EC80ED12
:03000B0002164892
:10164800C0E0C0F0C083C082C0D075D000C000C068
:0D16580001C002C003C004C005C006C007E9
:10166500D20D0524E524640A7004F524D209052564
:10167500E52564027005F525121DE40526E52664B9
:10168500647004F526D2100527E52764647004F517
:1016950027D20E0528E52864647004F528D20C05C8
:1016A50029E52964C87004F529D211301D1B052BC5
:1016B500E52B7002052AC394E8E52A9403401275C8
:1016C5002A00752B00D2028008752A00752B00C2EE
:1016D50002301E1B052DE52D7002052CC394E8E58F
:1016E5002C94034012752C00752D00D204800875CA
:1016F5002C00752D00C204300019052FE52F70024E
:10170500052EC394B8E52E940B4008752E00752F51
:1017150000C2003001190531E53170020530C3946E
:10172500B8E530940B4008753000753100C20130C2
:1017350003190533E53370020532C394B8E53294D5
:0B1745000B4008753200753300C20332
:10175000D007D006D005D004D003D002D001D000ED
:0B176000D0D0D082D083D0F0D0E03297
:0300230002199D22
:0D199D00C0E0C0D075D000C000C006C0077B
:1019AA0030982BC298AF99201C13BF0D04D21C800B
:1019BA001DAE340534744C2EF8A6078011BF0A0EEA
:0E19CA00D208744C2534F87600753400C21C27
:0B19D800D007D006D000D0D0D0E03205
:0A1CFF000809FFFFFFFFFFFFFFFFD2
:0F1E2E0053A01F7580FFE5A0541F4480F5A0222C
:0F1E3D0053A01FE4F580E5A0541F44A0F5A02298
:101B920053A01FEFFD7C006401700BF580E5A0549B
:101BA2001F44C0F5A022ED64024C700B7580FFE566
:081BB200A0541F44E0F5A0223D
:101B6800AB05AA04AE077F02121B921F121B92AF8D
:101B780006A8077401088002C333D8FC42807F029C
:0A1B8800121B92EB528053A01F22A3
:101DE40074092508F8E6FD7C00AF08121B68050895
:031DF4005308078A
:011DF70022C9
:091E8300AE0574092FF8A6062231
:10176B00E4F566D2B2D2B3C2C2C2C420B20375646E
:10177B000B20B30375640730B20630B30375640FE7
:10178B00C2B2C2B3D2C2D2C420C2037565B020C4E8
:10179B000375657030C20630C4037565F0E56445AA
:1017AB0065F566E5121460101460472402704EE56F
:1017BB0066F4604975120122E566F47003F5122296
:1017CB00E5662485601124C4601224FC601824444F
:1017DB00701C75130480177513058012751308752B
:1017EB001108D21D8008751309751109D21E7512C7
:0D17FB000222E566F47006F512C21DC21E42
:0118080022BD
:081E8C0012176BAF13E4F5130C
:011E9400222B
:101A9D00121E5B7F90121AD5121E0C2013047F416B
:101AAD0080027F43121AD5121E0C121E77121E5B76
:101ABD007F91121AD5121E0C121C558F647F0112C4
:071ACD001DB6121E77AF6485
:011AD40022EF
:101D0A008F64121E5B7F90121AD5121E0C7F40122E
:101D1A001AD5121E0CAF64121AD57F01121DB60213
:021D2A001E7722
:021B0A008F64E6
:101B0C00121E5B7FA0121AD5121E0CAF64121AD5CE
:101B1C00121E0C121E77121E5B7FA1121AD5121EFA
:101B2C000C121C558F657F01121DB6121E77AF6506
:011B3C002286
:101C2F008F648C658D66121E5B7FA0121AD5121EF3
:101C3F000CAF64121AD5121E0CAF66121AD57F01A3
:061C4F00121DB6021E7713
:0D1E6A00121BE17FCC121BBA7F44021BBA91
:101B3D00121BE17FCC121BBA7FBE121BBA121CC541
:101B4D008F64121CC5EFFEE564FFFDAC06E41203C5
:0B1B5D0042E4FBFA7980783D02011E93
:101956008B648A6589667D7F7F8E121DF8AB64AACB
:1019660065A9661205C0FD7F80121DF8AB64AA65E5
:10197600A9669000011205D9FD7F82121DF8AB649D
:10198600AA65A9669000021205D9FD7F84121DF88A
:071996007D807F8E021DF829
:101A64008B648A6589667F81121A27AB64AA65A98B
:101A740066EF1206067F83121A27AB64AA65A9666D
:101A8400900001EF1206187F85121A27AB64AA652D
:091A9400A966900002EF02061899
:0E1E4C0000007F237E337DB6DDFEDEFCDFFA74
:011E5A002265
:081E95007F3B7E5ADEFEDFFCFC
:011E9D002222
:061E9E0000007F21DFFEC1
:011EA400221B
:10000E00438E805389F0758A20758CD1C28DD28C27
:05001E00D2A9D2AF22BF
:101E1E00538EBF53890FE4F58BF58DC28FC28E2280
:101D4A00E4F566C3E566940874809480500ED290D8
:0C1D5A00121E9EC290121E9E056680E7BD
:011D6600225A
:1019E300121D4AD28E309103308FFAC28E208F227D
:1019F300AF8DEFFEAD8BEDFFAC06E41203427B9699
:101A03007A43798B783C12011E12037B8E648F65B7
:101A13008008C28F7564037565E7E4F58DF58BAEB9
:031A230064AF6548
:011A2600229D
:101D9D00759850438E01438E0475D78F75D6FD43CC
:091DAD008E10C298D2ACD2AF2214
:080003008F993099FDC299228A
:101CA0008B648A658966AB64AA65A9661205C06003
:101CB000130566E5667002056514F91205C0FF128A
:051CC000000380E22298
:101D6700E4FEEEC3940874809480500FC297EF137B
:0B1D770092A3EFC313FFD2970E80E78A
:011D8200223E
:101DF800C29300C29700D29300121D67AF05121D4F
:041E080067C29322F8
:101A2700E4FDC29300C29700D29300121D67E4FF42
:101A3700EFC39408748094805011C297EDC313FDCF
:101A470030A303430580D2970F80E5C29300C29766
:0C1A570000D29700C2A300D2A300AF058C
:011A63002260
:041D8300D2A07F0566
:101D8700000000000000000000000000000000AE9E
:061D9700071FEE70EB22B5
:0F1E5B00D2A1121D83C2A17F05121D87C2A02232
:0C1E7700C2A1121D83D2A17F05021D87AD
:021AD500AD075B
:101AD700E4FCECC39408748094805024C2A07F0572
:101AE700121D87ED30E704D2A18002C2A17F051243
:101AF7001D87D2A0ED25E0FD7F05121D870C80D242
:021B0700C2A07A
:011B090022B9
:101C5500E4FCECC39408748094805017121D83ED46
:101C650025E0FD30A103430501C2A07F05121D87B4
:051C75000C80DFAF054B
:011C7A002247
:101E0C00121D83A2A1E433FDC2A07F05121D87AF72
:011E1C0005C0
:011E1D0022A2
:101DB600C2A0EF24FF92A17F05121D87121D83C2C8
:081DC600A0D2A17F05021D87D8
:041D2C007F057E00B1
:101D3000EF1FAA0670011E4A600FE4FDEDC3940C6C
:091D40007480948050EA0D80F3D8
:011D49002277
:021BBA00A90779
:101BBC00E4FBEBC39408748094805012C294E91334
:101BCC009294121D2CD294E9C313F90B80E47F0577
:051BDC007E00021D3037
:101CC500E4FBEBC39408748094805014C294ECC375
:101CD50013FCD294309403430480121D2C0B80E234
:021CE500AF044A
:011CE70022DA
:101BE100C213D2947F0C7E00121D30C2947F507EAE
:101BF10000121D30D2947F0A7E00121D30A29492F1
:061C010013121D2CA213BA
:011C070022BA
:100026000203E7E86480F8E933E83360110460F01E
:10003600ED33EC337009E8FCE9FDEAFEEBFF220440
:1000460060DED3EB9FEA9EE99DE8C2E78CF0C2F73B
:1000560095F0400CE8CCF8E9CDF9EACEFAEBCFFB07
:100066001203B285D0F05804700320D5B3E80470AB
:10007600075002B2D50203F192D5EC0460F7E4CC46
:10008600C0E0C398F8603B94186008400DD0E0FBD0
:100096000203C9E4FBFAC9FC8028E830E406E4C997
:1000A600FBE4CAFCE830E305E4C9CACBFCE8540724
:1000B6006010F8C3E913F9EA13FAEB13FBEC13FC2F
:1000C600D8F130F52FC3E49CFCEF9BFFEE9AFEEDD2
:1000D60099FDD0E0FBEF4E4D4C701222DB0302037C
:1000E600EEEC2CFCEF33FFEE33FEED33FDED30E7A7
:1000F600EB0203C9EF2BFFEE3AFEED39FDD0E0FB34
:1001060050130BBB00030203F1ED13FDEE13FEEFDC
:0801160013FFEC13FC0203C906
:10011E00EC4D6011E8497017ED33EC3304600DE4DB
:10012E00FCFFFEFD22E933E8330470F80203E71208
:10013E0003B258046009E4CC248150062850090209
:10014E0003F12840030203EEC0E0EB4A7044B9808D
:10015E0006D0E0FB0203DDEF4E701CBD8008EBFF06
:10016E00EAFEE9FD80EBE98DF0A4FEE5F002020760
:10017E00E9CDF9EAFEEBFFEF89F0A4FCE5F0CE89BC
:10018E00F0A42EFFE435F0CD89F0A42DFEE435F079
:10019E008067EF4E7005BD80D780C3EF8BF0A4ACA7
:1001AE00F0EE8BF0A42CFCE435F0F8EF8AF0A42CE2
:1001BE00E5F038FCE433CB8DF0A42CFCE5F03BF8F5
:1001CE00EE8AF0A42CFCE5F038F8E433CF89F0A4E5
:1001DE002CFCE5F038CF3400CE89F0A42FFFE5F0EB
:1001EE003EFEE433C98DF0A42EFEE5F039CD8AF043
:1001FE00A42FFFE5F03EFEE43DFD33D0E0FB5007BB
:10020E000BBB000F0203F1EC2CFCEF33FFEE33FEC1
:06021E00ED33FD0203C9EF
:100224000203F1EC5D046005E8590470030203E77E
:100234001203B2580460F6EC4860F2EC7004FDFE60
:10024400FF22C860DB2481C85009C39860025006AD
:100254000203EE9850CAF582E9294B4A7005AB8235
:100264000203DD75F0007C1A7880C3EF9BEE9AEDF3
:1002740099400DC3EF9BFFEE9AFEED99FDE842F025
:10028400DC23ACF0D0E0FFD0E0FED0E0FDAB822078
:10029400E7101BEB60BAEC2CFCEF33FFEE33FEED02
:1002A40033FD0203C9E803F830E705C0F075F00038
:1002B400EF2FFFEE33FEED33FD40B830E7C280AAE6
:1002C40074F8CC6480CCC86480C8F58204604FC3E1
:1002D400EB9FF5F0EA9E42F0E99D42F0E89C45F080
:1002E400603C501DE5825FFFE582D313CB5BCBF40A
:1002F4002B5582FB50280ABA002409B90020088033
:100304001DE5825BFBE582D313CF5FCFF4C3132FCC
:100314005582FF50090EBE00050DBD00010CC3EB54
:100324009FF5F0EA9E42F0E99D42F0E89C45F060BA
:0903340007CC4820E701B3EC22DC
:10033D0075F020800E75F010800575F0087D007E3B
:10034D00007F003392D530D50312068FEC33401069
:10035D00EF33FFEE33FEED33FDEC33FCD5F0ED2244
:0E036D00E5F0247EA2D513CC92E7CDCEFF2280
:10037B00EDD2E7CD33EC3392D524814006E4FFFE7A
:10038B00FDFC22FCE4CFCECDCC24E0501174FF80D9
:10039B00EDC3CC13CCCD13CDCE13CECF13CF047076
:0703AB00F030D5DE02068FE1
:100E2800E57B2467F8E6057B227864301A02786748
:100E3800E475F00112069D0205C02013EB7F2ED247
:100E4800138018EF540F2490D43440D4FF30170B7C
:100E5800EF24BFB41A0050032461FFE57C6002153B
:100E68007C057FE57F7002057E301A0D7864E47595
:100E7800F00112069DEF020606021C087403D21A3E
:100E88008003E4C21AF57B8B648A658966E4F57C85
:100E9800F57EF57FE57C60077F20120E6380F5758F
:100EA8007DFFC214C213C215C216C218C219C21BD2
:100EB800120E31FF700D301A057F00120E74AF7FCD
:100EC800AE7E22B4255FC2D5C217120E31FF24D0E0
:100ED800B40A00501A75F00A787C30D50508B6FFB8
:100EE8000106C6A426F620D5047002D21680D9249D
:100EF800CFB41A00EF5004C2E5D217021161D21420
:100F080080C6D21380C0D21580BCD2D580BAD21880
:100F180080B47F20120E632015077401B57C004051
:100F2800F1120E28FF120E63020E9CD21BD21980FA
:100F380095120E28FB120E28FA120E28F94A4B7049
:100F48000679587A127BFF20152EE57C602A7E00F0
:100F58008E827583001205D960060EEE657D70F0ED
:100F6800C2D5EBC0E0EAC0E0E9C0E0EE1211C1D0A2
:100F7800E0F9D0E0FAD0E0FB1205C0FF60AAEBC0B0
:100F8800E0EAC0E0E9C0E0120E63D0E02401F9D045
:100F9800E03400FAD0E0FBE57D0460DCD57DD98043
:100FA80087D21580A21211A460F7E57D70010412A2
:100FB80003FCA97D600DE57D600914F57D12124BD7
:100FC800EF60F3EA30E702F404C3995077EAF425B6
:100FD8007D0430E701E404F57D800D1211A460C1A1
:100FE800EA057D257D1203FCEA787AF630E701E40C
:100FF800257D04D57D04201801141211C1E4C0E038
:1010080012124B787AE6601320E70714F6120E4B9B
:10101800802204F6D0E014C0E07F00120E4BE57D7C
:101028006007120E42157D800B301803120E42D055
:10103800E0020E9CD0E00480C51211A460A0E57DFA
:10104800041203FC787AEAF6E57D201802600104B0
:0510580024041211C187
:10105D0074FF04C0E012124B120E4BE57D201802F6
:10106D006003120E42D0E0B57DE87F45120E557833
:10107D007AE67F2B30E7047F2DF404C0E0120E6377
:10108D00D0E075F00A84C0F0120E4CD0E0120E4C78
:10109D00020E9C791080027908C219C21B8008D2F9
:1010AD00D5790A8004790AC2D5E57D047002F57DF3
:1010BD00E4FAFDFEFF120E28FC7B08201413120E1D
:1010CD0028FD7B1030130A120E28FE120E28FF7B0E
:1010DD0020EC3382D592D55013C3E43013069FFF15
:1010ED00E49EFEE42014039DFDE49CFCE4CBF8C2D9
:1010FD0014EC700CCFCECDCCE824F8F870F380173B
:10110D00C3EF33FFEE33FEED33FDEC33FCEB33FB7E
:10111D00994002FB0FD8E9EB301405F8D0E0C44834
:10112D00B214C0E00AEC4D4E4F78207B0070C2EA3D
:10113D00B57D0040BCC0E01211C3D0F0D0E020144A
:10114D0004C4C0E0C4B214C0F0120E4CD0F0D5F0FF
:10115D00EB020E9C1206AD0F395310A0580F0A4C1E
:10116D000F064210A44F10AC4410AC490F1F431092
:10117D00B2550FE3461041450FAD471278500F0E93
:10118D002D0F122E0F352B0F16230F332012612A20
:10119D000ECE4800000F2DE57DB4FF03757D0612C0
:1011AD000E28FC120E28FD120E28FE120E28FF78B6
:1011BD007302042B790AA2D5201614301809B91020
:1011CD00020404B9080104A2D5201902500104201B
:1011DD0015689215B57C005034C0E07F203016198B
:1011ED007F30A21572197218500F12121AC215C241
:1011FD0019C218C21B7F30800F301803E9C0E012EE
:10120D000E63301803D0E0F9D0E0B57CCC30181760
:10121D007F30B9100C120E637F583017077F78801E
:10122D0003B90803120E633015057F2D020E637F7F
:10123D0020201BF87F2B2019F322921580CF7F00E1
:10124D00B4070050052473F8E6FF22286E756C6C08
:10125D002900D214120E283014F8C214787C30D51F
:10126D000108F6020ECE2D50434958120E282403C4
:10127D00B405004001E490127393120E54743A12A7
:0A128D000E54D216757C040210A066
:1003B200E9D2E7C933E833F892D5EDD2E7CD33EC91
:0703C20033FC5002B2D5220A
:1003C900EC30E7100FBF000C0EBE00080DBD000495
:1003D9000BEB6014A2D5EB13FCED92E7FD2274FF41
:1003E900FCFDFEFF22E480F8A2D574FF13FC7D809A
:0303F900E480EFAE
:1003FC00F920E72824F950037907E4F42402FB18C8
:10040C00DBFDE624FB5014E9600DE4F618E604F677
:0F041C00B40A08E4F6D9F57401F60A22C2D52213
:10042B00ED33EC3392D5FA602AB4FF33EDC2E77BA0
:10043B00FF60067A047950E4227A04795920D504B6
:10044B007A047954224E614E002B494E46002D49B9
:10045B004E4600E47A08F608DAFC7B00740722E8C3
:10046B00C0E0ECC0E0EDC0E0EEC0E0EFC0E0EA754C
:10047B00F010A4CAABF075F04DA42BFBE435F0FCE7
:10048B00EA2410FAEB34C5FBEC34D9FCEDC2E7FFE0
:10049B0075F056A4F42411C5F0F434C58FF0A42ADA
:1004AB00E5F03BE43CF620E71412055ED0E0FFD00C
:1004BB00E0FED0E0FDD0E0FC1202278014F4041221
:1004CB00055ED0E0FFD0E0FED0E0FDD0E0FC1201F5
:1004DB001ED0E0F8E6FAEDD2E7CD33EC332482FB05
:1004EB00E4C3CF33CFCE33CECD33CD33DBF37B076A
:1004FB0075F00A846004F6081B0AE5F0F6088FF025
:10050B00740AA4FFACF08EF0740AA42CFEACF0506D
:10051B00010C8DF0740AA42CFDE435F0F608DBDE3B
:03052B0074072230
:10052E003F8000004120000042C80000447A0000D5
:10053E00461C400047C35000497424004B18968057
:10054E004CBEBC205A0E1BCA6753C21C749DC5AE4E
:10055E00FB60065407601C232312058CEB54386095
:10056E000912057812058712011EECF8EDF9EEFA64
:10057E00EFCB22EB12058780F1543803241C900533
:10058E002EFE93FC0EEE93FD0EEE930ECE93FF22F7
:10181500021DCEE493A3F8E493A34003F68001F2FE
:1018250008DFF48029E493A3F85407240CC8C333D4
:10183500C4540F4420C8834004F456800146F6DFA3
:10184500E4800B0102040810204080901CE8E47E2F
:10185500019360BCA3FF543F30E509541FFEE49398
:10186500A360010ECF54C025E060A840B8E493A35F
:10187500FAE493A3F8E493A3C8C582C8CAC583CA8A
:10188500F0A3C8C582C8CAC583CADFE9DEE780BE42
:011D090000D9
:10059E00C2D530F707B2D563F0FF05F030E70CB2E5
:1005AE00D5F4048463F0FF05F080018430D502F4A5
:0205BE00042215
:1005C000BB010689828A83E0225002E722BBFE0239
:0905D000E32289828A83E493226C
:1005D900BB010CE58229F582E5833AF583E02250D7
:1005E90006E92582F8E622BBFE06E92582F8E22221
:0D05F900E58229F582E5833AF583E493223B
:10060600BB010689828A83F0225002F722BBFE01D3
:02061600F322CD
:10061800F8BB010DE58229F582E5833AF583E8F018
:10062800225006E92582C8F622BBFE05E92582C8C4
:02063800F222AC
:10063A00BC000BBE0029EF8DF084FFADF022E4CCA4
:10064A00F875F008EF2FFFEE33FEEC33FCEE9DEC6D
:10065A00984005FCEE9DFE0FD5F0E9E4CEFD22EDB3
:10066A00F8F5F0EE8420D21CFEADF075F008EF2FFD
:10067A00FFED33FD4007985006D5F0F222C398FDEE
:05068A000FD5F0EA228B
:0E068F00C3E49FFFE49EFEE49DFDE49CFC227C
:10069D00FAE6FB0808E6F925F0F618E6CA3AF6225E
:1006AD00D083D082F8E4937012740193700DA3A3DC
:1006BD0093F8740193F5828883E4737402936860F0
:0606CD00EFA3A3A380DFF0
:101C0800EFB40A07740D121C13740A309811A899BE
:101C1800B8130CC2983098FDA899C298B811F6303C
:071C280099FDC299F5992214
:1006D300E3F5F009E208B5F06D606B80F3E3F5F044
:1006E30009E608B5F060605E80F387F009E608B5B7
:1006F300F054605280F487F009E208B5F048604690
:1007030080F488828C8387F009E0A3B5F0386036E3
:1007130080F488828C8387F009E493A3B5F0276083
:100723002580F388828C83E3F5F009E0A3B5F01606
:10073300601480F388828C83E3F5F009E493A3B516
:10074300F004600280F20207FE808580E7808E80DD
:10075300D2803C8015806C807E809B80B5808B80AE
:10076300A1804F8070803A02080A89828A83ECFA5A
:10077300E493F5F0A3C8C582C8CCC583CCE493A3A6
:10078300C8C582C8CCC583CCB5F070606E80E189E2
:10079300828A83E493F5F0A3E208B5F05E605C809F
:1007A300F289828A83E0F5F0A3E608B5F04D604B49
:1007B30080F389828A83E0F5F0A3E208B5F03C6018
:1007C3003A80F389828A83E493F5F0A3E608B5F0CF
:1007D3002A602880F2805389828A83ECFAE493F5B5
:1007E300F0A3C8C582C8CCC583CCE0A3C8C582C862
:1007F300CCC583CCB5F004600280E27FFFB5F00284
:100803000F2240027F012289828A83ECFAE0F5F00D
:10081300A3C8C582C8CCC583CCE0A3C8C582C8CC55
:10082300C583CCB5F0D560D380E389828A83ECFAA3
:10083300E0F5F0A3C8C582C8CCC583CCE493A3C8B4
:10084300C582C8CCC583CCB5F0B160AF80E288F077
:10085300ED2402B4040050A3F582EB2402B4040097
:0B0863005099232345822390074C731B
:00000001FF
